:020000040800F2
:10000000781300204501000821100008D50E0008D3
:100010001D100008BD030008CD1F000800000000EF
:10002000000000000000000000000000C5170008EC
:10003000290D0008000000000F150008B118000885
:100040005F0100085F0100085F0100085F01000810
:100050005F0100085F0100085F0100085F01000800
:100060005F0100085F0100085F0100085F010008F0
:10007000310800086D0800088D080008C90800084C
:10008000F9080008190900085F0100085F0100086D
:100090005F0100085F0100085F0100085F010008C0
:1000A0005F0100085F0100085F0100085F010008B0
:1000B00015190008851900085F0100085F01000894
:1000C0005F0100085F0100085F010008BD1500081E
:1000D0005F0100089D1B0008311D0008A91E0008D3
:1000E0005F0100085F0100085F0100085F01000870
:1000F0005F0100085F0100085F0100085F01000860
:100100005F0100085F0100085F0100085F0100084F
:100110005F0100085F0100085F0100085F0100083F
:100120005F0100085F0100085F0100085F0100082F
:10013000DFF80CD000F030F900480047D52D00085A
:10014000781300200648804706480047FEE7FEE790
:10015000FEE7FEE7FEE7FEE7FEE7FEE7FEE7FEE777
:10016000B518000831010008F0B480EA0102D40F8C
:100170004200B2EB410F02D20246084611464A0045
:1001800042D0C30DDDB2C1F3C752AD1A202D35DA0E
:10019000C1F3160141F4000204B15242C5F1200638
:1001A00002FA06F12A411044B3EBD05F23D0C4B168
:1001B000012DA0EBC35009DCF0BC4FF0004202EA75
:1001C000C352DBB200F5000000F0B8B8400000F107
:1001D000807000EBC350A0F1807040EAD1704900FC
:1001E00009E0490841EAC071A0EBC35000F50000E6
:1001F000400800EBC350F0BC00F097B86142012208
:1002000002EB4101001BF6E7F0BC704781F00041B2
:10021000AAE780F00040A7E780EA010210B502F0EB
:100220000043400022D04A001FD0010E01EB1261B2
:10023000C0F35600C2F3560240F4000042F400023C
:10024000A0FB022000047F39140400D0401C50EAB7
:10025000124001D44000491EC2B20C0604EBD0107B
:10026000401C4008802A02D003E0002010BD20F08E
:100270000100002900DA0020184310BD30B480EAE4
:10028000010202F0004530F0004221F0004013D09E
:1002900090B1C30DD40DC2F31601C0F31600E41AD9
:1002A00041F4000140F400027D34914201D3641C0A
:1002B00000E04900002C02DA30BC002070474FF407
:1002C00000000023914201D3891A034340084FEAFA
:1002D0004101F7D151B1914202D14FF0004105E007
:1002E00002D24FF0010101E06FF0010103EBC450B5
:1002F000284430BC00F019B896230022114600F0C3
:100300001DB820F00040C10DC0F3160040F40000FD
:100310007F2901DA00207047962903DCC1F196019C
:10032000C84070479639884070470029A8BF704779
:10033000401C490008BF20F00100704710B4B0FA1B
:1003400080FC00FA0CF050EA010404BF10BC7047B6
:1003500049B1CCF1200421FA04F411FA0CF118BFD0
:10036000012121430843A3EB0C01CB1D4FEA00619F
:100370004FEA102042BF002010BC704700EBC35072
:1003800010440029A4BF10BC7047401C490008BF9E
:1003900020F0010010BC7047064C074D06E0E068F5
:1003A00040F0010394E8070098471034AC42F6D3BC
:1003B000FFF7C2FE64B5000884B5000800BFFEE781
:1003C0002DE9F04385B004460D4616461F46DDF87C
:1003D00030904FF0000814B10DB106B11FB90120E3
:1003E00005B0BDE8F083601EC4B2681EC5B2701EC1
:1003F000C6B2781E87B20121480601F099F80121A2
:10040000042001F0A5F84FF40060ADF8100048207A
:100410008DF8130004A9454800F087FC4FF4805084
:10042000ADF8100018208DF8130003208DF812008D
:1004300004A93E4800F079FC00203D4908600846C8
:10044000006840F00100086008E008F101001FFAB0
:1004500080F8B8F1640F01DD0220C1E7344800687C
:1004600000F001000028F0D03148006830490860F1
:100470000846006808600846006840F01000086000
:10048000084600680860084600680860002028499F
:100490001C3108600846006840EA89700860084618
:1004A000006840EA046008600846006840EA0550B9
:1004B00008600846006840EA064008600846006890
:1004C000384308601A48006820F0010018490860A5
:1004D00009E008F101001FFA80F84FF6F07080453E
:1004E00001DD03207CE71248006800F001000028CD
:1004F000EFD101208DF80A0000208DF80B000120BB
:100500008DF80C000020ADF80000ADF80600ADF845
:100510000400ADF80600ADF8080001208DF80D00CC
:10052000684600F0EFF800205AE70000000801409C
:1005300000640040F8B506460D460024082300225A
:1005400011463046009500F015F8074601E0601CA2
:1005500084B2384600F094F8072803D040F6FF70C4
:100560008442F4DB40F6FF70844201DB0120F8BDD9
:100570000020FCE7F0B505460E46059C3E480068A5
:1005800000F0806008B100210FE03B48006800F0F7
:10059000006008B1012108E03748006800F0805091
:1005A00008B1022101E0FF20F0BD0027334800EB35
:1005B000011007601EB9C5F30A056D0502E025F0BC
:1005C0006045ED002D4800EB0110006828432B4FDB
:1005D00007EB01173860294800EB0110006840EA7A
:1005E0008607264800EB01100760244800EB011045
:1005F000006840EA4207214800EB0110076003F061
:100600000F031E4800EB0110406820F00F071B4845
:1006100000EB01104760194800EB011040681843D7
:10062000164F07EB01177860E0790006A77940EADA
:100630000740677940EA0727207907430F4800EB16
:100640000110C760E0780006A77840EA07406778A5
:1006500040EA072027783843084F07EB0117B860B6
:10066000064800EB0110006840F00107034800EB6A
:1006700001100760084697E7086400408065004065
:100680000146002021B1012913D0022933D121E0F4
:100690001B4A126802F001021043194A126802F064
:1006A00002021043164A126802F0806240EA1260A9
:1006B00023E0134A126802F001021043104A126844
:1006C00002F0020210430E4A126802F0006240EA91
:1006D000526012E00A4A126802F001021043084A0E
:1006E000126802F002021043054A126802F08052BA
:1006F00040EA926001E0052000BF00BF70470000A3
:100700000864004010B50021837A012202FA03F147
:100710003D4A126842F001023B4B1A603A4A1C32D1
:1007200012688A43384B1C331A60027BCAB9364AB6
:100730000C3212688A43344B0C331A604288C388E7
:1007400042EA0343304A4032847A42F83430028825
:10075000838842EA03432C4A4032847A02EBC40283
:100760005360027B012A19D1274A0C3212680A43CE
:10077000254B0C331A604288038842EA0343224A1D
:100780004032847A42F83430C288838842EA034394
:100790001D4A4032847A02EBC4025360C27A3AB9ED
:1007A000194A121D12688A43174B1B1D1A6006E076
:1007B000154A121D12680A43134B1B1D1A60028949
:1007C00032B9114A143212688A430F4B14331A603B
:1007D0000289012A06D10C4A143212680A430A4BD4
:1007E00014331A60427B012A06D1074A1C32126870
:1007F0000A43054B1C331A60034A126822F00102B7
:10080000014B1A6010BD00000066004030B5044680
:100810000D46152000F02EFE04F10801C8B200F0CC
:1008200023FE05F10801C8B200F01EFE30BD000035
:100830000B48406840F0200009494860084640687D
:1008400040F4007048600748008820F080000549A7
:10085000088005480078401C034908707047000074
:1008600000000240144800402700002010B54FF45B
:10087000007000F08FF838B14FF4007000F070F89D
:100880004FF4007000F05EF810BD00000B484068A7
:1008900040F40050094948600846406840F48050E0
:1008A00048600748008820F0800005490880054816
:1008B0000078401C034908707047000000000240A7
:1008C000143801402300002010B50A48406840F465
:1008D0000030084948604FF4003000F05BF840B148
:1008E00000210448583000F049F84FF4003000F07F
:1008F00037F810BD0000024010B54FF4001000F0B2
:1009000049F828B10348406840F400300149486084
:1009100010BD0000000002400848406840F0007030
:10092000064948600846406840F0807048600448C6
:10093000008820F0800002490880704700000240D3
:100940001444004000F0805111B10349086001E0F7
:100950000249486070470000040402400000024061
:1009600000F0805111B10349086001E0024948607C
:1009700070470000040402400000024021B10268F8
:1009800042F00102026004E002684FF6FE731A4072
:100990000260704701460020002201F0805313B12D
:1009A000054B1A6801E0054B1A6802EA01030BB116
:1009B000012000E0002070470004024000000240D7
:1009C000F8B504460F4616461D460121084600F0BC
:1009D0009FFD2148406940F001001F494861A76020
:1009E000E6601E480580656000202060206840F0B9
:1009F000020020602068206020682060206820605D
:100A0000206840F08000206020682060206820601E
:100A1000206840F4805020602068206010480088E2
:100A200040F040000E490880206840F0010020603E
:100A3000206840F0020020600F208DF800000320A5
:100A40008DF801008DF8020001208DF80300684642
:100A500000F0EEFAF8BD0000001002400200002095
:100A600014380140F8B504460F4616461D460121CC
:100A7000084600F04DFD1A48406940F00100184951
:100A80004861A760E6601748058065600020206027
:100A9000206840F0100020602068206020682060FE
:100AA000206840F08000206020682060206820607E
:100AB0002068206020682060206840F002002060EC
:100AC0000E208DF8000003208DF801008DF8020043
:100AD00001208DF80300684600F0AAFAF8BD000076
:100AE0000010024002000020F8B504460F461646EA
:100AF0001D460121084600F00BFD1F48406940F0EB
:100B000001001D494861A760E6601C4805806560DA
:100B100000202060206840F00200206020682060F3
:100B20002068206020682060206840F080002060FD
:100B30002068206020682060206840F48050206099
:100B4000206820600E48008840F040000C49088072
:100B5000206840F00100206010208DF80000032084
:100B60008DF801008DF8020001208DF80300684621
:100B700000F05EFAF8BD0000001002400400002002
:100B800014440040F8B504460F4616461D460121A0
:100B9000084600F0BDFC1A48406940F001001849C1
:100BA0004861A760E6601748058065600020206006
:100BB000206840F0100020602068206020682060DD
:100BC000206840F08000206020682060206820605D
:100BD0002068206020682060206840F002002060CB
:100BE00011208DF8000002208DF801008DF8020020
:100BF00001208DF80300684600F01AFAF8BD0000E5
:100C00000010024004000020F8B504460F461646C6
:100C10001D460121084600F07BFC1F48406940F05A
:100C200001001D494861A760E6601C4805806560B9
:100C300000202060206840F00200206020682060D2
:100C40002068206020682060206840F080002060DC
:100C50002068206020682060206840F48050206078
:100C6000206820600E48008840F040000C49088051
:100C7000206840F0010020600D208DF80000032066
:100C80008DF801008DF8020001208DF80300684600
:100C900000F0CEF9F8BD0000001002400400002072
:100CA00014480040F8B504460F4616461D4601217B
:100CB000084600F02DFC1A48406940F00100184930
:100CC0004861A760E66017480580656000202060E5
:100CD000206840F0100020602068206020682060BC
:100CE000206840F08000206020682060206820603C
:100CF0002068206020682060206840F002002060AA
:100D00000C208DF8000003208DF801008DF8020002
:100D100001208DF80300684600F08AF9F8BD000054
:100D2000001002400400002070472DE9F041024607
:100D300000250026002000230024002791F803C08E
:100D40000CF00F0591F803C00CF0100CBCF1000F73
:100D500003D091F802C04CEA050591F800C0BCF13F
:100D6000000F31D0146800202BE04FF0010C0CFA7A
:100D700000F3B1F800C00CEA03069E4220D18300C4
:100D80004FF00F0C0CFA03F7BC4305FA03FC4CEAD6
:100D9000040491F803C0BCF1280F06D14FF0010CF8
:100DA0000CFA00FCC2F814C00AE091F803C0BCF1D0
:100DB000480F05D14FF0010C0CFA00FCC2F810C02E
:100DC000401C0828D1D31460B1F800C0BCF1FF0F5B
:100DD00034DD546800202EE000F1080C4FF00108CB
:100DE00008FA0CF3B1F800C00CEA03069E4221D1C8
:100DF00083004FF00F0C0CFA03F7BC4305FA03FC19
:100E00004CEA040491F803C0BCF1280F05D100F1AD
:100E1000080C08FA0CF8C2F8148091F803C0BCF171
:100E2000480F07D100F1080C4FF0010808FA0CF840
:100E3000C2F81080401C0828CED35460BDE8F08171
:100E4000F0B50A46002300240021002500F00046EA
:100E5000B6F1004F02D11D4EF16901E01B4E7168E1
:100E6000C0F3034583B200F44016B6F5401F08D125
:100E700021F07061154E766826F07066134F7E6023
:100E800012E000F48016B6F5801F06D1032606FA9C
:100E900005F4A14341F0706106E0460D360103FA06
:100EA00006F6B14341F0706122B1460D360103FAF6
:100EB00006F6314300F00046B6F1004F02D1034E72
:100EC000F16101E0014E7160F0BD000000000140E1
:100ED0000161704700BFFEE708B501210D2000F059
:100EE00037FB0121702000F033FB01211E48FFF782
:100EF000A7FF4FF4E940ADF800004FF43060ADF8C3
:100F0000000048208DF8030069461848FFF70DFFE0
:100F100040F2C310ADF8000048208DF80300694688
:100F20001348FFF702FF3E20ADF8000048208DF87F
:100F3000030069460F48FFF7F8FEF820ADF80000FF
:100F400048208DF8030069460B48FFF7EEFE4FF48A
:100F5000F040ADF8000048208DF8030069460648CF
:100F6000FFF7E3FE08BD000000023000001801405A
:100F7000000C0140001001400014014008B501219F
:100F80000D2000F0E5FA0121702000F0E1FA0121C6
:100F90001E48FFF755FF4FF40070ADF80000102019
:100FA0008DF8030003208DF8020069461848FFF70A
:100FB000BCFE4FF400711648FFF78AFF4FF4007033
:100FC000ADF8000010208DF8030003208DF802001A
:100FD00069461048FFF7A9FE4FF400710D48FFF76E
:100FE00077FF4FF48070ADF8000010208DF80300FB
:100FF00003208DF8020069460748FFF796FE4FF47C
:1010000080710548FFF764FF08BD00000002300052
:10101000000C0140001001400008014000BFFEE745
:10102000704710B54FF4A06000F03AF810BD000012
:1010300070B5002100230F22C47804B3154C246836
:1010400004F4E064C4F5E064210AC1F10403CA4079
:10105000447804FA03F184781440214309010E4CCA
:101060000678A155047804F01F050124AC400578EA
:101070006D11AD0005F1E025C5F8004109E00478E7
:1010800004F01F050124AC40044D0678761145F8A4
:10109000264070BD0CED00E000E400E080E100E0DF
:1010A00002490143024A1160704700000000FA053E
:1010B0000CED00E02DE9F04704460E4615461F46AC
:1010C000DDF820A02046E11704EB9171C1F38F04F5
:1010D0002846E91705EB9171C1F38F056A1ED1B25D
:1010E000E0B2FFF793FB7A1ED1B2F0B200F040FA03
:1010F00004F0FF0812E006F0FF0909E0504600F096
:10110000B3F9504600F0B0F909F1010000F0FF0911
:10111000B945F3DB08F1010000F0FF08A845EADB60
:10112000BDE8F08708B501217C2000F011FA01210B
:10113000084600F00DFA01212848FFF781FE28201B
:10114000ADF8000010208DF8030003208DF8020098
:1011500069462348FFF7E9FD4FF40040ADF8000071
:1011600010208DF8030003208DF8020069461D4809
:10117000FFF7DBFD4FF400411A48FFF7A9FE4FF4DB
:101180004070ADF8000010208DF8030003208DF8AA
:10119000020069461448FFF7C8FD4FF4E050ADF86F
:1011A000000010208DF8030003208DF8020069462E
:1011B0000E48FFF7BAFD4FF400410C48FFF788FED8
:1011C0000720ADF8000010208DF8030003208DF8F3
:1011D000020069460448FFF7A8FD08BD0002300080
:1011E000000C0140001801400014014000100140B3
:1011F0002DE9FF4F85B007468A461C460220039022
:101200004FF0000B002002903846F91707EB917160
:10121000C1F387072046E21704EB9272911001EBAD
:10122000D172C2F347020492E21704EB1272121158
:101230002146E31704EB13731B11A4EB03130BB14B
:10124000012300E000231A44624392B200920798FF
:10125000203800F0FF0804983844401EC1B23846D8
:10126000FFF7D4FA0AEB0400401EC1B2504600F06A
:101270007FF9002679E0102C05D13F4800EB0810DB
:1012800010F8069010E0182C07D108EB48003B49F5
:1012900001EB001010F8069006E0202C04D138482D
:1012A00000EB881010F80690E11704EB117109119A
:1012B000A4EB011191B12046E11704EB1171091162
:1012C000491CC9B20191019996FBF1F001FB106034
:1012D00010B10120039001E00220039000253FE0BF
:1012E000A9000120884000EA090008B14FF00F0B67
:1012F000012000EB8501884000EA090008B14BF0AD
:10130000F00B022000EB85010120884000EA090073
:1013100008B10F200290032000EB850101208840D6
:1013200000EA090018B1029840F0F000029012980B
:1013300050B10299C943C8B200F096F86FEA0B01A8
:10134000C8B200F091F805E0029800F08DF8584618
:1013500000F08AF84FF0000B00200290681C85B264
:1013600003988542BCDB701C86B20098864282DB03
:1013700009B0BDE8F08F0000E4850008D48B0008B8
:10138000A49D00082DE9F84106460F4614461D4667
:10139000DDF81C800EE0CDF8008022782B4639461F
:1013A0003046FFF725FF641C284605EBD07106EB9D
:1013B0006101CEB220780028EDD1BDE8F8810000AF
:1013C000244A127842B90022234B1A600122234B8F
:1013D000C3F8B021224B1A601E4A1278012A08D1A4
:1013E0001D4B1A6000221D4BC3F8B02101221C4B7B
:1013F0001A60184A1278022A08D10122164B1A6084
:10140000164BC3F8B0210022154B1A60002115E0DD
:101410000022144B1A6000F0800222B10122114B0D
:1014200008331A6003E000220E4B08331A600122D1
:101430000C4B1A604206100E4A1CD1B20829E7DB99
:101440000122054B1A60054BC3F8B021044B1A600A
:10145000704700005A000020BC01234200002242D5
:10146000808122428C81214210B504462046FFF73C
:10147000A7FF10BD10B504461A48007848B90020EF
:101480001949086001201949C1F8AC0116492039F1
:10149000086014480078012809D113490860002029
:1014A0001249C1F8AC0101200F49203908600D48EC
:1014B0000078022809D101200B4908600B49C1F8C6
:1014C000AC0100200849203908602046FFF778FF6A
:1014D0000120054908600549C1F8AC0102492039DD
:1014E000086010BD5A000020A48122420000224260
:1014F00070B504460025104605E0265C4E556E1C6E
:10150000F5B2461CF0B29E188642F6DC70BD7047FC
:1015100029B1064A52690243044B5A6104E0034A66
:1015200052698243014B5A6170470000001002402B
:1015300029B1064AD2690243044BDA6104E0034A46
:10154000D2698243014BDA6170470000001002400B
:1015500029B1064A92690243044B9A6104E0034AA6
:1015600092698243014B9A6170470000001002406B
:1015700030B505460C467520FFF77CFF2846FFF77F
:1015800073FF2046FFF770FF5C20FFF773FF30BD4D
:1015900070B504460B460025002101260AE0881C90
:1015A000185C6054881C185C284485B2481C81B2C1
:1015B000701C86B29642F2DBE8B270BD10B56021B5
:1015C000194800F0D3F868B3174800F0D8F8174965
:1015D000174A1288885416480088401C144908800D
:1015E000084600880A2804DB0020088001201149F1
:1015F000087000BF01210C4800F0B8F80028F9D0AD
:101600000D480E4A1288815C074800F0BBF80B4871
:101610000088401C09490880084600880A2801DB28
:101620000020088010BD0000003001402E0B00207B
:101630002E00002032000020240B0020300000206B
:1016400000B587B001210820FFF782FF0121880340
:10165000FFF76EFF4FF46040ADF818001C208DF8C6
:101660001B0003208DF81A0006A91648FFF75DFB42
:101670000020ADF804004FF48270ADF806000020A1
:10168000ADF808000220ADF80A000120ADF80C000A
:101690004002ADF80E000820ADF810000020ADF8B3
:1016A00012000720ADF8140001A9074800F06CF8FB
:1016B0000121054800F04EF8FF2000F007F807B0C0
:1016C00000BD0000000C01400038004070B5044629
:1016D000002505E0681CC5B2C82D01DD002070BDE5
:1016E0000221074800F042F80028F3D021460448C0
:1016F00000F048F80025024800F041F8C0B2EEE7DB
:10170000003800402DE9F04105460E464FF0000834
:10171000002419E02F5D09E008F1010000F0FF0846
:10172000B8F1C80F02DD0020BDE8F08102210848B1
:1017300000F01CF80028EFD03946054800F022F8E8
:101740004FF00008601C84B2B442E3DB0020EBE7FA
:101750000038004021B1028842F04002028004E0DB
:1017600002884FF6BF731A4002807047024600207D
:1017700013890B400BB1012000E0002070470146A7
:10178000888970478181704710B50022028802F471
:1017900041520B884C8823438C882343CC882343B5
:1017A0000C8923434C8923438C892343CC892343CD
:1017B0001A430280838B4FF2FF74234083830B8A8A
:1017C000038210BD704710B500F002F810BD000094
:1017D0000CB50020019000903348006840F4803040
:1017E0003149086000BF3048006800F400300090C4
:1017F0000198401C0190009818B90198B0F5A06FAD
:10180000F1D12948006800F4003010B101200090A7
:1018100001E0002000900098012843D1234800688F
:1018200040F01000214908600846006820F00300DD
:1018300008600846006840F0020008601A484068E6
:10184000194948600846406848600846406840F4C6
:10185000806048600846406820F47C104860084674
:10186000406840F4E81048600846006840F0807026
:10187000086000BF0C48006800F000700028F9D034
:101880000948406820F0030007494860084640685E
:1018900040F00200486000BF0348406800F00C00C0
:1018A0000828F9D10CBD00000010024000200240C1
:1018B0007047000010B51348006840F0010011495E
:1018C000086008464068104908400E4948600846CC
:1018D00000680E4908400B4908600846006820F47B
:1018E000802008600846406820F4FE0048604FF4FD
:1018F0001F008860FFF767FF4FF000600449086031
:1019000010BD0000001002400000FFF8FFFFF6FECF
:1019100008ED00E010B50121880700F0D2F818B1F9
:101920000121880700F0BEF810BD7FB505460C46C2
:1019300001210846FFF7FCFDADF80850ADF8044062
:101940000020ADF80A00ADF8060001A94FF0804074
:1019500000F0D2F801221146900700F0C3F81C20D5
:101960008DF8000000208DF801008DF802000120A4
:101970008DF803006846FFF75BFB0121880700F044
:1019800094F87FBD10B50121224800F09AF8002894
:101990003FD021480088401C1F4908801F4800880C
:1019A000401C1E4908801E480088401C1C490880B5
:1019B0001C480088401C1B4908801B480088401CAC
:1019C0001949088019480088401C1849088018489F
:1019D0000078012804DB17480088401C154908805E
:1019E00015480078012804DB14480088401C13497E
:1019F00008800A4800880A2807DB00200749088079
:101A00000F480088401C0E4908800121014800F061
:101A100049F810BD00040040080000200A00002022
:101A20000C00002010000020180000201A000020E8
:101A300023000020120000202700002016000020B4
:101A40001C0000207FB505460C4601210220FFF74F
:101A50006FFDADF80850ADF804400020ADF80A0065
:101A6000ADF8060001A90E4800F046F80122114623
:101A70000B4800F037F81D208DF8000000208DF88D
:101A8000010003208DF8020001208DF80300684654
:101A9000FFF7CEFA0121024800F007F87FBD0000F1
:101AA00000040040CA430282704721B1028842F01C
:101AB0000102028004E002884FF6FE731A400280A1
:101AC000704730B50246002000230024158A05EA3D
:101AD0000103958905EA010413B10CB1012000E06E
:101AE000002030BD1AB183890B43838102E08389D2
:101AF0008B43838170470000002202881D4B98426F
:101B00000ED01D4B98420BD0B0F1804F08D01B4B2C
:101B1000984205D01A4B984202D01A4B984204D1F1
:101B20004FF68F731A404B881A43174B984207D0D1
:101B3000164B984204D04FF6FF431A40CB881A4305
:101B400002808B8883850B8803850A4B98420BD0D3
:101B5000094B984208D00E4B984205D00D4B984245
:101B600002D00D4B984201D10B7A03860123838268
:101B700070470000002C0140003401400004004088
:101B800000080040000C004000100040001400401D
:101B900000400140004401400048014010B540F2BF
:101BA0002441384800F0E8F900286AD03548008818
:101BB00000F04000402807D132480C30008820F067
:101BC000400030490C3108802E48008800F0200089
:101BD000202805D12B48008820F0200029490880C2
:101BE0002848008800F01000102837D125480088C8
:101BF00020F0100023490880084600882249088008
:101C00002048001D008808802048806D20F00100D9
:101C10001E4988651B481430008820F0400019498F
:101C2000143108804FF435701849C8650846806D36
:101C300040F00100886513481430008840F04000EF
:101C40001049143108801148406840F400300F49B1
:101C500048600846406840F40050486009480088E1
:101C600020F010000749088006480C30008820F05A
:101C7000400004490C31088005480078401C0449A4
:101C8000087010BD0038014028000020000002400C
:101C90002200002000B500201E4908601E48007880
:101CA000012835DB00201C4908701C480078A82852
:101CB0002ED11A48407801282AD1002017490870EF
:101CC0004FF43571154800F00DFB1549087040F2CE
:101CD000D321124801F0D9F9104991F8D312884262
:101CE00016D140F2D3220D490E48FFF751FC0C48A3
:101CF00000780D490978884202D025200B490870E8
:101D000007480078084908700020044981F8D30288
:101D100000BD0000A0012142220000205C00002044
:101D20003C000020DC0700203B0000203F0000209A
:101D30002F48008800F04000402807D12C480C3084
:101D4000008820F040002A490C310880284800888B
:101D500000F01000102836D12548008820F010002F
:101D60002349088008460088224908802048001D31
:101D7000008808802048C06E20F001001E49C86617
:101D80001B481430008820F04000194914310880A5
:101D9000B420194908670846C06E40F00100C866C3
:101DA00013481430008840F0400011491431088075
:101DB0001148406840F400100F49486008464068E8
:101DC00040F0007048600A48008820F01000084980
:101DD000088007480C30008820F0400004490C318E
:101DE000088006480078401C0449087070470000CD
:101DF000004400402A00002000000240240000208F
:101E000000B50020204908602048007801283ADB0E
:101E100000201E4908701E480078B72833D11C489E
:101E2000407801282FD1002019490870AD211848A9
:101E300000F058FA17490870AC21154801F025F94F
:101E4000134991F8AC1088421DD1AC2210491248B8
:101E5000FFF79EFB0F4800781049097888420AD0A6
:101E60003B200F4908700F48006808B9012000E0C6
:101E700000200C49086007480078084908700020D5
:101E8000034981F8AC0000BDA401224224000020D7
:101E9000760400203E0000209E0900203D00002026
:101EA00040000020A48121422F48008800F040001B
:101EB000402807D12C480C30008820F040002A49E7
:101EC0000C3108802848008800F01000102836D116
:101ED0002548008820F01000234908800846008823
:101EE000224908802048001D008808802048006B97
:101EF00020F001001E4908631B481430008820F0C0
:101F0000400019491431088078201949486308466F
:101F1000006B40F00100086313481430008840F063
:101F200040001149143108801148406840F02000F9
:101F30000F4948600846406840F4007048600A480D
:101F4000008820F010000849088007480C300088FD
:101F500020F0400004490C31088006480078401CFD
:101F60000449087070470000004800402C00002021
:101F7000000002402600002070B502460024002325
:101F80000025002040F66A16B14200D100BFC1F31F
:101F9000421501F01F03012606FA03F3012D02D1B9
:101FA0009689334006E0022D02D1168A334001E0C3
:101FB000968A33400C12012606FA04F4168834403F
:101FC00013B10CB1012000E0002070BD00BFFEE79E
:101FD0007FB5002003904FF44076002410E00E48B7
:101FE000005D00F00F050020012100910B460A461C
:101FF000CDE901102946204600F012F8601CC4B259
:10200000182CECDB31460548FFF77CFB022103A8C6
:10201000FFF778FB7FBD00005E0F00205E0C002004
:102020002DE9F04F0C4616469946DDE90AC8099F8E
:102030004FF0080B0BEB401BDFF8A8E00BEB0E0298
:10204000F3460BEB40134FF0100B0BEB401B0BEB6D
:102050000E054FF0180B0BEB401B0BEB0E0A00218B
:102060003CE0012C06D1614504DA4FF0F80B83F80F
:1020700000B003E04FF0E00B83F800B0022C06D173
:10208000B14204DA4FF0F80B82F800B003E04FF0F1
:10209000E00B82F800B0032C06D1494504DA4FF07A
:1020A000F80B85F800B003E04FF0E00B85F800B0C6
:1020B000042C06D1B94204DA4FF0F80B8AF800B0CC
:1020C00003E04FF0E00B8AF800B0521C6D1C0AF1DF
:1020D000010A5B1C01F1010B0BF0FF010829C0DBB9
:1020E000BDE8F08F5E0C002002E008C8121F08C196
:1020F000002AFAD170477047002001E001C1121F89
:10210000002AFBD17047000000205F4908705F483B
:10211000006828B90846007840F00100087005E022
:102120005948007820F00100574908705748001DB1
:10213000006830B95448007840F0020052490870F5
:1021400005E05148007820F002004F4908704F48E0
:102150000830006830B94C48007840F004004A4923
:10216000087005E04848007820F0040046490870EF
:1021700046480C30006830B94348007840F0080009
:102180004149087005E04048007820F008003E49C9
:1021900008703D48007801280DD100203C49088096
:1021A00040F204603B49088019203B4908701E201A
:1021B0003A49088066E03448007802280DD178203A
:1021C0003349088040F206603249088031203249A4
:1021D000087028203149088054E02B4800780328F3
:1021E0000DD1F0202A4908804FF4C16029490880A8
:1021F00049202949087032202849088042E02248B5
:10220000007804280ED14FF4B470214908804FF4AF
:10221000C2602049088061201F4908703C201F4986
:1022200008802FE01848007805280ED14FF4F07090
:102230001749088040F21260164908807920164933
:1022400008704620154908801CE00F4800780628D1
:102250000ED14FF416700E49088040F214600D49FB
:10226000088091200C49087050200C49088009E032
:102270000020074908804FF4A0600649088001202B
:102280000549087070470000410000202C8122425F
:102290004200002044000020460000204A000020A8
:1022A00030B51520FFF7E6F80020FFF7E3F83F20F0
:1022B000FFF7E0F87520FFF7DDF80020FFF7DAF808
:1022C0007F20FFF7D7F8002408E0002503E0002076
:1022D000FFF7CAF86D1C402DF9DB641C802CF4DB81
:1022E00030BD000070B502460C46FF25FF2309E013
:1022F00012F8010B80EA05010648405C80EA0305FC
:102300000548435C201EA4F10104F1D143EA0520F5
:1023100070BD0000E4830008E4840008002107E0A9
:1023200042F6E06100BF0A1EA1F1010399B2FAD1A1
:10233000021EA0F1010398B2F2D1704710B54248D5
:102340000088401C404908804048008814280EDB63
:1023500000BF00203D4908803D4800783B2806D159
:1023600000203B49087039490880FFF731FE3948A1
:10237000008805280DDB34480088374909888842E1
:1023800007DD002033490880344935480088FEF7CE
:10239000D1F83448007831490870324840784870A4
:1023A000304880788870FFF775FCFFF729FD00F052
:1023B00027F92D4802882D492D4800F0F9FD2A48BB
:1023C0000088143082B22B49294800F0F1FD2648DC
:1023D0000088283082B22849254800F0E9FD2248CB
:1023E00000883C3082B22549214800F0E1FD1E48BA
:1023F0000088503082B222491D4800F0D9FD1A48A9
:102400000088643082B21F49194800F0D1FD1823BA
:102410001D4802781D491E48FFF76AF81D480088CC
:10242000401C1C49088008460088B0F5FA7F0ADB8A
:102430001948006808B9012000E00020164908602A
:1024400000201449088010BD48000020180000201A
:10245000400000201A0000204A0000203300002025
:10246000440000205000002042000020560B0020B5
:10247000DC0700207E0B0020A60B0020CE0B0020E6
:10248000F60B00201E0C0020460000205E0F0020EE
:102490009E09002058000020A481214210B5524816
:1024A000007890B900205149086001205049C1F8D6
:1024B000B001504908604F492031086000204E4962
:1024C000086001204D49C1F888014748007801287B
:1024D00010D14649086000204549C1F8B0010120EB
:1024E0004449086043492031086043490860434932
:1024F000C1F888013C480078022811D101203B49ED
:1025000008603B49C1F8B00100203A490860012049
:10251000384920310860384908603849C1F88801D5
:102520006420FFF7FBFEAE20FEF7A4FFFD20FEF7C0
:10253000A1FF1220FEF798FFA020FEF79BFF32209C
:10254000FEF792FF1020FEF78FFFA220FEF792FF0A
:102550001020FEF789FFA120FEF78CFF0020FEF778
:1025600083FFA620FEF786FFAD20FEF783FF8020C5
:10257000FEF77AFFB120FEF77DFF7420FEF774FFAF
:10258000B320FEF777FFB120FEF76EFFB620FEF70F
:1025900071FF0820FEF768FFB920FEF76BFFBA2035
:1025A000FEF768FF0220FEF75FFFBB20FEF762FF29
:1025B0000720FEF759FFBE20FEF75CFF0720FEF75D
:1025C00053FFC120FEF756FF4F20FEF74DFFCA20F4
:1025D000FEF750FF7F20FEF747FFFFF761FEAF20B9
:1025E000FEF748FF10BD00005A000020BC01234246
:1025F0000000224280812242A80122420080224221
:10260000FB48006890B1FB4890F90000022806DA08
:10261000F8480078401C40B2F649087018E0F648C7
:10262000007820F00100F449087011E0F14890F9B9
:102630000000022806DDEF480078401E40B2ED4958
:10264000087005E0EC48007840F00100EA490870A5
:10265000E7480838006890B1E64890F90100022880
:1026600006DAE4484078401C40B2E249487018E07D
:10267000E148007820F00200DF49087011E0DD48F1
:1026800090F90100022806DDDA484078401E40B289
:10269000D849487005E0D848007840F00200D64993
:1026A0000870D3481038006890B1D24890F9020001
:1026B000022806DACF488078401C40B2CD498870A5
:1026C00018E0CD48007820F00400CB49087011E0F4
:1026D000C84890F90200022806DDC6488078401EEE
:1026E00040B2C449887005E0C348007840F0040057
:1026F000C1490870BE481C38006890B1BD4890F9C7
:102700000300022806DABB48C078401C40B2B94931
:10271000C87018E0B848007820F00800B649087082
:1027200011E0B44890F90300022806DDB148C078F2
:10273000401E40B2AF49C87005E0AF48007840F095
:102740000800AD490870AD48006890B1A94890F9FB
:102750000400022806DAA7480079401C40B2A549C7
:10276000087118E0A448007820F01000A249087011
:1027700011E0A04890F90400022806DD9D48007988
:10278000401E40B29B49087105E09B48007840F02C
:102790001000994908709A48006890B1954890F9DE
:1027A0000500022806DA93484079401C40B291495E
:1027B000487118E09048007820F020008E49087099
:1027C00011E08C4890F90500022806DD894840791F
:1027D000401E40B28749487105E08748007840F0C4
:1027E0002000854908708648001F006890B1814824
:1027F00090F90600022806DA7E488079401C40B233
:102800007C49887118E07C48007820F040007A49C3
:10281000087011E0774890F90600022806DD754837
:102820008079401E40B27349887105E07248007893
:1028300040F040007049087071480C38006890B151
:102840006C4890F90700022806DA6A48C079401CF3
:1028500040B26849C87118E06748007820F08000ED
:102860006549087011E0634890F90700022806DD09
:102870006048C079401E40B25E49C87105E05E48BC
:10288000007840F080005C4908705C481C300068AB
:1028900090B1584890F90800022806DA5548007AA5
:1028A000401C40B25349087218E05348407820F069
:1028B00001005149487011E04E4890F90800022883
:1028C00006DD4C48007A401E40B24A49087205E0D5
:1028D0004948407840F0010047494870494800683D
:1028E00090B1444890F90900022806DA4148407A3C
:1028F000401C40B23F49487218E03F48407820F001
:1029000002003D49487011E03A4890F90900022858
:1029100006DD3848407A401E40B23649487205E02C
:102920003548407840F00200334948703548001F70
:10293000006890B12F4890F90A00022806DA2D4865
:10294000807A401C40B22B49887218E02A484078AF
:1029500020F004002849487011E0264890F90A0048
:10296000022806DD2348807A401E40B22149887241
:1029700005E02148407840F004001F494870214894
:102980000C38006890B11B4890F90B00022806DA59
:102990001848C07A401C40B21649C87218E0164860
:1029A000407820F008001449487011E0114890F96F
:1029B0000B00022806DD0F48C07A401E40B20D49C8
:1029C000C87205E00C48407840F008000A49487099
:1029D0000748001F0068F0B1064890F90C00022873
:1029E00012DA0448007B401C40B20249087324E01C
:1029F00038012342460C0020500000200081214273
:102A0000100122421C812242EB48407820F0100045
:102A1000E949487011E0E94890F90C00022806DD08
:102A2000E648007B401E40B2E449087305E0E248F6
:102A3000407840F01000E0494870E148006890B1EB
:102A4000DE4890F90D00022806DADC48407B401C85
:102A500040B2DA49487318E0D748407820F02000A7
:102A6000D549487011E0D54890F90D00022806DDDF
:102A7000D248407B401E40B2D049487305E0CE4862
:102A8000407840F02000CC494870CD4808380068B4
:102A900090B1CA4890F90E00022806DAC748807B38
:102AA000401C40B2C549887318E0C348407820F004
:102AB0004000C149487011E0C04890F90E0002285A
:102AC00006DDBE48807B401E40B2BC49887305E0ED
:102AD000B948407840F04000B7494870B8480C38D1
:102AE000006890B1B54890F90F00022806DAB348A3
:102AF000C07B401C40B2B149C87318E0AE48407872
:102B000020F08000AC49487011E0AC4890F90F000B
:102B1000022806DDA948C07B401E40B2A749C87301
:102B200005E0A548407840F08000A3494870A548DA
:102B3000006890B1A14890F91000022806DA9F4879
:102B4000007C401C40B29D49087418E09A48807887
:102B500020F001009849887011E0984890F9100021
:102B6000022806DD9548007C401E40B29349087457
:102B700005E09148807840F001008F4988709248C4
:102B8000006890B18D4890F91100022806DA8B4850
:102B9000407C401C40B28949487418E086488078DF
:102BA00020F002008449887011E0844890F91100F7
:102BB000022806DD8148407C401E40B27F494874AF
:102BC00005E07D48807840F002007B4988707F48AE
:102BD000006890B1794890F91200022806DA774827
:102BE000807C401C40B27549887418E07248807837
:102BF00020F004007049887011E0704890F91200CC
:102C0000022806DD6D48807C401E40B26B49887406
:102C100005E06948807840F00400674988706A4898
:102C20000C38006890B1654890F91300022806DA64
:102C30006248C07C401C40B26049C87418E05E48DD
:102C4000807820F008005C49887011E05B4890F9BA
:102C50001300022806DD5948C07C401E40B2574987
:102C6000C87405E05448807840F0080052498870E4
:102C700054481C30006890B1504890F91400022864
:102C800006DA4E48007D401C40B24C49087518E0F9
:102C90004948807820F010004749887011E0474883
:102CA00090F91400022806DD4448007D401E40B221
:102CB0004249087505E04048807840F010003E49E0
:102CC000887040481430006890B13C4890F9150075
:102CD000022806DA3948407D401C40B23749487521
:102CE00018E03548807820F020003349887011E0E2
:102CF000324890F91500022806DD3048407D401E1C
:102D000040B22E49487505E02B48807840F02000FD
:102D1000294988702E48006890B1284890F916001B
:102D2000022806DA2548807D401C40B22349887578
:102D300018E02148807820F040001F49887011E099
:102D40001E4890F91600022806DD1C48807D401EB2
:102D500040B21A49887505E01748807840F0400075
:102D6000154988701A480838006890B1134890F9DE
:102D70001700022806DA1148C07D401C40B20F49F6
:102D8000C87518E00C48807820F080000A498870E7
:102D900011E00A4890F91700022806DD0748C07DB7
:102DA000401E40B20549C87505E00348807840F0F0
:102DB000800001498870704750000020460C0020B8
:102DC0002C012342048121421401224204012142A8
:102DD0001481224208B5FEF724F94FF4E13148206E
:102DE00000F062F94FF4E131242000F0DFF95C4992
:102DF000242000F069FAFEF7C1F841F61F411420C3
:102E0000FEF720FE41F61F416420FEF78EFDFEF71F
:102E100017FC4FF49673534A53495448FDF722FE6A
:102E200040F2EE23524A504950481430FDF7C8FD95
:102E30004B23504A50494D483C30FDF7A3FEAD238B
:102E40004E4A4D4949482830FDF74EFE78234C4AFA
:102E50004C4946482838FDF725FF78234A4A494916
:102E600042481438FDF7D0FE002006230222032139
:102E700000900120FDF7A4FAFEF754F90020434921
:102E80000870FFF70BFB002080235A0001460090DA
:102E9000FEF710F901203D490870FFF7FFFA002006
:102EA00080235A0001460090FEF704F902203749BA
:102EB0000870FFF7F3FA002080235A0001460090C3
:102EC000FEF7F8F8FEF708F802213148FEF71AFC81
:102ED000FFF71AF96420FFF721FA3FE0FFF72EFA17
:102EE0002C480078252839D100202A490870274924
:102EF00008701023284A0A2100900C20FEF742FA9D
:102F000000201023254A202100900C20FEF73AFAD9
:102F100001201E49087000201023214A0A21009038
:102F20000C20FEF72FFA002010231E4A20210090CB
:102F30000C20FEF727FA0220144908700020102305
:102F4000194A0A2100900C20FEF71CFA00201023D9
:102F5000164A202100900C20FEF714FABEE700006C
:102F600020A107004A030020043801404400024029
:102F70005C0000202A050020044400407604002064
:102F80003806002004480040C00500205A000020F8
:102F9000000000203F000020560B00207E0B002088
:102FA000A60B0020CE0B0020F60B00201E0C0020EC
:102FB000F0B50346144600202246254660E0052869
:102FC00009DA1646571CBAB213F806C00646471C63
:102FD000B8B201F806C0052808DB082806DA4FF069
:102FE000200C0646471CB8B201F806C0082801DBD1
:102FF000012600E000260D2801DA012700E0002765
:103000003E404EB11646571CBAB213F806C00646EB
:10301000471CB8B201F806C00D2808DB102806DAF4
:103020004FF0200C0646471CB8B201F806C0102825
:103030000BDB152809DA1646571CBAB213F806C07E
:103040000646471CB8B201F806C0152808DB182848
:1030500006DA4FF0200C0646471CB8B201F806C04D
:1030600018280BDB1D2809DA1646571CBAB213F8CC
:1030700006C00646471CB8B201F806C06E1CB5B2C1
:1030800004F12006B5429ADBF0BD10B502460B46AE
:103090000024022104E0505C204484B2481C81B228
:1030A0009942F8DBE0B210BD2DE9F84F05460E4617
:1030B0003001FDF721F98146384905FB01F0FDF7A4
:1030C0001BF982464946FDF7D9F807463846FDF711
:1030D00018F984B22046FDF70FF983463946FDF70B
:1030E00098F882464FF08341FDF796F88146FDF748
:1030F00008F980464FF6FF7000EA041404EB08005C
:1031000084B22748806940F0040025498861084658
:10311000806940F4804088612248006820F47F6024
:10312000204908600846006840F40B6008601C48AD
:10313000C06840F480401A49C8600846C06820F45E
:103140008040C86018480480001D008842F20C01CD
:1031500008431549091D08800846008840F480701E
:1031600008800846008840F0100008800E480838A3
:10317000008820F010000C490839088025208DF8BF
:10318000000003208DF801008DF8020001208DF869
:1031900003006846FDF74CFFBDE8F88F40420F0082
:1031A0000010024004080140083801402DE9F84FA2
:1031B00005460E463001FDF79FF881463D4905FB67
:1031C00001F0FDF799F882464946FDF757F80746A2
:1031D0003846FDF796F884B22046FDF78DF8834611
:1031E0003946FDF716F882464FF08341FDF714F893
:1031F0008146FDF786F880464FF6FF7000EA04141A
:1032000004EB080084B22C48806940F004002A498D
:1032100088610846C06940F40030C86127480068EA
:1032200020F47F40254908600846006840F40B40C0
:1032300008602148006940F400301F4908610846D1
:10324000006920F4003008611D480480001D0088DA
:1032500042F20C0108431A49091D088008460088FB
:1032600040F4807008800846008840F01000088014
:10327000134808380088134908801148001F008847
:1032800008800F480838008820F010000C490839E1
:10329000088026208DF8000003208DF801008DF8AD
:1032A000020001208DF803006846FDF7C1FEBDE86D
:1032B000F88F000040420F0000100240000801405B
:1032C000084400402A0000202DE9F84F05460E462C
:1032D0003001FDF711F881463D4905FB01F0FDF78E
:1032E0000BF882464946FCF7C9FF07463846FDF70A
:1032F00008F884B22046FCF7FFFF83463946FCF706
:1033000088FF82464FF08341FCF786FF8146FCF739
:10331000F8FF80464FF6FF7000EA041404EB080043
:1033200084B22C48806940F008002A498861084628
:10333000C06940F48020C8612748006820F47F40BD
:10334000254908600846006840F40B4008602148A1
:10335000006940F480201F4908610846006920F494
:10336000802008611D480480001D008842F20C0185
:1033700008431A49091D08800846008840F48070F7
:1033800008800846008840F010000880134808387C
:103390000088134908801148001F008808800F48E2
:1033A0000838008820F010000C49083908802720D0
:1033B0008DF8000003208DF801008DF80200012037
:1033C0008DF803006846FDF733FEBDE8F88F000076
:1033D00040420F0000100240040C01400848004029
:1033E0002C0000203333333333333333333333332D
:1033F000333333333333333333333333333333339D
:103400003333333333333333333333777777777738
:10341000777777777777777777777777777777773C
:10342000777777777777777777777777777777772C
:1034300077000000000000337777330000000000C1
:103440000000333300000000000000000000000016
:10345000000000000000000000000000000000006C
:1034600000000000333333333333333333333333F8
:10347000333333333333333333333333333333331C
:1034800033333333333333333333337777777777B8
:1034900077777777777777777777777777777777BC
:1034A00077777777777777777777777777777777AC
:1034B0007700000000000033777733000000000041
:1034C0000000333300000000000000000000000096
:1034D00000000000000000000000000000000000EC
:1034E0000000000033333333333333333333333378
:1034F000333333333333333333333333333333339C
:103500003333333333333333333333777777777737
:10351000777777777777777777777777777777773B
:10352000777777777777777777777777777777772B
:1035300077000000000000007777770000000000AF
:10354000000077770000000000000000000000008D
:10355000000000000000000000000000000000006B
:1035600000000000333333333333333333333333F7
:10357000333333333333333333333333333333331B
:1035800033333333333333333333337777777777B7
:1035900077777777777777777777777777777777BB
:1035A00077777777777777777777777777777777AB
:1035B000770000000000000077777700000000002F
:1035C000000077770000000000000000000000000D
:1035D00000000000000000000000000000000000EB
:1035E0000000000033333333333333333333333377
:1035F000333333333333333333333333333333339B
:1036000033333333333333333333777777777777F2
:10361000777777777777777777777777777777773A
:10362000777777777777777777777777777777772A
:1036300077000000000000003377773300000000BF
:103640000077773300000000000000000000000059
:10365000000000000000000000000000000000006A
:1036600000000000333333333333333333333333F6
:10367000333333333333333333333333333333331A
:103680003333333333333333333377777777777772
:1036900077777777777777777777777777777777BA
:1036A00077777777777777777777777777777777AA
:1036B000770000000000000033777733000000003F
:1036C00000777733000000000000000000000000D9
:1036D00000000000000000000000000000000000EA
:1036E0000000000033333333333333333333333376
:1036F000333333333333333333333333333333339A
:1037000033333333333333333377777777777777AD
:103710007777777777777777777777777777777739
:103720007777777777777777777777777777777729
:1037300077000000000000000033AA7700000000BE
:103740000077773300000000000000000000000058
:103750000000000000000000000000000000000069
:1037600000000000333333333333333333333333F5
:103770003333333333333333333333333333333319
:10378000333333333333333333777777777777772D
:1037900077777777777777777777777777777777B9
:1037A00077777777777777777777777777777777A9
:1037B00077000000000000000033AA77000000003E
:1037C00000777733000000000000000000000000D8
:1037D00000000000000000000000000000000000E9
:1037E0000000000033333333333333333333333375
:1037F0003333333333333333333333333333333399
:1038000033333333333333333377777777777777AC
:103810007777777777773333337777777777777704
:103820007777777777777777777777777777777728
:103830007700000000000000000000000000000011
:103840003377773300000000000000000000000024
:103850000000000000000000000000000000000068
:1038600000000000333333333333333333333333F4
:103870003333333333333333333333333333333318
:10388000333333333333333333777777777777772C
:103890007777777777773333337777777777777784
:1038A00077777777777777777777777777777777A8
:1038B0007700000000000000000000000000000091
:1038C00033777733000000000000000000000000A4
:1038D00000000000000000000000000000000000E8
:1038E0000000000033333333333333333333333374
:1038F0003333333333333333333333333333333398
:1039000033333333333333333377777777777777AB
:103910007777777733000000000033777777777712
:103920007777777777777777777777777777777727
:103930007700000000000000000000000000000010
:1039400033777777000000000000000000000000DF
:103950000000000000000000000000000000000067
:1039600000000000333333333333333333333333F3
:103970003333333333333333333333333333333317
:10398000333333333333333333777777777777772B
:103990007777777733000000000033777777777792
:1039A00077777777777777777777777777777777A7
:1039B0007700000000000000000000000000000090
:1039C000337777770000000000000000000000005F
:1039D00000000000000000000000000000000000E7
:1039E0000000000033333333333333333333333373
:1039F0003333333333333333333333333333333397
:103A00003333333333333333777777777777777766
:103A10007777770000000000000000337777777732
:103A20007777777777777777777777777777777726
:103A300077330000000000000000000000000000DC
:103A4000007777777700000000000000000000009A
:103A50000000000000000000000000000000000066
:103A600000000000333333333333333333333333F2
:103A70003333333333333333333333333333333316
:103A800033333333333333337777777777777777E6
:103A900077777700000000000000003377777777B2
:103AA00077777777777777777777777777777777A6
:103AB000773300000000000000000000000000005C
:103AC000007777777700000000000000000000001A
:103AD00000000000000000000000000000000000E6
:103AE0000000000033333333333333333333333372
:103AF0003333333333333333333333333333333396
:103B00003333333333333333777777777777777765
:103B100077770000000000000000000077777777DB
:103B20007777777777777777777777777777777725
:103B30007777000000000000000000000000000097
:103B40000000777777770000000000000000000099
:103B50000000000000000000000000000000000065
:103B600000000000333333333333333333333333F1
:103B70003333333333333333333333333333333315
:103B800033333333333333337777777777777777E5
:103B9000777700000000000000000000777777775B
:103BA00077777777777777777777777777777777A5
:103BB0007777000000000000000000000000000017
:103BC0000000777777770000000000000000000019
:103BD00000000000000000000000000000000000E5
:103BE0000000000033333333333333333333333371
:103BF00033333333333333333377777777777777B9
:103C00007777777733333333777777777777777754
:103C1000777700000000FFFF7700000033777777A9
:103C20007777777777777777777777777777777724
:103C300077AA000000000000000000000000000063
:103C40000000000077770000000000000000000086
:103C50000000000000000000000000000000000064
:103C600000000000333333333333333333333333F0
:103C70003333333333333333337777777777777738
:103C800077777777333333337777777777777777D4
:103C9000777700000000FFFF770000003377777729
:103CA00077777777777777777777777777777777A4
:103CB00077AA0000000000000000000000000000E3
:103CC0000000000077770000000000000000000006
:103CD00000000000000000000000000000000000E4
:103CE0000000000033333333333333333333333370
:103CF00033333333337777777777777777777777A8
:103D00007777777777777777777777777777777743
:103D1000777700000033FFFFFF33000000777777ED
:103D20007777777777777777777777777777777723
:103D30007777000000000000000000000000000095
:103D40000000000000000000000000000000000073
:103D50000000000000000000000000000000000063
:103D600000000000333333333333333333333333EF
:103D70003333333333777777777777777777777727
:103D800077777777777777777777777777777777C3
:103D9000777700000033FFFFFF330000007777776D
:103DA00077777777777777777777777777777777A3
:103DB0007777000000000000000000000000000015
:103DC00000000000000000000000000000000000F3
:103DD00000000000000000000000000000000000E3
:103DE000000000003333333333333333333333336F
:103DF0003377777777777777777777777777777797
:103E00007777777777777777777777777777777742
:103E1000777700000033FFFFFF000000007777771F
:103E20007777777777777777777777777777777722
:103E30007777330000000000000033AA770000000D
:103E40000000000000000000000000000000000072
:103E50000000000000000000000000000000000062
:103E600000000000333333333333333333333333EE
:103E70003377777777777777777777777777777716
:103E800077777777777777777777777777777777C2
:103E9000777700000033FFFFFF000000007777779F
:103EA00077777777777777777777777777777777A2
:103EB0007777330000000000000033AA770000008D
:103EC00000000000000000000000000000000000F2
:103ED00000000000000000000000000000000000E2
:103EE000000000003333333333333333333333772A
:103EF0007777777777777777777777777777777752
:103F00007777777777777777777777777777777741
:103F100077770000000000330000000033777777E8
:103F20007777777777777777777777777777777721
:103F300077777700000000000000777733000000FB
:103F40000000000000000000000000000000000071
:103F50000000000000000000000000000000000061
:103F600000000000333333333333333333333377A9
:103F700077777777777777777777777777777777D1
:103F800077777777777777777777777777777777C1
:103F90007777000000000033000000003377777768
:103FA00077777777777777777777777777777777A1
:103FB000777777000000000000007777330000007B
:103FC00000000000000000000000000000000000F1
:103FD00000000000000000000000000000000000E1
:103FE00000000000333333333333333333777777A1
:103FF0007777777777777777777777777777777751
:104000007777777777777777777777777777777740
:1040100077773300000000000000000077777777A3
:104020007777777777777777777777777777777720
:1040300077777733000000000033777700000000C7
:104040000000000000000000000000000000000070
:104050000000000000000000000000000000000060
:104060000000000033333333333333333377777720
:1040700077777777777777777777777777777777D0
:1040800077777777777777777777777777777777C0
:104090007777330000000000000000007777777723
:1040A00077777777777777777777777777777777A0
:1040B0007777773300000000003377770000000047
:1040C00000000000000000000000000000000000F0
:1040D00000000000000000000000000000000000E0
:1040E000000000003333333333333333777777775C
:1040F0007777777777777777777777777777777750
:10410000777777777777777777777777777777773F
:10411000777777000000000000000033777777772B
:10412000777777777777777777777777777777771F
:10413000777777DD000000000077777700000000D8
:10414000000000000000000000000000000000006F
:10415000000000000000000000000000000000005F
:1041600000000000333333333333333377777777DB
:1041700077777777777777777777777777777777CF
:1041800077777777777777777777777777777777BF
:1041900077777700000000000000003377777777AB
:1041A000777777777777777777777777777777779F
:1041B000777777DD00000000007777770000000058
:1041C00000000000000000000000000000000000EF
:1041D00000000000000000000000000000000000DF
:1041E0000000000033333333333333777777777717
:1041F000777777777777777777777777777777774F
:10420000777777777777777777777777777777773E
:104210007777777733000000000033777777777709
:10422000777777777777777777777777777777771E
:1042300077777777000000000077777777000000C6
:10424000000000000000000000000000000000006E
:10425000000000000000000000000000000000005E
:104260000000000033333333333333777777777796
:1042700077777777777777777777777777777777CE
:1042800077777777777777777777777777777777BE
:104290007777777733000000000033777777777789
:1042A000777777777777777777777777777777779E
:1042B0007777777700000000007777777700000046
:1042C00000000000000000000000000000000000EE
:1042D00000000000000000000000000000000000DE
:1042E00000000000333333333333AA77777777779F
:1042F000777777777777777777777777777777774E
:104300007777777777773333337777777777777709
:10431000777777777777777777777777777777772D
:10432000777777777777777777777777777777771D
:1043300077777777000000000000777777770000C5
:10434000000000000000000000000000000000006D
:10435000000000000000000000000000000000005D
:1043600000000000333333333333AA77777777771E
:1043700077777777777777777777777777777777CD
:104380007777777777773333337777777777777789
:1043900077777777777777777777777777777777AD
:1043A000777777777777777777777777777777779D
:1043B0007777777700000000000077777777000045
:1043C00000000000000000000000000000000000ED
:1043D00000000000000000000000000000000000DD
:1043E00000000000333333333333777777777777D1
:1043F000777777777777777777777777777777774D
:104400007777777777333333777777777777777708
:10441000777777777777777777777777777777772C
:10442000777777777777777777777777777777771C
:104430007777777700000000000000777777330008
:10444000000000000000000000000000000000006C
:10445000000000000000000000000000000000005C
:104460000000000033333333333377777777777750
:1044700077777777777777777777777777777777CC
:104480007777777777333333777777777777777788
:1044900077777777777777777777777777777777AC
:1044A000777777777777777777777777777777779C
:1044B0007777777700000000000000777777330088
:1044C00000000000000000000000000000000000EC
:1044D00000000000000000000000000000000000DC
:1044E0000000000033333333333333777777777714
:1044F000777777777777777777777777777777774C
:10450000777777773333333377777777777777774B
:10451000777777777777777777777777777777772B
:10452000FFFF77777777777777777777777777770B
:10453000777777770000000000000000777777003A
:1045400000000000000000773300000000000000C1
:10455000000000000000000000000000000000005B
:104560000000000033333333333333777777777793
:1045700077777777777777777777777777777777CB
:1045800077777777333333337777777777777777CB
:1045900077777777777777777777777777777777AB
:1045A000FFFF77777777777777777777777777778B
:1045B00077777777000000000000000077777700BA
:1045C0000000000000000077330000000000000041
:1045D00000000000000000000000000000000000DB
:1045E0000000000033333333333333777777777713
:1045F000777777777777777777777777777777774B
:104600007733333333333333777777777777777716
:10461000777777777777777777777777777777772A
:10462000FFFFFF7777777777777777777777777782
:104630007777777733000000000000000033000038
:10464000000000000000337733000000000000008D
:10465000000000000000000000000000000000005A
:104660000000000033333333333333777777777792
:1046700077777777777777777777777777777777CA
:104680007733333333333333777777777777777796
:1046900077777777777777777777777777777777AA
:1046A000FFFFFF7777777777777777777777777702
:1046B00077777777330000000000000000330000B8
:1046C000000000000000337733000000000000000D
:1046D00000000000000000000000000000000000DA
:1046E000000000003333333333333333337777779A
:1046F00077777777777777777777777777773333D2
:104700003333333333333333777777777777777759
:104710007777777777777777777777777777777729
:10472000DDFFFF77777777777777777777777777A3
:10473000777777773300000000000000000000006A
:104740000000000000007777330000000000000048
:104750000000000000000000000000000000000059
:104760000000000033333333333333333377777719
:104770007777777777777777777777777777333351
:1047800033333333333333337777777777777777D9
:1047900077777777777777777777777777777777A9
:1047A000DDFFFF7777777777777777777777777723
:1047B00077777777330000000000000000000000EA
:1047C00000000000000077773300000000000000C8
:1047D00000000000000000000000000000000000D9
:1047E0000000000033333333333333333333333365
:1047F0003333333377777777773333333333333335
:104800003333333333333333777777777777777758
:104810007777777777777777777777777777777728
:1048200077FFFF7777777777777777777777777708
:104830007777777733000000000000000000000069
:1048400000000000003377777700000000000000D0
:104850000000000000000000000000000000000058
:1048600000000000333333333333333333333333E4
:1048700033333333777777777733333333333333B4
:1048800033333333333333337777777777777777D8
:1048900077777777777777777777777777777777A8
:1048A00077FFFF7777777777777777777777777788
:1048B00077777777330000000000000000000000E9
:1048C0000000000000337777770000000000000050
:1048D00000000000000000000000000000000000D8
:1048E0000000000033333333333333333333333364
:1048F0003333333333333333333333333333333388
:104900003333333333333333777777777777777757
:10491000777777777777777777777777777777AAF4
:1049200077FFFFDD777777777777777777777777A1
:104930007777777733000000000000000000000068
:104940000000000000007777770000000000000002
:104950000000000000000000000000000000000057
:1049600000000000333333333333333333333333E3
:104970003333333333333333333333333333333307
:1049800033333333333333337777777777777777D7
:10499000777777777777777777777777777777AA74
:1049A00077FFFFDD77777777777777777777777721
:1049B00077777777330000000000000000000000E8
:1049C0000000000000007777770000000000000082
:1049D00000000000000000000000000000000000D7
:1049E0000000000033333333333333333333333363
:1049F0003333333333333333333333333333333387
:104A00003333333333333333777777777777777756
:104A1000777777777777777777777777777777DDC0
:104A20007777FF777777777777777777777777778E
:104A30007777777777000000000000000000000023
:104A400000000000000077777733000000000000CE
:104A50000000000000000000000000000000000056
:104A600000000000333333333333333333333333E2
:104A70003333333333333333333333333333333306
:104A800033333333333333337777777777777777D6
:104A9000777777777777777777777777777777DD40
:104AA0007777FF777777777777777777777777770E
:104AB00077777777770000000000000000000000A3
:104AC000000000000000777777330000000000004E
:104AD00000000000000000000000000000000000D6
:104AE0000000000033333333333333333333333362
:104AF0003333333333333333333333333333333386
:104B00003333333333333333777777777777777755
:104B10007777777777777777777777777777777725
:104B20007777777777777777777777777777777715
:104B300077777777773300000000000000000000EF
:104B400000000000000033777777000000000000CD
:104B50000000000000000000000000000000000055
:104B600000000000333333333333333333333333E1
:104B70003333333333333333333333333333333305
:104B800033333333333333337777777777777777D5
:104B900077777777777777777777777777777777A5
:104BA0007777777777777777777777777777777795
:104BB000777777777733000000000000000000006F
:104BC000000000000000337777770000000000004D
:104BD00000000000000000000000000000000000D5
:104BE0000000000033333333333333333333333361
:104BF00033333333333333333333333333777733FD
:104C00007733333333333333777777777777777710
:104C10007777777777777777777777777777777724
:104C20007777777777777777777777777777777714
:104C300077777777777700000000000000000000AA
:104C4000000000000000003377AA77000000000099
:104C50000000000000000000000000000000000054
:104C600000000000333333333333333333333333E0
:104C7000333333333333333333333333337777337C
:104C80007733333333333333777777777777777790
:104C900077777777777777777777777777777777A4
:104CA0007777777777777777777777777777777794
:104CB000777777777777000000000000000000002A
:104CC000000000000000003377AA77000000000019
:104CD00000000000000000000000000000000000D4
:104CE0000000000033333333333333333333333360
:104CF0003333333333333333333333337777777774
:104D00007733333333333333337777777777777753
:104D10007777777777777777777777777777777723
:104D20007777777777777777777777777777777713
:104D300077777777777700000000000000000000A9
:104D40000000000000000000000000000000000063
:104D50000000000000000000000000000000000053
:104D600000000000333333333333333333333333DF
:104D700033333333333333333333333377777777F3
:104D800077333333333333333377777777777777D3
:104D900077777777777777777777777777777777A3
:104DA0007777777777777777777777777777777793
:104DB0007777777777770000000000000000000029
:104DC00000000000000000000000000000000000E3
:104DD00000000000000000000000000000000000D3
:104DE000000000003333333333333333333333335F
:104DF0003333333333333333333333337777777773
:104E0000777733333333333333777777777777770E
:104E10007777777777777777777777777777777722
:104E20007777777777777777777777777777777712
:104E300077777777777700000000000000000000A8
:104E40000000000000000000000000000000000062
:104E50000000000000000000000000000000000052
:104E600000000000333333333333333333333333DE
:104E700033333333333333333333333377777777F2
:104E8000777733333333333333777777777777778E
:104E900077777777777777777777777777777777A2
:104EA0007777777777777777777777777777777792
:104EB0007777777777770000000000000000000028
:104EC00000000000000000000000000000000000E2
:104ED00000000000000000000000000000000000D2
:104EE000000000003333333333333333333333335E
:104EF0003333333333333333333333337777DD770C
:104F000077773333333333337777777777777777C9
:104F10007777777777777777777777777777777721
:104F20007777777777777777777777777777777711
:104F30007777777777773300000000000000000074
:104F40000000000000000000000000000000000061
:104F50000000000000000000000000000000000051
:104F600000000000333333333333333333333333DD
:104F70003333333333333333333333337777DD778B
:104F80007777333333333333777777777777777749
:104F900077777777777777777777777777777777A1
:104FA0007777777777777777777777777777777791
:104FB00077777777777733000000000000000000F4
:104FC00000000000000000000000000000000000E1
:104FD00000000000000000000000000000000000D1
:104FE000000000003333333333333333333333335D
:104FF000333333333333333333333333777777AA3E
:105000007777333333333377777777777777777784
:105010007777777777777777777777777777777720
:105020007777777777777777777777777777777710
:105030007777777777773300000000000000000073
:1050400033330000000000000000000000000000FA
:105050000000000000000000000000000000000050
:1050600000000000333333333333333333333333DC
:10507000333333333333333333333333777777AABD
:105080007777333333333377777777777777777704
:1050900077777777777777777777777777777777A0
:1050A0007777777777777777777777777777777790
:1050B00077777777777733000000000000000000F3
:1050C000333300000000000000000000000000007A
:1050D00000000000000000000000000000000000D0
:1050E000000000003333333333333333333333335C
:1050F0003333333333333333333333337777777770
:1051000033777733333377773333777777777777C7
:10511000777777777777777777777777777777771F
:10512000777777777777777777777777777777770F
:1051300077777777777777000000000000000033FB
:10514000AA33000000000000000000000000000082
:10515000000000000000000000000000000000004F
:1051600000000000333333333333333333333333DB
:1051700033333333333333333333333377777777EF
:105180003377773333337777333377777777777747
:10519000777777777777777777777777777777779F
:1051A000777777777777777777777777777777778F
:1051B000777777777777770000000000000000337B
:1051C000AA33000000000000000000000000000002
:1051D00000000000000000000000000000000000CF
:1051E000000000003333333333333333333333335B
:1051F000333333333333333333333333333333773B
:10520000333377DD77773333333377777777777760
:10521000777777777777777777777733000000003E
:1052200000007777777777777777777777777777FC
:105230007777777777777733000000000000007783
:105240007777000000000000000000000000000070
:10525000000000000000000000000000000000004E
:1052600000000000333333333333333333333333DA
:1052700033333333333333333333333333333377BA
:10528000333377DD777733333333777777777777E0
:1052900077777777777777777777773300000000BE
:1052A000000077777777777777777777777777777C
:1052B0007777777777777733000000000000007703
:1052C00077770000000000000000000000000000F0
:1052D00000000000000000000000000000000000CE
:1052E000000000003333333333333333333333335A
:1052F000333333333333333333333333333333337E
:10530000333377773333333333337777777777774D
:1053100077777777777777777777000000000000E7
:105320000000007777777777777777777777777772
:10533000777777777777777700000000000000773E
:10534000777700000000000000000000000000006F
:10535000000000000000000000000000000000004D
:1053600000000000333333333333333333333333D9
:1053700033333333333333333333333333333333FD
:1053800033337777333333333333777777777777CD
:105390007777777777777777777700000000000067
:1053A00000000077777777777777777777777777F2
:1053B00077777777777777770000000000000077BE
:1053C00077770000000000000000000000000000EF
:1053D00000000000000000000000000000000000CD
:1053E0000000000033333333333333333333333359
:1053F000333333333333333333333333333333337D
:105400003377773333333333333333777777777790
:10541000777777777777777777000000000000005D
:1054200000000033777777777777777777777777B5
:10543000777777777777777700000000000000773D
:1054400077AA00000000000000000000000000003B
:10545000000000000000000000000000000000004C
:1054600000000000333333333333333333333333D8
:1054700033333333333333333333333333333333FC
:105480003377773333333333333333777777777710
:1054900077777777777777777700000000000000DD
:1054A0000000003377777777777777777777777735
:1054B00077777777777777770000000000000077BD
:1054C00077AA0000000000000000000000000000BB
:1054D00000000000000000000000000000000000CC
:1054E0000000000033333333333333333333333358
:1054F000333333333333333333333333333333337C
:105500003333333333333333333333777777777717
:105510007777777777777777770000000077FF776F
:1055200000000000777777777777777777777777E7
:105530007777777777777777773300000000007792
:10554000777733000000000000000000000000003A
:10555000000000000000000000000000000000004B
:1055600000000000333333333333333333333333D7
:1055700033333333333333333333333333333333FB
:105580003333333333333333333333777777777797
:105590007777777777777777770000000077FF77EF
:1055A0000000000077777777777777777777777767
:1055B0007777777777777777773300000000007712
:1055C00077773300000000000000000000000000BA
:1055D00000000000000000000000000000000000CB
:1055E0000000000033333333333333333333333357
:1055F000333333333333333333333333333333337B
:10560000333333333333333333333333777777775A
:1056100077777777777777777700000033FFFFFF2B
:10562000770000007777777777777777777777776F
:1056300077777777777777777733000000000033D5
:1056400077777700000000000000000000000000F5
:10565000000000000000000000000000000000004A
:1056600000000000333333333333333333333333D6
:1056700033333333333333333333333333333333FA
:1056800033333333333333333333333377777777DA
:1056900077777777777777777700000033FFFFFFAB
:1056A00077000000777777777777777777777777EF
:1056B0007777777777777777773300000000003355
:1056C0007777770000000000000000000000000075
:1056D00000000000000000000000000000000000CA
:1056E0000000000033333333333333333333333356
:1056F000333333333333333333333333333333337A
:105700003333333333333333333333337777777759
:1057100077777777777777777700000033FFFFFF2A
:1057200077000000337777777777777777777777B2
:1057300077777777777777777777000000000000C3
:1057400033777777000000000000000000000000C1
:105750000000000000000000000000000000000049
:1057600000000000333333333333333333333333D5
:1057700033333333333333333333333333333333F9
:1057800033333333333333333333333377777777D9
:1057900077777777777777777700000033FFFFFFAA
:1057A0007700000033777777777777777777777732
:1057B0007777777777777777777700000000000043
:1057C0003377777700000000000000000000000041
:1057D00000000000000000000000000000000000C9
:1057E0000000000033333333333333333333333355
:1057F0003333333333333333333333333333333379
:10580000333333333333333333333333337777779C
:105810007777777777777777770000000077FFFFE4
:1058200033000000337777777777777777777777F5
:10583000777777777777777777773300000000008F
:1058400000777777770000000000000000773300D2
:105850000000000000000000000000000000000048
:1058600000000000333333333333333333333333D4
:1058700033333333333333333333333333333333F8
:10588000333333333333333333333333337777771C
:105890007777777777777777770000000077FFFF64
:1058A0003300000033777777777777777777777775
:1058B000777777777777777777773300000000000F
:1058C0000077777777000000000000000077330052
:1058D00000000000000000000000000000000000C8
:1058E0000000000033333333333333333333333354
:1058F0003333333333333333333333333333333378
:1059000033333333333333333333333333337777DF
:105910007777777777777777770000000000000058
:1059200000000000777777777777777777777777E3
:10593000777777777777777777777700000000004A
:1059400000003377770000000000000077777700D1
:105950000000000000000000000000000000000047
:1059600000000033333333333333333333333333A0
:1059700033333333333333333333333333333333F7
:10598000333333333333333333333333333377775F
:1059900077777777777777777700000000000000D8
:1059A0000000000077777777777777777777777763
:1059B00077777777777777777777770000000000CA
:1059C0000000337777000000000000007777770051
:1059D00000000000000000000000000000000000C7
:1059E0000000003333333333333333333333333320
:1059F0003333333333333333333333333333333377
:105A000033333333333333333333333333337777DE
:105A100077777777777777777777000000000000E0
:105A200000000000777777777777777777777777E2
:105A30007777777777777777777777000000000049
:105A400000000000000000000000003377777700BE
:105A50000000000000000000000000000000000046
:105A6000000000333333333333333333333333339F
:105A700033333333333333333333333333333333F6
:105A8000333333333333333333333333333377775E
:105A90007777777777777777777700000000000060
:105AA0000000000077777777777777777777777762
:105AB00077777777777777777777770000000000C9
:105AC000000000000000000000000033777777003E
:105AD00000000000000000000000000000000000C6
