:020000040800F2
:10000000E016002045010008951600089D1500081F
:100010009116000839090008812500080000000039
:100020000000000000000000000000008D1D00081E
:1000300081120008000000006F1B0008A11E0008CC
:100040005F0100085F0100085F0100085F01000810
:100050005F0100085F0100085F0100085F01000800
:100060005F0100085F0100085F0100085F010008F0
:10007000890D0008C50D0008E50D0008210E0008D7
:10008000510E0008710E00085F0100085F010008B2
:100090005F0100085F0100085F0100085F010008C0
:1000A0005F0100085F0100085F0100085F010008B0
:1000B000051F0008751F00085F0100085F010008A8
:1000C0005F0100085F0100085F010008FD1B0008D8
:1000D0005F010008B5210008012300085D24000825
:1000E0005F0100085F0100085F0100085F01000870
:1000F0005F0100085F0100085F0100085F01000860
:100100005F0100085F0100085F0100085F0100084F
:100110005F0100085F0100085F0100085F0100083F
:100120005F0100085F0100085F0100085F0100082F
:10013000DFF80CD000F010FB00480047BD3000088D
:10014000E01600200648804706480047FEE7FEE725
:10015000FEE7FEE7FEE7FEE7FEE7FEE7FEE7FEE777
:10016000A51E000831010008F0B480EA0102D40F96
:100170004200B2EB410F02D20246084611464A0045
:1001800042D0C30DDDB2C1F3C752AD1A202D35DA0E
:10019000C1F3160141F4000204B15242C5F1200638
:1001A00002FA06F12A411044B3EBD05F23D0C4B168
:1001B000012DA0EBC35009DCF0BC4FF0004202EA75
:1001C000C352DBB200F5000000F03ABA400000F183
:1001D000807000EBC350A0F1807040EAD1704900FC
:1001E00009E0490841EAC071A0EBC35000F50000E6
:1001F000400800EBC350F0BC00F019BA6142012284
:1002000002EB4101001BF6E7F0BC704781F00041B2
:10021000AAE780F00040A7E780EA010210B502F0EB
:100220000043400022D04A001FD0010E01EB1261B2
:10023000C0F35600C2F3560240F4000042F400023C
:10024000A0FB022000047F39140400D0401C50EAB7
:10025000124001D44000491EC2B20C0604EBD0107B
:10026000401C4008802A02D003E0002010BD20F08E
:100270000100002900DA0020184310BD30B480EAE4
:10028000010202F0004530F0004221F0004013D09E
:1002900090B1C30DD40DC2F31601C0F31600E41AD9
:1002A00041F4000140F400027D34914201D3641C0A
:1002B00000E04900002C02DA30BC002070474FF407
:1002C00000000023914201D3891A034340084FEAFA
:1002D0004101F7D151B1914202D14FF0004105E007
:1002E00002D24FF0010101E06FF0010103EBC450B5
:1002F000284430BC00F09BB92DE9FE4F804681EACE
:100300000300C00F0C46009021F0004123F000458F
:10031000B8EB0200A94105D24046214690461C4652
:100320000B46024623F00040104347D0270DC7F389
:100330000A00C3F30A510290401A019040286BDA78
:10034000C3F3130040F4801B0098924620B10023B1
:10035000D2EB030A63EB0B0B01985946C0F1400244
:10036000504600F043F906460D4650465946019A5C
:1003700000F04BF910EB08006141002487EA1152AC
:1003800084EAE7731A4340D0009A62B3019A012AC3
:100390004FEA075215DC001B61EB02014FF00042EF
:1003A00002EA0752CDE90042001C41F580113246B5
:1003B0002B4600F082F903B0BDE8F08F404621469D
:1003C000F9E7001B61EB0201001C41F580130018E6
:1003D0005B412018A2F5001747EB030140EAD570F6
:1003E000B6196D4111E06D084FEA360645EAC07551
:1003F0004FEA0752001B61EB0201001C41F580111E
:1004000049084FEA30000019514132462B4603B0EB
:10041000BDE8F04F00F042B90098012240000023EF
:10042000D0EB020263EBE073009821464FEAE074E0
:10043000B8EB000061EB0401E9E783F000435BE700
:1004400081F0004158E72DE9FE4F81EA030404F0F2
:10045000004421F0004100944FF0000B23F00043D2
:1004600050EA01045ED052EA03045BD0C3F30A549D
:10047000C1F30A552C44A4F2F3340194A0FB0254B6
:10048000C1F3130141F48011C3F3130343F4801348
:1004900001FB024400FB034E840A970A44EA81549C
:1004A00047EA8357A4FB076802958D0A05FB078579
:1004B0004FEA932C04FB0C542705029D4FEA065883
:1004C00047EA1637B5EB08056EEB070C870E920E60
:1004D00047EA811742EA8312A7FB0201B6EB0B0140
:1004E00064EB00042B0D43EA0C335E1844EB1C5004
:1004F000DA465146E7FB0201C5F313044FEA0B331A
:1005000043EA14534FEA0432019C43EA0603A4F180
:100510000C040294009CCDE900B400F0CEF803B0C6
:10052000BDE8F08F00200146F9E79623002211462E
:1005300000F086B820F00040C10DC0F3160040F472
:1005400000007F2901DA00207047962903DCC1F101
:100550009601C840704796398840704700F00042C5
:1005600030F000400AD0C10D01F56071C0F31600F3
:1005700042EA0151C208400711437047002001467A
:100580007047000030B5041E71F1000404DB4FF029
:100590000044404264EB0101141E73F1000405DBCA
:1005A0001C464FF00043524263EB0403994208BFDC
:1005B000904230BD01F0004330B421F0004150EAD8
:1005C000010206D00A0DA2F56072C1F31301002AE0
:1005D00002DC30BC00207047440F44EAC104C10073
:1005E000E01830BC00EBC25000F021B8202A04DB38
:1005F000203A00FA02F1002070479140C2F1200336
:1006000020FA03F3194390407047202A06DBCB17EA
:10061000203A41FA02F043EAE07306E041FA02F3BD
:10062000D040C2F12002914008431946704700298A
:10063000A8BF7047401C490008BF20F00100704768
:1006400010B4B0FA80FC00FA0CF050EA010404BFC8
:1006500010BC704749B1CCF1200421FA04F411FA1E
:100660000CF118BF012121430843A3EB0C01CB1D62
:100670004FEA00614FEA102042BF002010BC7047D3
:1006800000EBC35010440029A4BF10BC7047401CAD
:10069000490008BF20F0010010BC704710B5141EBF
:1006A00073F1000408DA401C41F1000192185B412B
:1006B0001A4301D120F0010010BD2DE9F04D924602
:1006C0009B4611B1B1FA81F202E0B0FA80F2203219
:1006D0009046FFF78BFF04460F4640EA0A0041EAC6
:1006E0000B0153465A46084313D0114653EA010002
:1006F00019D0C8F14002504600F040F805460E46B9
:10070000504659464246FFF771FF084305D0012085
:1007100004E020463946BDE8F08D0020054346EA56
:10072000E0762C4337430A986305E40AA0EB0800FF
:100730000022FD0A44EA47540A3002D5002001464F
:10074000E9E7010510196941DDE90845001969412A
:10075000BDE8F04DA2E70000064C074D06E0E0685A
:1007600040F0010394E8070098471034AC42F6D3F8
:10077000FFF7E2FCB4F60008D4F60008202A04DBF8
:10078000203A21FA02F00021704721FA02F3D0400A
:10079000C2F12002914008431946704770B58D1888
:1007A00010F8014B14F0030201D110F8012B2311B2
:1007B00006D110F8013B03E010F8016B01F8016B62
:1007C000521EF9D1ABB110F8012B04F00C048A1AB7
:1007D0000C2C03D0A2EB84129B1C08E010F8014BF8
:1007E000A2EB0422F8E712F8014B01F8014B5B1E63
:1007F000F9D5A942D4D3002070BD00004A488069D1
:1008000040F01000484988614848006820F00F0017
:10081000464908604448806940F400704249886154
:100820000846C06840F40070C8600846C06820F4FC
:100830000070C8600846406820F4404048600846A0
:10084000406840F400404860394800683949084031
:10085000374908600846006808600846006820F4C8
:1008600080700860081D006820F00200091D086003
:100870000846006820F4602008600846006840F4DC
:10088000602008600846006840F480100860084650
:10089000006820F40060086025482830006820F4D3
:1008A0007000234928310860084600680860204825
:1008B0000C30006820F038001D490C3108600846F3
:1008C000006840F038000860081F006820F4E0105D
:1008D000091F08600846006840F4E0100860081F1F
:1008E000006840F00100091F08600846006840F0F9
:1008F0000800086000BF0E48001D006800F00800F6
:100900000028F8D10A48001D006840F0040008499A
:10091000091D086000BF0648001D006800F00400C3
:100920000028F8D17047000000100240001001407C
:1009300004240140FFFFF00000BFFEE72DE9F04373
:1009400085B004460D4616461F46DDF830904FF040
:10095000000814B10DB106B11FB9012005B0BDE802
:10096000F083601EC4B2681EC5B2701EC6B2781E87
:1009700087B20121480601F00BF90121042001F0A2
:1009800017F94FF40060ADF8100048208DF81300FF
:1009900004A9454800F075FC4FF48050ADF81000F4
:1009A00018208DF8130003208DF8120004A93E488A
:1009B00000F067FC00203D4908600846006840F0F0
:1009C0000100086008E008F101001FFA80F8B8F1A2
:1009D000640F01DD0220C1E73448006800F0010027
:1009E0000028F0D0314800683049086008460068A7
:1009F00008600846006840F010000860084600687B
:100A00000860084600680860002028491C3108601A
:100A10000846006840EA897008600846006840EAB5
:100A2000046008600846006840EA0550086008460F
:100A3000006840EA064008600846006838430860DD
:100A40001A48006820F001001849086009E008F120
:100A500001001FFA80F84FF6F070804501DD032099
:100A60007CE71248006800F001000028EFD1012067
:100A70008DF80A0000208DF80B0001208DF80C0085
:100A80000020ADF80000ADF80600ADF80400ADF8A8
:100A90000600ADF8080001208DF80D00684600F052
:100AA000EFF800205AE70000000801400064004011
:100AB000F8B506460D4600240823002211463046AC
:100AC000009500F015F8074601E0601C84B2384636
:100AD00000F094F8072803D040F6FF708442F4DB5E
:100AE00040F6FF70844201DB0120F8BD0020FCE7E6
:100AF000F0B505460E46059C3E48006800F0806053
:100B000008B100210FE03B48006800F0006008B128
:100B1000012108E03748006800F0805008B1022148
:100B200001E0FF20F0BD0027334800EB0110076013
:100B30001EB9C5F30A056D0502E025F06045ED001C
:100B40002D4800EB0110006828432B4F07EB0117DD
:100B50003860294800EB0110006840EA8607264803
:100B600000EB01100760244800EB0110006840EA28
:100B70004207214800EB0110076003F00F031E48F5
:100B800000EB0110406820F00F071B4800EB01103C
:100B90004760194800EB011040681843164F07EBF7
:100BA00001177860E0790006A77940EA0740677985
:100BB00040EA0727207907430F4800EB0110C76080
:100BC000E0780006A77840EA0740677840EA072007
:100BD00027783843084F07EB0117B860064800EB49
:100BE0000110006840F00107034800EB01100760A6
:100BF000084697E7086400408065004001460020F1
:100C000021B1012913D0022933D121E01B4A1268F6
:100C100002F001021043194A126802F00202104366
:100C2000164A126802F0806240EA126023E0134A1A
:100C3000126802F001021043104A126802F0020228
:100C400010430E4A126802F0006240EA526012E05D
:100C50000A4A126802F001021043084A126802F0C0
:100C600002021043054A126802F0805240EA926084
:100C700001E0052000BF00BF70470000086400408D
:100C800010B50021837A012202FA03F13D4A12686D
:100C900042F001023B4B1A603A4A1C3212688A4306
:100CA000384B1C331A60027BCAB9364A0C321268C0
:100CB0008A43344B0C331A604288C38842EA0343A8
:100CC000304A4032847A42F834300288838842EADB
:100CD00003432C4A4032847A02EBC4025360027B05
:100CE000012A19D1274A0C3212680A43254B0C33CA
:100CF0001A604288038842EA0343224A4032847AD7
:100D000042F83430C288838842EA03431D4A4032A5
:100D1000847A02EBC4025360C27A3AB9194A121DAE
:100D200012688A43174B1B1D1A6006E0154A121DF4
:100D300012680A43134B1B1D1A60028932B9114A0B
:100D4000143212688A430F4B14331A600289012A45
:100D500006D10C4A143212680A430A4B14331A6043
:100D6000427B012A06D1074A1C3212680A43054B0E
:100D70001C331A60034A126822F00102014B1A6008
:100D800010BD0000006600400B48406840F02000A5
:100D9000094948600846406840F4007048600748C8
:100DA000008820F080000549088005480078401C34
:100DB00003490870704700000000024014480040DA
:100DC0004100002010B54FF4007000F08FF838B1EA
:100DD0004FF4007000F070F84FF4007000F05EF80F
:100DE00010BD00000B48406840F4005009494860BD
:100DF0000846406840F4805048600748008820F06A
:100E000080000549088005480078401C03490870A7
:100E10007047000000000240143801403D000020EF
:100E200010B50A48406840F40030084948604FF463
:100E3000003000F05BF840B100210448583000F069
:100E400049F84FF4003000F037F810BD00000240C0
:100E500010B54FF4001000F049F828B1034840687D
:100E600040F400300149486010BD0000000002401D
:100E70000848406840F000700649486008464068ED
:100E800040F0807048600448008820F080000249EB
:100E900008807047000002401444004000F0805178
:100EA00011B10349086001E0024948607047000041
:100EB000040402400000024000F0805111B10349D7
:100EC000086001E0024948607047000004040240E5
:100ED0000000024021B1026842F00102026004E019
:100EE00002684FF6FE731A40026070470146002008
:100EF000002201F0805313B1054B1A6801E0054B45
:100F00001A6802EA01030BB1012000E000207047DB
:100F10000004024000000240F8B504460F461646A1
:100F20001D460121084600F023FE2148406940F09B
:100F300001001F494861A760E6601E4805806560A2
:100F400000202060206840F00200206020682060BF
:100F50002068206020682060206840F080002060C9
:100F60002068206020682060206840F48050206065
:100F7000206820601048008840F040000E4908803A
:100F8000206840F001002060206840F002002060EE
:100F90000F208DF8000003208DF801008DF802006D
:100FA00001208DF80300684600F07CFBF8BD0000CE
:100FB000001002401800002014380140F8B5044623
:100FC0000F4616461D460121084600F0D1FD1A487D
:100FD000406940F0010018494861A760E660174881
:100FE0000580656000202060206840F010002060CF
:100FF0002068206020682060206840F08000206029
:1010000020682060206820602068206020682060C0
:10101000206840F0020020600E208DF800000320C0
:101020008DF801008DF8020001208DF8030068465C
:1010300000F038FBF8BD000000100240180000204E
:10104000F8B504460F4616461D460121084600F035
:101050008FFD1F48406940F001001D494861A760AD
:10106000E6601C480580656000202060206840F034
:1010700002002060206820602068206020682060D6
:10108000206840F080002060206820602068206098
:10109000206840F480502060206820600E4800885E
:1010A00040F040000C490880206840F001002060BA
:1010B00010208DF8000003208DF801008DF802004B
:1010C00001208DF80300684600F0ECFAF8BD00003E
:1010D000001002401A00002014440040F8B50446F5
:1010E0000F4616461D460121084600F041FD1A48EC
:1010F000406940F0010018494861A760E660174860
:101100000580656000202060206840F010002060AD
:101110002068206020682060206840F08000206007
:10112000206820602068206020682060206820609F
:10113000206840F00200206011208DF8000002209D
:101140008DF801008DF8020001208DF8030068463B
:1011500000F0A8FAF8BD0000001002401A000020BC
:10116000F8B504460F4616461D460121084600F014
:10117000FFFC1F48406940F001001D494861A7601D
:10118000E6601C480580656000202060206840F013
:1011900002002060206820602068206020682060B5
:1011A000206840F080002060206820602068206077
:1011B000206840F480502060206820600E4800883D
:1011C00040F040000C490880206840F00100206099
:1011D0000D208DF8000003208DF801008DF802002D
:1011E00001208DF80300684600F05CFAF8BD0000AD
:1011F000001002401A00002014480040F8B50446D0
:101200000F4616461D460121084600F0B1FC1A485B
:10121000406940F0010018494861A760E66017483E
:101220000580656000202060206840F0100020608C
:101230002068206020682060206840F080002060E6
:10124000206820602068206020682060206820607E
:10125000206840F0020020600C208DF80000032080
:101260008DF801008DF8020001208DF8030068461A
:1012700000F018FAF8BD0000001002401A0000202B
:1012800070472DE9F041024600250026002000238A
:101290000024002791F803C00CF00F0591F803C05B
:1012A0000CF0100CBCF1000F03D091F802C04CEA16
:1012B000050591F800C0BCF1000F31D01468002082
:1012C0002BE04FF0010C0CFA00F3B1F800C00CEA6F
:1012D00003069E4220D183004FF00F0C0CFA03F757
:1012E000BC4305FA03FC4CEA040491F803C0BCF1CA
:1012F000280F06D14FF0010C0CFA00FCC2F814C004
:101300000AE091F803C0BCF1480F05D14FF0010C81
:101310000CFA00FCC2F810C0401C0828D1D314609D
:10132000B1F800C0BCF1FF0F34DD546800202EE09E
:1013300000F1080C4FF0010808FA0CF3B1F800C0F6
:101340000CEA03069E4221D183004FF00F0C0CFAE9
:1013500003F7BC4305FA03FC4CEA040491F803C00C
:10136000BCF1280F05D100F1080C08FA0CF8C2F8FE
:10137000148091F803C0BCF1480F07D100F1080CAC
:101380004FF0010808FA0CF8C2F81080401C082839
:10139000CED35460BDE8F081F0B50A4600230024A6
:1013A0000021002500F00046B6F1004F02D11D4E8D
:1013B000F16901E01B4E7168C0F3034583B200F48C
:1013C0004016B6F5401F08D121F07061154E7668C1
:1013D00026F07066134F7E6012E000F48016B6F5BA
:1013E000801F06D1032606FA05F4A14341F070617F
:1013F00006E0460D360103FA06F6B14341F070618E
:1014000022B1460D360103FA06F6314300F00046DC
:10141000B6F1004F02D1034EF16101E0014E71605F
:10142000F0BD00000000014041617047016170475C
:101430002DE9FC4782464C48007800287DD14B4876
:10144000006820F00F00494908600846006840F035
:101450000A00086045482C38006840F48000434981
:101460002C39086041483438006800F0020060B14F
:101470003F480088401C3E4908803C4818300068BE
:101480003C49096808443B49086039480088504590
:1014900060DB38480068B0FBFAF03649086008465F
:1014A00000883549088000203249086030490880AA
:1014B00003202D49087030480088B0F5617F04DAB8
:1014C00000202E4908602E4908602B480088B0F59E
:1014D000617F2ADB28480088FFF727F88046FFF75E
:1014E0003DF806460022274BFEF7A7FF0446FFF70C
:1014F00061F82249086008460068FFF72FF80446A3
:101500000D461E480068FFF729F81F4A1F4BCDE91A
:101510000001FEF798FF064622462B46FEF7ECFE3A
:101520008046FFF747F81649086015480068FFF73E
:1015300015F804460022164B00E00BE0FFF722F8F6
:1015400002D214480E4908600D480068FEF7F2FF09
:101550001149088004480078022802DB0020024973
:101560000870BDE8FC8700007208002034240140A8
:101570006E080020680800206C0800207408002015
:101580007808002000208C409A9999999999E13F18
:101590000040AF4000007A457008002000BFFEE721
:1015A00008B501210D2000F003FB0121702000F09F
:1015B000FFFA3020ADF8000048208DF8030069469E
:1015C0001448FFF75EFE40F2C330ADF8000048203B
:1015D0008DF8030069461048FFF753FE4FF49F4013
:1015E000ADF800004BF20300ADF8000048208DF884
:1015F000030069460948FFF744FE4FF4DE50ADF89A
:10160000000048208DF8030069460548FFF739FEC1
:1016100008BD000000100140000C0140001801400E
:101620000014014008B50121202000F0C1FA012179
:101630001548FFF7B1FE0121202000F0B9FA4FF460
:101640008040ADF8000010208DF8030003208DF8D5
:10165000020069460D48FFF714FE4FF480410B4825
:10166000FFF7E4FE2020ADF8000010208DF8030005
:1016700003208DF8020069460448FFF702FE20218E
:101680000248FFF7D3FE08BD0002300000140140FD
:1016900000BFFEE7704710B54FF4A06000F03AF8C5
:1016A00010BD000070B5002100230F22C47804B3E0
:1016B000154C246804F4E064C4F5E064210AC1F127
:1016C0000403CA40447804FA03F1847814402143A7
:1016D00009010E4C0678A155047804F01F05012479
:1016E000AC4005786D11AD0005F1E025C5F800416D
:1016F00009E0047804F01F050124AC40044D06788D
:10170000761145F8264070BD0CED00E000E400E0E5
:1017100080E100E002490143024A11607047000085
:101720000000FA050CED00E070B5002419E004F1AA
:10173000B001C8B2002100F0D1F90021022000F070
:10174000CDF90021102000F0C9F9002505E00121A4
:10175000002000F0C3F9681CC5B2802DF7DB601CC7
:10176000C4B2082CE3DB70BD08B50121292000F0CC
:101770001FFA01215448FFF70FFE2820ADF80000A2
:1017800010208DF8030003208DF8020069464F48B1
:10179000FFF777FD0E20ADF8000010208DF8030054
:1017A00003208DF8020069464948FFF76AFD0221CF
:1017B0004748FFF73BFE642000F0BEFF022144488B
:1017C000FFF732FE642000F0B7FF02214048FFF728
:1017D0002DFE0021AE2000F081F90021022000F052
:1017E0007DF90021102000F079F90021402000F05F
:1017F00075F90021812000F071F90021CF2000F05F
:101800006DF90021A12000F069F90021C82000F045
:1018100065F90021A62000F061F90021A82000F060
:101820005DF900213F2000F059F90021D32000F09C
:1018300055F90021084600F051F90021D52000F0AB
:101840004DF90021802000F049F90021D92000F055
:1018500045F90021F12000F041F90021DA2000F0E3
:101860003DF90021122000F039F90021DB2000F0C1
:1018700035F90021402000F031F90021202000F04E
:101880002DF90021022000F029F900218D2000F01F
:1018900025F90021142000F021F90021A42000F0F6
:1018A0001DF90021A62000F019F90021AF2000F059
:1018B00015F90021AF2000F011F9FFF735FF0021E5
:1018C000084600F007F808BD00023000000C014097
:1018D0000014014070B504460D4605F1B001C8B2D0
:1018E000002100F0FBF8102141EA1410002100F063
:1018F000F5F804F00F0141F00100002100F0EEF8CE
:1019000070BD00002DE9F04107460E4690460025C7
:101910000024A8F12000C5B27F2F02DD0027B01CF3
:10192000C6B231463846FFF7D5FF002408E004EB85
:101930000521484A505C012100F0D0F8601CC4B277
:10194000202CF4DB701CC1B23846FFF7C3FF002423
:1019500009E004EB052120313E4A505C012100F0F2
:10196000BDF8601CC4B2202CF3DBB01CC1B23846F9
:10197000FFF7B0FF002409E004EB05214031354AB0
:10198000505C012100F0AAF8601CC4B2202CF3DBEB
:10199000F01CC1B23846FFF79DFF002409E004EBBC
:1019A000052160312B4A505C012100F097F8601C42
:1019B000C4B2202CF3DB301DC1B23846FFF78AFFDA
:1019C000002409E004EB05218031224A505C01210A
:1019D00000F084F8601CC4B2202CF3DB701DC1B28F
:1019E0003846FFF777FF002409E004EB0521A0311A
:1019F000184A505C012100F071F8601CC4B2202C20
:101A0000F3DBB01DC1B23846FFF764FF002409E0E4
:101A100004EB0521C0310F4A505C012100F05EF853
:101A2000601CC4B2202CF3DBF01DC1B23846FFF7B6
:101A300051FF002409E004EB0521E031054A505C28
:101A4000012100F04BF8601CC4B2202CF3DBBDE890
:101A5000F0810000B49700082DE9FF5F074691462A
:101A60001D460E9E4FF0000A002433E0281B401E46
:101A7000C1B20A2001F0A8FBB9FBF0F00A21B0FBCB
:101A8000F1F201FB1208BAF1000F13D1681EA04257
:101A900010DDB8F1000F0BD1B34606EBDB71491036
:101AA00001FB0471C8B220220199FFF72BFF0FE060
:101AB0004FF0010AB34606EBDB71491001FB0471DC
:101AC000C8B208F13001CAB20199FFF71BFF00BF8D
:101AD000601CC4B2AC42C9DBBDE8FF9F70B50446D0
:101AE0000E4626B104211848FFF7A0FC03E00421AC
:101AF0001548FFF799FC08211348FFF795FC0025CE
:101B000017E008211148FFF78FFC04F0800020B196
:101B100020210E48FFF78AFC03E020210B48FFF745
:101B200083FC08210948FFF781FC6006040E681C4D
:101B3000C5B2082DE5DB08210348FFF777FC042137
:101B40000148FFF773FC70BD00140140000C014018
:101B500070B504460025104605E0265C4E556E1C07
:101B6000F5B2461CF0B29E188642F6DC70BD704796
:101B700029B1064A52690243044B5A6104E0034A00
:101B800052698243014B5A617047000000100240C5
:101B900029B1064AD2690243044BDA6104E0034AE0
:101BA000D2698243014BDA617047000000100240A5
:101BB00029B1064A92690243044B9A6104E0034A40
:101BC00092698243014B9A61704700000010024005
:101BD00070B504460B460025002101260AE0881C4A
:101BE000185C6054881C185C284485B2481C81B27B
:101BF000701C86B29642F2DBE8B270BD70470000FE
:101C000000B587B001210820FFF7D2FF012188032A
:101C1000FFF7BEFF4FF46040ADF818001C208DF8B0
:101C20001B0003208DF81A0006A91848FFF729FBAE
:101C30004FF460411548FFF7F9FB0020ADF80400B0
:101C40004FF48270ADF806000020ADF808000220C5
:101C5000ADF80A000120ADF80C004002ADF80E000E
:101C60000820ADF810000020ADF812000720ADF8F4
:101C7000140001A9064800F06BF80121044800F0A7
:101C80004DF8FF2000F006F807B000BD000C014041
:101C90000038004070B50446002505E0681CC5B258
:101CA000C82D01DD002070BD0221074800F042F878
:101CB0000028F3D02146044800F048F800250248E7
:101CC00000F041F8C0B2EEE7003800402DE9F041E5
:101CD00005460E464FF00008002419E02F5D09E08C
:101CE00008F1010000F0FF08B8F1C80F02DD002084
:101CF000BDE8F0810221084800F01CF80028EFD070
:101D00003946054800F022F84FF00008601C84B204
:101D1000B442E3DB0020EBE70038004021B1028849
:101D200042F04002028004E002884FF6BF731A407E
:101D3000028070470246002013890B400BB101203E
:101D400000E0002070470146888970478181704714
:101D500010B50022028802F441520B884C882343BC
:101D60008C882343CC8823430C8923434C89234309
:101D70008C892343CC8923431A430280838B4FF2FF
:101D8000FF74234083830B8A038210BD704710B514
:101D900000F002F810BD00000CB50020019000908A
:101DA0003348006840F480303149086000BF304853
:101DB000006800F4003000900198401C01900098E9
:101DC00018B90198B0F5A06FF1D12948006800F466
:101DD000003010B10120009001E000200090009838
:101DE000012843D12348006840F0100021490860D1
:101DF0000846006820F0030008600846006840F0CC
:101E0000020008601A48406819494860084640685E
:101E100048600846406840F4806048600846406872
:101E200020F47C1048600846406840F4E8104860A0
:101E30000846006840F08070086000BF0C480068E9
:101E400000F000700028F9D00948406820F0030035
:101E5000074948600846406840F00200486000BFFB
:101E60000348406800F00C000828F9D10CBD0000C0
:101E70000010024000200240042808D14FF0E02169
:101E8000096941F004014FF0E022116107E04FF0D1
:101E9000E021096921F004014FF0E022116170474F
:101EA0007047000010B51348006840F00100114968
:101EB000086008464068104908400E4948600846D6
:101EC00000680E4908400B4908600846006820F485
:101ED000802008600846406820F4FE0048604FF407
:101EE0001F008860FFF753FF4FF00060044908604F
:101EF00010BD0000001002400000FFF8FFFFF6FEDA
:101F000008ED00E010B50121880700F0E6F818B1EF
:101F10000121880700F0D2F810BD7FB505460C46B8
:101F200001210846FFF734FEADF80850ADF8044033
:101F30000020ADF80A00ADF8060001A94FF080407E
:101F400000F0E6F801221146900700F0D7F81C20B7
:101F50008DF8000000208DF801008DF802000120AE
:101F60008DF803006846FFF79DFB0121880700F00C
:101F7000A8F87FBD10B50121294800F0AEF800286F
:101F80004DD028480088401C2649088026480088F3
:101F9000401C2549088025480088401C23490880AA
:101FA00023480088401C2249088022480088401CA1
:101FB0002049088020480088401C1F4908801F488D
:101FC0000088401C1D4908801D480088401C1C4991
:101FD00008801C480078012804DB1B480088401C4E
:101FE0001949088019480078012804DB184800883E
:101FF000401C1749088017480078012804DB164860
:102000000088401C1449088007480088322802DBF9
:102010000020054908800121014800F04FF810BD5B
:10202000000400401E0000202000002022000020AC
:1020300024000020260000202E0000203000002078
:10204000320000203D000020280000203F0000203A
:102050002A000020410000202C0000207FB505460A
:102060000C4601210220FFF793FDADF80850ADF8B2
:1020700004400020ADF80A00ADF8060001A90E48A2
:1020800000F046F8012211460B4800F037F81D20F9
:102090008DF8000002208DF8010003208DF8020069
:1020A00001208DF803006846FFF7FCFA0121024881
:1020B00000F007F87FBD000000040040CA43028220
:1020C000704721B1028842F00102028004E00288D8
:1020D0004FF6FE731A400280704730B5024600206A
:1020E00000230024158A05EA0103958905EA010405
:1020F00013B10CB1012000E0002030BD1AB183897A
:102100000B43838102E083898B4383817047000006
:10211000002202881D4B98420ED01D4B98420BD0D6
:10212000B0F1804F08D01B4B984205D01A4B984213
:1021300002D01A4B984204D14FF68F731A404B8845
:102140001A43174B984207D0164B984204D04FF6CB
:10215000FF431A40CB881A4302808B8883850B8803
:1021600003850A4B98420BD0094B984208D00E4B7E
:10217000984205D00D4B984202D00D4B984201D1A8
:102180000B7A03860123838270470000002C0140F4
:10219000003401400004004000080040000C0040F2
:1021A0000010004000140040004001400044014085
:1021B0000048014010B540F22441384800F0B6F91B
:1021C000002869D03548008800F04000402807D139
:1021D00032480C30008820F0400030490C31088033
:1021E0002E48008800F02000202805D12B480088C8
:1021F00020F02000294908802848008800F01000BD
:10220000102836D12548008820F010002349088086
:1022100008460088224908802048001D0088088060
:102220002048806D20F001001E4988651B4814304D
:10223000008820F0400019491431088064201949B1
:10224000C8650846806D40F0010088651348143069
:10225000008840F04000114914310880114840685E
:1022600040F400300F4948600846406840F4005090
:1022700048600A48008820F0100008490880074894
:102280000C30008820F0400004490C3108800648DA
:102290000078401C0449087010BD0000003801405F
:1022A00042000020000002403C00002000B5114820
:1022B000007801281CDB00200E4908700E480078C9
:1022C000A82815D10C484078012811D100200A49CE
:1022D000087048706321084800F081FF064991F8B2
:1022E0006310884204D1632203490448FFF770FC5D
:1022F00000BD00003C00002080080020680C002089
:102300002F48008800F04000402807D12C480C30AE
:10231000008820F040002A490C31088028480088B5
:1023200000F01000102836D12548008820F0100059
:102330002349088008460088224908802048001D5B
:10234000008808802048C06E20F001001E49C86641
:102350001B481430008820F04000194914310880CF
:102360006420194908670846C06E40F00100C8663D
:1023700013481430008840F040001149143108809F
:102380001148406840F400100F4948600846406812
:1023900040F0007048600A48008820F010000849AA
:1023A000088007480C30008820F0400004490C31B8
:1023B000088006480078401C0449087070470000F7
:1023C0000044004044000020000002403E00002085
:1023D00000B51C480078012832DB0020194908703C
:1023E00019480078B7282BD117484078012827D101
:1023F0000020154908704C21134800F05FF913497B
:1024000008704B21104800F0EAFE0F4991F84B107C
:10241000884215D14B220C490D48FFF7D9FB0B48D8
:1024200000780C490978884202D025200A490870B2
:1024300006480078074908700020034981F84B00DE
:1024400000BD00003E000020480900205D0800207B
:10245000040C00205C0800205E0800202F48008843
:1024600000F04000402807D12C480C30008820F0B4
:1024700040002A490C3108802848008800F01000EC
:10248000102836D12548008820F010002349088004
:1024900008460088224908802048001D00880880DE
:1024A0002048006B20F001001E4908631B481430CF
:1024B000008820F04000194914310880642019492F
:1024C00048630846006B40F001000863134814306D
:1024D000008840F0400011491431088011484068DC
:1024E00040F020000F4948600846406840F4007002
:1024F00048600A48008820F0100008490880074812
:102500000C30008820F0400004490C310880064857
:102510000078401C044908707047000000480040E3
:1025200046000020000002404000002070B5024636
:10253000002400230025002040F66A16B14200D195
:1025400000BFC1F3421501F01F03012606FA03F391
:10255000012D02D19689334006E0022D02D1168A60
:10256000334001E0968A33400C12012606FA04F447
:102570001688344013B10CB1012000E0002070BD7A
:1025800000BFFEE77FB5002003904FF4487600249B
:1025900010E00E48005D00F00F05002001210091C1
:1025A0000B460A46CDE901102946204600F012F8F4
:1025B000601CC4B2192CECDB31460548FFF786FBE2
:1025C000022103A8FFF782FB7FBD0000C11200209B
:1025D000A10F00202DE9F04F0C4616469946DDE983
:1025E0000AC8099F4FF0080B0BEB401BDFF8A8E06F
:1025F0000BEB0E02F3460BEB40134FF0100B0BEB03
:10260000401B0BEB0E054FF0180B0BEB401B0BEBBD
:102610000E0A00213CE0012C06D1614504DA4FF09E
:10262000F80B83F800B003E04FF0E00B83F800B044
:10263000022C06D1B14204DA4FF0F80B82F800B058
:1026400003E04FF0E00B82F800B0032C06D14945BF
:1026500004DA4FF0F80B85F800B003E04FF0E00B20
:1026600085F800B0042C06D1B94204DA4FF0F80B1B
:102670008AF800B003E04FF0E00B8AF800B0521C7B
:102680006D1C0AF1010A5B1C01F1010B0BF0FF014B
:102690000829C0DBBDE8F08FA10F002002E008C8C8
:1026A000121F08C1002AFAD170477047002001E0CC
:1026B00001C1121F002AFBD17047000070B502460D
:1026C0000C46FF25FF2309E012F8010B80EA050103
:1026D0000648405C80EA03050548435C201EA4F1DF
:1026E0000104F1D143EA052070BD0000383500082F
:1026F0003836000810B56FF00400FFF7BDFB0A483C
:1027000000680A49B0FBF1F00949087008460078F2
:1027100000EB4001C1EBC0104FF6FF7101EAC000B1
:102720000449088010BD00000400002000127A0057
:1027300034000020360000200146114A12884A4326
:102740004FF0E0235A6100229A611A46126942F062
:1027500001021A6100BF4FF0E022106900F001028F
:102760001AB100F48032002AF5D04FF0E02212694D
:1027700022F001024FF0E0231A6100229A617047B3
:102780003600002010B53648008832280EDB00BF26
:1027900000203349088033480078252806D10020DE
:1027A000304908702E490880FFF7ECFE2E4800885B
:1027B000012807DB00202C4908802C4940F20260E8
:1027C000FEF776F92A4800782849087028484078AA
:1027D00048702748807888702548C078C870254898
:1027E000007848712348008800120871FFF75EFDE9
:1027F000FFF7EEFD00F04CF80A20FEF719FE192352
:1028000000221D491D48FFF7A3F91D480088401C00
:102810001B4908800846008864280FDB19480068B7
:1028200008B9012000E00020164908600020144982
:10283000088015480088401C134908801248008809
:10284000C82802DB0020104908800A480088282197
:1028500090FBF1F0C0F164000C49087010BD00005D
:10286000320000205E0800203000002048080020D0
:102870005008002070080020C1120020040C002025
:1028800058080020B88122425A0800207C08002005
:10289000FB48006890B1FB4890F90000022806DA76
:1028A000F8480078401C40B2F649087018E0F64835
:1028B000007820F00100F449087011E0F14890F927
:1028C0000000022806DDEF480078401E40B2ED49C6
:1028D000087005E0EC48007840F00100EA49087013
:1028E000EA48006890B1E74890F90100022806DA4A
:1028F000E4484078401C40B2E249487018E0E248A1
:10290000007820F00200E049087011E0DD4890F9FD
:102910000100022806DDDB484078401E40B2D9495C
:10292000487005E0D848007840F00200D6490870A9
:10293000D748006890B1D34890F90200022806DA1F
:10294000D0488078401C40B2CE49887018E0CE480C
:10295000007820F00400CC49087011E0C94890F9D3
:102960000200022806DDC7488078401E40B2C549F3
:10297000887005E0C448007840F00400C24908703F
:10298000BF48001D006890B1BE4890F903000228BE
:1029900006DABC48C078401C40B2BA49C87018E09A
:1029A000B948007820F00800B749087011E0B54830
:1029B00090F90300022806DDB248C078401E40B2FC
:1029C000B049C87005E0B048007840F00800AE4952
:1029D0000870AF480838006890B1AA4890F9040020
:1029E000022806DAA7480079401C40B2A5490871C0
:1029F00018E0A548007820F01000A349087011E005
:102A0000A04890F90400022806DD9E480079401E87
:102A100040B29C49087105E09B48007840F01000E6
:102A2000994908709A48001D006890B1954890F93E
:102A30000500022806DA93484079401C40B29149CB
:102A4000487118E09048007820F020008E49087006
:102A500011E08C4890F90500022806DD894840798C
:102A6000401E40B28749487105E08748007840F031
:102A70002000854908708548001F006890B1814892
:102A800090F90600022806DA7E488079401C40B2A0
:102A90007C49887118E07C48007820F040007A4931
:102AA000087011E0774890F90600022806DD7548A5
:102AB0008079401E40B27349887105E07248007801
:102AC00040F04000704908707148001F006890B1E4
:102AD0006C4890F90700022806DA6A48C079401C61
:102AE00040B26849C87118E06748007820F080005B
:102AF0006549087011E0634890F90700022806DD77
:102B00006048C079401E40B25E49C87105E05E4829
:102B1000007840F080005C4908705D48083000682B
:102B200090B1584890F90800022806DA5548007A12
:102B3000401C40B25349087218E05348407820F0D6
:102B400001005149487011E04E4890F908000228F0
:102B500006DD4C48007A401E40B24A49087205E042
:102B60004948407840F001004749487048482438B7
:102B7000006890B1434890F90900022806DA4148FC
:102B8000407A401C40B23F49487218E03E484078C5
:102B900020F002003C49487011E03A4890F90900E1
:102BA000022806DD3748407A401E40B23549487257
:102BB00005E03548407840F002003349487033481A
:102BC0001830006890B12F4890F90A00022806DA00
:102BD0002C48807A401C40B22A49887218E02A4862
:102BE000407820F004002849487011E0254890F909
:102BF0000A00022806DD2348807A401E40B221499F
:102C0000887205E02048407840F004001E49487072
:102C10002048006890B11B4890F90B00022806DAA2
:102C20001848C07A401C40B21649C87218E01648CD
:102C3000407820F008001449487011E0114890F9DC
:102C40000B00022806DD0F48C07A401E40B20D4935
:102C5000C87205E00C48407840F008000A49487006
:102C60000B4820380068F0B1064890F90C000228A3
:102C700012DA0448007B401C40B20249087324E089
:102C800010012242880F00205008002004812142B8
:102C90002401234218812242F748407820F0100096
:102CA000F549487011E0F54890F90C00022806DD5E
:102CB000F248007B401E40B2F049087305E0EE4840
:102CC000407840F01000EC494870ED48006890B141
:102CD000EA4890F90D00022806DAE848407B401CDB
:102CE00040B2E649487318E0E348407820F02000FD
:102CF000E149487011E0E14890F90D00022806DD35
:102D0000DE48407B401E40B2DC49487305E0DA48AB
:102D1000407840F02000D8494870DA48006890B107
:102D2000D64890F90E00022806DAD448807B401C71
:102D300040B2D249887318E0CF48407820F0400074
:102D4000CD49487011E0CD4890F90E00022806DD0B
:102D5000CA48807B401E40B2C849887305E0C64817
:102D6000407840F04000C4494870C548001D0068E4
:102D700090B1C24890F90F00022806DABF48C07B24
:102D8000401C40B2BD49C87318E0BB48407820F0F1
:102D90008000B949487011E0B84890F90F00022846
:102DA00006DDB648C07B401E40B2B449C87305E09A
:102DB000B148407840F08000AF494870B0480838CA
:102DC000006890B1AD4890F91000022806DAAB48CF
:102DD000007C401C40B2A949087418E0A6488078DD
:102DE00020F00100A449887011E0A44890F9100077
:102DF000022806DDA148007C401E40B29F490874AD
:102E000005E09D48807840F001009B4988709E480D
:102E1000006890B1994890F91100022806DA9748A5
:102E2000407C401C40B29549487418E09248807834
:102E300020F002009049887011E0904890F911004C
:102E4000022806DD8D48407C401E40B28B49487404
:102E500005E08948807840F00200874988708A48F8
:102E6000001D006890B1854890F91200022806DA2A
:102E70008248807C401C40B28049887418E07E48BB
:102E8000807820F004007C49887011E07B4890F93C
:102E90001200022806DD7948807C401E40B2774946
:102EA000887405E07448807840F0040072498870A6
:102EB00075480C30006890B1704890F913000228F2
:102EC00006DA6E48C07C401C40B26C49C87418E0F9
:102ED0006948807820F008006749887011E06748E9
:102EE00090F91300022806DD6448C07C401E40B201
:102EF0006249C87405E06048807840F008005E4987
:102F0000887061480830006890B15C4890F91400FE
:102F1000022806DA5948007D401C40B2574908751E
:102F200018E05548807820F010005349887011E06F
:102F3000524890F91400022806DD5048007D401EDA
:102F400040B24E49087505E04B48807840F01000CB
:102F5000494988704B481030006890B1474890F953
:102F60001500022806DA4548407D401C40B243491E
:102F7000487518E04048807820F020003E4988706D
:102F800011E03E4890F91500022806DD3B48407DDF
:102F9000401E40B23949487505E03748807840F016
:102FA00020003549887037480830006890B13348B0
:102FB00090F91600022806DA3048807D401C40B2A5
:102FC0002E49887518E02C48807820F040002A4966
:102FD000887011E0294890F91600022806DD27487C
:102FE000807D401E40B22549887505E022488078E2
:102FF00040F040002049887022481430006890B1A9
:103000001E4890F91700022806DA1C48C07D401CB3
:1030100040B21A49C87518E01748807820F080003F
:103020001549887011E0154890F91700022806DD4F
:103030001248C07D401E40B21049C87505E00E48D8
:10304000807840F080000C4988700E48001D0068B0
:10305000E0B10A4890F91800022806DA0748007E15
:10306000401C40B20549087622E00348C07820F0B1
:1030700001000149C8701BE050080020880F0020A3
:10308000208121421C81224230012342094890F9CB
:103090001800022806DD0748007E401E40B20549A0
:1030A000087605E00448C07840F001000249C87085
:1030B00070470000880F00205008002008B5FFF777
:1030C00019FBFEF7E8FA4FF4E131482000F096F8DA
:1030D0004FF4E131242000F013F92E49242000F0B0
:1030E0009DF9FEF79FFA41F61F411420FEF7B6FF47
:1030F00041F61F416420FEF710FFFEF781FD6423B7
:10310000254A26492648FDF759FF6423254A2349C5
:1031100023481430FDF700FF6423234A2349204845
:103120003C30FDF7DBFF6423214A20491C4828304E
:10313000FDF786FF64231F4A1F4919482838FEF708
:103140005DF864231D4A1C4915481438FEF708F839
:10315000002006230222032100900120FDF7EEFB50
:10316000FEF71EFAFDF74AFB02211548FEF7AEFDF9
:10317000FEF7FAFAFEF7D8FA0AE0FFF703FB402061
:10318000032300900F48027800210846FEF764FCF4
:10319000F3E7000020A10700E40800200438014004
:1031A0004400024080080020AC0900200444004094
:1031B00048090020740A002004480040100A00203A
:1031C000000000207C08002010B50246012000E02D
:1031D00050430B1EA1F10104E1B2F9D110BD10B5AD
:1031E00002460B460024022104E0505C204484B2D5
:1031F000481C81B29942F8DBE0B210BD2DE9F84FCE
:1032000005460E463001FDF790F98146384905FB29
:1032100001F0FDF78AF982464946FDF72FF8074687
:103220003846FDF787F984B22046FDF77EF98346DC
:103230003946FCF7EEFF82464FF08341FCF7ECFF86
:103240008146FDF777F980464FF6FF7000EA0414D7
:1032500004EB080084B22748806940F00400254947
:1032600088610846806940F480408861224800688F
:1032700020F47F60204908600846006840F40B6035
:1032800008601C48C06840F480401A49C86008467D
:10329000C06820F48040C86018480480001D008881
:1032A00042F20C0108431549091D088008460088B0
:1032B00040F4807008800846008840F010000880C4
:1032C0000E480838008820F010000C4908390880A2
:1032D00025208DF8000003208DF801008DF80200F4
:1032E00001208DF803006846FEF7DCF9BDE8F88F91
:1032F00040420F000010024004080140083801401D
:103300002DE9F84F05460E463001FDF70EF98146CE
:103310003D4905FB01F0FDF708F982464946FCF7F7
:10332000ADFF07463846FDF705F984B22046FDF7A4
:10333000FCF883463946FCF76CFF82464FF0834128
:10334000FCF76AFF8146FDF7F5F880464FF6FF70FF
:1033500000EA041404EB080084B22C48806940F0B1
:1033600004002A4988610846C06940F40030C861F9
:103370002748006820F47F40254908600846006817
:1033800040F40B4008602148006940F400301F49B8
:1033900008610846006920F4003008611D48048077
:1033A000001D008842F20C0108431A49091D0880DB
:1033B0000846008840F4807008800846008840F085
:1033C0001000088013480838008813490880114805
:1033D000001F008808800F480838008820F010007F
:1033E0000C490839088026208DF8000003208DF84C
:1033F00001008DF8020001208DF803006846FEF7F9
:1034000051F9BDE8F88F000040420F000010024063
:103410000008014008440040440000202DE9F84F16
:1034200005460E463001FDF780F881463D4905FB13
:1034300001F0FDF77AF882464946FCF71FFF074680
:103440003846FDF777F884B22046FDF76EF88346DC
:103450003946FCF7DEFE82464FF08341FCF7DCFE86
:103460008146FDF767F880464FF6FF7000EA0414C6
:1034700004EB080084B22C48806940F008002A4917
:1034800088610846C06940F48020C8612748006808
:1034900020F47F40254908600846006840F40B404E
:1034A00008602148006940F480201F4908610846EF
:1034B000006920F4802008611D480480001D0088F8
:1034C00042F20C0108431A49091D08800846008889
:1034D00040F4807008800846008840F010000880A2
:1034E000134808380088134908801148001F0088D5
:1034F00008800F480838008820F010000C4908396F
:10350000088027208DF8000003208DF801008DF839
:10351000020001208DF803006846FEF7C3F8BDE8FD
:10352000F88F000040420F0000100240040C0140E0
:10353000084800404600002000C1814001C0804191
:1035400001C0804100C1814001C0804100C1814073
:1035500000C1814001C0804101C0804100C1814063
:1035600000C1814001C0804100C1814001C0804153
:1035700001C0804100C1814001C0804100C1814043
:1035800000C1814001C0804100C1814001C0804133
:1035900001C0804100C1814000C1814001C0804123
:1035A00001C0804100C1814001C0804100C1814013
:1035B00000C1814001C0804101C0804100C1814003
:1035C00000C1814001C0804100C1814001C08041F3
:1035D00001C0804100C1814000C1814001C08041E3
:1035E00001C0804100C1814001C0804100C18140D3
:1035F00000C1814001C0804100C1814001C08041C3
:1036000001C0804100C1814001C0804100C18140B2
:1036100000C1814001C0804101C0804100C18140A2
:1036200000C1814001C0804100C1814001C0804192
:1036300001C0804100C1814000C0C101C30302C27A
:10364000C60607C705C5C404CC0C0DCD0FCFCE0EE2
:103650000ACACB0BC90908C8D81819D91BDBDA1A52
:103660001EDEDF1FDD1D1CDC14D4D515D71716D6C2
:10367000D21213D311D1D010F03031F133F3F23232
:1036800036F6F737F53534F43CFCFD3DFF3F3EFEA2
:10369000FA3A3BFB39F9F83828E8E929EB2B2AEA12
:1036A000EE2E2FEF2DEDEC2CE42425E527E7E62682
:1036B00022E2E323E12120E0A06061A163A3A262F2
:1036C00066A6A767A56564A46CACAD6DAF6F6EAE62
:1036D000AA6A6BAB69A9A86878B8B979BB7B7ABAD2
:1036E000BE7E7FBF7DBDBC7CB47475B577B7B67642
:1036F00072B2B373B17170B05090915193535292B2
:1037000096565797559594549C5C5D9D5F9F9E5E21
:103710005A9A9B5B99595898884849894B8B8A4A91
:103720004E8E8F4F8D4D4C8C448485458747468601
:10373000824243834181804000000000000000007D
:103740000000000000000000000000000000000079
:103750000000000000000000000000000000000069
:103760000000000000000000000000000000000059
:103770000000000000000000000000000000C0C0C9
:10378000C0C00000000000000000000000000FFFAB
:10379000FF1F000000000000000000000000001FEC
:1037A0001F00000000000000000000000000060FE5
:1037B0000F0600000000000000000080E0783C1CC4
:1037C00080E0783C1C0000000000030100000003C2
:1037D00001000000000000000000000000000000E8
:1037E00000000000000000000000000000000000D9
:1037F00000000000000000000000000000C0000009
:1038000000000000C000000000383838F83F3838A9
:10381000383838F83F383800007070F0FF7070703A
:103820007070F0FF707070000000000F000000006A
:1038300000000F000000000000000000808040F049
:1038400040408080000000000000001E7FF0C0FFAC
:1038500000000C0F0F0000000000C0C0C00001FFFE
:1038600007071EFCF0000000000003070408087FA3
:10387000080C0603010000000080C040C08000006A
:10388000000000C0000000007EFF000000FF7E007E
:10389000E01C0300000000000001030283611C0320
:1038A000F8FE030103FEF8000000000C0300000016
:1038B00001070C080C07010000000080C04040C058
:1038C000000000000000000000007FFFC080603F9B
:1038D0000F00000000000000F8FC03030F3E78E03A
:1038E0008081710F010100000103060C0808080522
:1038F00003070E0C0C06030000001C1CFC780000E3
:1039000000000000000000000002030100000000B1
:1039100000000000000000000000000000000000A7
:103920000000000000000000000000000000000097
:103930000000000000000000000000000000000087
:103940000000C0603008040000000000000000F02B
:10395000FC0F010000000000000000000000001F3C
:103960007FE00000000000000000000000000000F8
:103970000001070C182040000004083060C000005F
:1039800000000000000000000000000000010FFC2B
:10399000F000000000000000000000000000E0FF58
:1039A0001F00000000000000004020180C0701006C
:1039B0000000000000000000000000000000000007
:1039C0000000000000000000000018383060408651
:1039D000FF8F4060303818000000181C0C0602F100
:1039E000FFE102060C1C18000000000000000000AF
:1039F00000000000000000000000000000000000C7
:103A000000000000000000000000000000000000B6
:103A1000FE000000000000000000010101010101A2
:103A2000FF01010101010100000000000000000091
:103A30000000000000000000000000000000000086
:103A40000000000000000000000000000000000076
:103A50000000000000000000000000000000000066
:103A600000000000000000000080C7473F1E00006B
:103A70000000000000000000000000000000000046
:103A80000000000000000000000000000000000036
:103A9000000000000000000000010101010101011F
:103AA000010101010101010000000000000000000F
:103AB0000000000000000000000000000000000006
:103AC00000000000000000000000000000000000F6
:103AD00000000000000000000000000000000000E6
:103AE00000000000000000000000060F0F060000AC
:103AF00000000000000000000000000000000000C6
:103B000000000000C070180000000000000000006D
:103B1000C0701C070100000000000000C0701C07FE
:103B2000010000000000000000301C070100000040
:103B30000000000000000000000000000080C04005
:103B400040408000000000000000F0FE0F01000077
:103B500000000107FEF0000000003FFFC000000071
:103B600000000080FF3F00000000000103060C0879
:103B700008080603010000000000000000000080AB
:103B8000C00000000000000000000001010101FF72
:103B9000FF0000000000000000000000000000FF27
:103BA000FF000000000000000000000808080C0FE3
:103BB0000F0C080808000000000000008040404092
:103BC0004040C0808000000000001E19000000007E
:103BD000000000C1FF3E00000000000080403018DF
:103BE0000C06030100C0000000000E0D0C0C0C0CB4
:103BF0000C0C0C0C0E0300000000008080404040C4
:103C000040C080000000000000000F0F0000000016
:103C10000080C17F3E0000000000C0C00000010124
:103C200001030206FCF00000000003070408080876
:103C30000808040603000000000000000000000067
:103C400000C0C00000000000000000008060100CF8
:103C500003FFFF000000000000302C262120202060
:103C600020FFFF20202000000000000000000808C6
:103C7000080F0F080808000000000000C0C0C0C006
:103C8000C0C0C0C0C0C00000000000FF00804040B5
:103C90004040C080000000000000C0C301000000E0
:103CA00000000001FFFC00000000030404080808F5
:103CB00008080407030000000000000000808040A6
:103CC00040404080800000000000E0FC0781C040D0
:103CD0004040C0830300000000007FFF830000001D
:103CE00000000001FFFC00000000000107060C08B6
:103CF00008080C0603000000000000C0C0C0C0C0DF
:103D0000C0C0C0C0C0C0000000000E030000000022
:103D100000E0180601000000000000000000C0FCE8
:103D200003000000000000000000000000000F0F72
:103D300000000000000000000000000080C04040C3
:103D40004040C0800000000000003E7FF1C0C08005
:103D5000000080417F1E000000F0FC0E0201010106
:103D600003070E1EFCF0000000010306040808080B
:103D70000808040603010000000000808040404065
:103D8000404080000000000000FCFF030000000035
:103D900000000003FEF80000000103070C080808FB
:103DA000080406E17F1F0000000007070808080854
:103DB0000C060301000000000000000000000000ED
:103DC0000000000000000000000000000000C0E053
:103DD000E0C0000000000000000000000000000142
:103DE0000100000000000000000000000000060FBD
:103DF0000F060000000000000000000000000000AE
:103E00000000000000000000000000000000C0C032
:103E1000C0000000000000000000000000000101E0
:103E200001000000000000000000000000006E7EA5
:103E30001E00000000000000000000000000000064
:103E400000000000804000000000000080402010C2
:103E50000804020100000000000000030408102014
:103E60004080000000000000000000000000000092
:103E70000000010204080000000000000000000033
:103E80000000000000000000002020202020202052
:103E9000202020202020200000080808080808080A
:103EA00008080808080808000000000000000000DA
:103EB0000000000000000000000040800000000042
:103EC00000000000000000000000000001020408E3
:103ED0001020408000000000000000000000804032
:103EE0002010080403000000000008040201000084
:103EF0000000000000000000000000008080404042
:103F0000404040808000000000003C3F390000003D
:103F100000000080C17F3E000000000000000000A3
:103F20003E03010100000000000000000000060F39
:103F30000F06000000000000000000000080C040EC
:103F4000404040800000000000E0FC0E0381E0786B
:103F50000C04F83C0106F800001FFFC0003F7F4042
:103F6000203C7F402018870000000003060408085A
:103F70000808080406030000000000000000C0C09C
:103F8000C00000000000000000000000C07C03032F
:103F90003FFC8000000000000000807C0F08080843
:103FA000080B7FF880000000080C0F0808000000D4
:103FB0000000080F0F0C0800004040C0C040404007
:103FC0004040C08080000000000000FFFF000000B3
:103FD000000080C17F3E0000000000FFFF010101E2
:103FE0000101010206FCF0000008080F0F08080894
:103FF0000808080C06030100000000000080C04013
:10400000404040808080000000E0FC1E0300000073
:104010000000000001030E00003FFFC00000000090
:10402000000000000000C0000000000306040808B3
:104030000808080402010000004040C0C0404040A1
:1040400040C0808000000000000000FFFF00000072
:10405000000000010FFCF000000000FFFF00000066
:1040600000000000C0FF1F000008080F0F0808082C
:10407000080C040303000000004040C0C040404062
:1040800040404040C0C00000000000FFFF000000B2
:10409000000080E000010600000000FFFF010101B8
:1040A0000101030F000080000008080F0F08080836
:1040B000080808080C0E0100004040C0C040404005
:1040C000404040C0C0C00000000000FFFF000000F2
:1040D000000080E000010600000000FFFF01010178
:1040E0000101031F000000000008080F0F0808006E
:1040F0000000000000000000000000008080404040
:10410000404080800000000000E0FC0E0300000042
:10411000000000030E000000001FFFC000000000B0
:10412000000404FCFC04040000000003060C080862
:1041300008080403030000004040C0C040400000E5
:1041400000004040C0C040400000FFFF00000000F1
:1041500000000000FFFF00000000FFFF010101015F
:1041600001010101FFFF000008080F0F080800000F
:10417000000008080F0F080800000040404040C041
:10418000C04040404000000000000000000000FF70
:10419000FF0000000000000000000000000000FF21
:1041A000FF00000000000000000000080808080FE1
:1041B0000F08080808000000000000000040404010
:1041C00040C0C0404040400000000000000000002F
:1041D00000FFFF00000000000000000000000000E1
:1041E00000FFFF00000000000070F0F0808080C041
:1041F000603F1F0000000000004040C0C040400081
:104200000040C0C040400000000000FFFF0080E010
:104210001806030000000000000000FFFF03000379
:104220000F3CF0C0000000000008080F0F08080055
:104230000000090F0E080800004040C0C0404000C8
:104240000000000000000000000000FFFF00000070
:104250000000000000000000000000FFFF00000060
:1042600000000000000080000008080F0F08080888
:10427000080808080C0E01004040C0C08000000083
:1042800000000080C0C040400000FF0FFFF00000B1
:1042900000807807FFFF00000000FF00011FFEC044
:1042A000F00F0000FFFF000008080F080000030FD8
:1042B000000008080F0F08084040C0C08000000040
:1042C0000000004040C040400000FF01071E78E0B1
:1042D0008000000000FF00000000FF00000000015F
:1042E000071E78E080FF000008080F0808000000A3
:1042F00000000001070F0000000000008080404027
:10430000404080800000000000F0FC0F0100000031
:10431000000000010FFCE000001FFFC000000000D3
:1043200000000000C0FF3F00000000030604080872
:104330000808040603000000004040C0C0404040A0
:10434000404040C080000000000000FFFF0000006F
:104350000000000081FF7E00000000FFFF0202025B
:1043600002020201010000000008080F0F08080007
:1043700000000000000000000000000080804040BD
:10438000404080800000000000F0FC0F01000000B1
:10439000000000010FFCF000003FFF808040404023
:1043A000C080000080FF3F000000010307040808F0
:1043B000080F3F7663611000004040C0C04040409D
:1043C0004040C08080000000000000FFFF000000AF
:1043D000000080C17F3E0000000000FFFF010101DE
:1043E000073FF9C0000000000008080F0F08080090
:1043F0000000010F0E08080000000080C04040408F
:1044000040C08080C0000000003E7FE1C0C08080CE
:10441000000000030F00000000E080000001010325
:104420000307061EFCF0000000000F060408080841
:1044300008080C06030100000000C0C0404040C056
:10444000C040404040C0000000060100000000FFE6
:10445000FF0000000001070000000000000000FF56
:10446000FF00000000000000000000000008080F2E
:104470000F080800000000004040C0C0404000009D
:1044800000004040C04040000000FFFF000000006E
:1044900000000000FF0000000000FFFF000000001F
:1044A00000000000FF00000000000107060C0808E3
:1044B0000808040201000000004040C0C0400000A5
:1044C00000000040C0C0400000000007FFF80000EE
:1044D000000080780700000000000000000FFFF0DF
:1044E0008078070000000000000000000000000FBE
:1044F000030000000000000040C0C040000040C0B9
:10450000C040000040C0C0400001FFF8000000F3C0
:10451000FFF80000C03F00000000003FFCE01E016B
:1045200001FFFCF00F000000000000000F0300007E
:1045300000000F0100000000004040C0C04000002B
:1045400000004040C040400000000001071E78E02D
:10455000C0300C030000000000000000806018075D
:104560000F7CF0C0000000000008080E0B080000DF
:104570000000090F0E0C08000040C0C0C040400001
:1045800000004040C0404000000000031F7CE0806D
:104590000080700E0100000000000000000003FF1A
:1045A000FE01000000000000000000000008080FED
:1045B0000F08080000000000000000C0C0C040401C
:1045C00040404040C0C04000000006030100000021
:1045D000C0F0380E0701000000000080C0703C0FE2
:1045E000030000000000800000080E0F0908080802
:1045F0000808080C0C0F0100000000000000F8F88B
:104600000808080808080000000000000000FFFF7C
:104610000000000000000000000000000000FFFF9C
:1046200000000000000000000000000000003F3F0C
:10463000202020202020000000000060E00000007A
:10464000000000000000000000000000010F3CE03E
:1046500080000000000000000000000000000001D9
:10466000073CF0C000000000000000000000000057
:10467000000001073E78400000000808080808080C
:10468000F8F800000000000000000000000000003A
:10469000FFFF00000000000000000000000000001C
:1046A000FFFF00000000000000002020202020204C
:1046B0003F3F0000000000000000000020101C0C24
:1046C0000C0C18200000000000000000000000009A
:1046D00000000000000000000000000000000000DA
:1046E00000000000000000000000000000000000CA
:1046F00000000000000000000000000000000000BA
:1047000000000000000000000000000000000000A9
:104710000000000000000000000000000000000099
:104720000000000000000000808080808080808089
:1047300080808080808080800000000404040C0859
:104740001000000000000000000000000000000059
:104750000000000000000000000000000000000059
:104760000000000000000000000000000000000049
:104770000000000000000000000000000000000039
:104780000000000000000000000080C04020202049
:10479000202060C08000000000C0E333101808082B
:1047A000080804FFFF0000000003070C08080808C1
:1047B000080404070F080806004040C0E00000009D
:1047C0000000000000000000000000FFFF8040200B
:1047D000202060C0C0000000000000FFFF010000BA
:1047E00000000000FFFF00000000000F070608089F
:1047F00008080C0603000000000000000000000094
:10480000000000000000000000000000C0C06020A8
:10481000202020C0800000000000FEFF01000000FA
:1048200000000003038000000000000307040808E4
:104830000808080402010000000000000000000059
:10484000004040C0E000000000000080C060202068
:10485000202040FFFF0000000000FEFF01000000DC
:10486000000000FFFF00000000000003060C080825
:104870000804020F0704040000000000000000000C
:10488000000000000000000000000000C0402020E8
:10489000202040C0800000000000FEFF111010101A
:1048A000101010101F1E00000000000307040C0869
:1048B0000808080406010000000000000000008055
:1048C0008040404040C08000000020202020FEFFAB
:1048D0002020202020030300000000000000FFFF34
:1048E00000000000000000000000000808080F0F92
:1048F0000808080800000000000000000000000098
:10490000000000000000000000000000C040202067
:10491000202060C0A0606000000000C7FF302020A1
:104920002020301F0F0000000000387D4783838364
:10493000838382467E3C0000004040C0E0000000CF
:104940000000000000000000000000FFFF80402089
:10495000202060C080000000000000FFFF00000079
:10496000000000FFFF0000000008080F0F0808000B
:104970000008080F0F08080000000000000080C0B9
:10498000C08000000000000000000020202020E186
:10499000F10000000000000000000000000000FF27
:1049A000FF00000000000000000000080808080FD9
:1049B0000F080808080000000000000000000000C8
:1049C0000080C0C0C00000000000000000002020E7
:1049D0002020E1F1000000000000000000000000C5
:1049E0000000FFFF0000000000000060E080808009
:1049F00080603F1F00000000004040C0E000000059
:104A00000000000000000000000000FFFF000000A8
:104A10000020E06020200000000000FFFF30180CA4
:104A20003E71C080000000000008080F0F08080059
:104A30000000090F0E0C080000000040404040C07C
:104A4000E00000000000000000000000000000FF87
:104A5000FF0000000000000000000000000000FF58
:104A6000FF00000000000000000000080808080F18
:104A70000F08080808000000000000000000000007
:104A8000000000000000000020E0F040202020E0B6
:104A9000C040202020E0C00000FFFF00000000FF19
:104AA000FF00000000FFFF00080F0F080000080FC4
:104AB0000F080000080F0F080000000000000000B1
:104AC0000000000000000000004040C0E0804020E6
:104AD000202060C080000000000000FFFF000000F8
:104AE000000000FFFF0000000008080F0F0808008A
:104AF0000008080F0F080800000000000000000078
:104B0000000000000000000000000000C040202065
:104B1000202040C0800000000000FCFF01000000D9
:104B200000000001FFFE0000000000030704080869
:104B30000808040703000000000000000000000057
:104B40000000000000000000004040C0E080402065
:104B5000202060C080000000000000FFFF00000077
:104B600000000000FFFE0000008080FFFF86840838
:104B700008080C070300000000000000000000000F
:104B8000000000000000000000000080C040202065
:104B90002060C0C0E00000000000FEFF0100000037
:104BA000000000FFFF00000000000003060C0808E2
:104BB000088486FFFF8080000000000000000000E5
:104BC00000000000000000000040404040E0E00025
:104BD0008040402020E0C0000000000000FFFF03F4
:104BE000010000000000000000080808080F0F087E
:104BF000080808000000000000000000000000009D
:104C000000000000000000000000000080C06020E4
:104C100020202040C0E0000000000080070F0C189A
:104C200018383070E0C300000000000F06040808C8
:104C30000808080C07030000000000000000000046
:104C40000000000000000000000020202030F8FFDD
:104C50002020202020000000000000000000FFFFB6
:104C6000000000000000000000000000000003073A
:104C70000C08080804030000000000000000000009
:104C80000000000000000000002020E0F000000014
:104C9000002020E0F0000000000000FFFF00000006
:104CA000000000FFFF00000000000003070C0808E0
:104CB0000804020F070404000000000000000000C8
:104CC0000000000000000000002020E0E0200000C4
:104CD00000002020E060200000000001073EF0C03E
:104CE00000C0380701000000000000000000010FB4
:104CF00007010000000000000000000000000000AC
:104D000000000000000000002060E020200020E003
:104D1000E020000020E060200000077FF080F00F1E
:104D20001FFCC0C03C03000000000000070F000093
:104D300000010F0300000000000000000000000060
:104D4000000000000000000000002020E0E0A000C3
:104D5000002020E020200000000000000081473EED
:104D600038E6C100000000000008080C0E09000031
:104D70000008090F0E0808000000000000000000F5
:104D80000000000000000000002020E0E020000003
:104D9000000020E06020200000000000031E78C01A
:104DA00000E01C03000000000000C0C0C0C0601F85
:104DB00003000000000000000000000000000000F0
:104DC00000000000000000000000E0E020202020A3
:104DD0002020E0E0600000000000030080C0F03808
:104DE0001E0703000080000000000C0E0B090808DD
:104DF0000808080C0E03000000000000000000007E
:104E00000000F008040400000000000000000000A2
:104E100080807F0000000000000000000000000112
:104E20000102FC0000000000000000000000000083
:104E300000001F20404000000000000000000000B3
:104E4000FF00000000000000000000000000000063
:104E5000FF00000000000000000000000000000053
:104E6000FF00000000000000000000000000000043
:104E7000FF00000000000000000000040408F00033
:104E800000000000000000000000000000007F8023
:104E90008000000000000000000000000000FC0294
:104EA00001010000000000000000004040201F0041
:104EB0000000000000000000001804020202060CBE
:104EC0003820604040201800000000000000000072
:104ED00000000000000000000000000000000000D2
:104EE00000000000000000000000000000000000C2
:104EF00000000000000000000000000000000000B2
:104F000000000000000000000000000000000000A1
:104F10000000000000000000000000000000000091
:104F20000000000000000000000000000000000081
:104F30000000000000000000000000000000000071
:104F40000000000000000000000000000000000061
:104F50000000000000000000000000000000000051
:104F60000000000000000000000000000000000041
:104F70000000000000000000000000000000000031
:104F80000000000000000000000000000000000021
:104F90000000000000000000000000000000000011
:104FA0000000000000000000000000000000000001
:104FB00000000000000000000000000000000000F1
:104FC00000000000000000000000000000000000E1
:104FD00000000000000000000000000000000000D1
:104FE00000000000FCFEFEFC0000000000000000CD
:104FF00000000000000000000000000000000000B1
:105000000FFFFF1F00000000000000000000000074
:1050100000000000000000000000000000FFFF0092
:105020000000000000000000000000000000000080
:105030000000000000000000000F0F000000000052
:105040000000000000000000000000000000000060
:1050500000000078FCFCFCFC780000000000000070
:105060000000000000000000000000000000000040
:105070000000000000000000000000000000000030
:10508000000000000000000000C0F0F8F8F8700018
:105090000000C0F0F8F8F870000000000000000008
:1050A00080E0703C1F0F07030180E0703C1F0F077A
:1050B00003010000000000000000000001000000EB
:1050C00000000000000100000000000000000000DF
:1050D00000000000000000000000000000000000D0
:1050E00000000000000000000000000000000000C0
:1050F00000000000000000000000000000000000B0
:10510000000000000000000000000000000000009F
:10511000000000000000000000000000000000008F
:10512000000000000000000000000000000000007F
:10513000000000000000000000000000000000006F
:10514000000000000000000000000000000000005F
:10515000000000000000000000000000000000004F
:105160000000000000000000FEFE00000000000043
:105170000000000000FE7E000000000000007C7CBB
:105180007C7C7CFCFF7F7C7C7C7C7C7C7C7C7C7C59
:10519000FFFF7C7C7C7C000000000000000000FF22
:1051A000FF00000000000000000000F0FF0F000002
:1051B0000000000000007C7C7C7CFCFF7F7C7C7C11
:1051C0007C7C7C7C7C7C7CFFFF7C7C7C7C7C000011
:1051D000000000000000FFFF0000000000000000D1
:1051E0000000FEFF010000000000000000000000C1
:1051F00000000000000000000000000000000000AF
:10520000000000000000000000000000000000009E
:105210000000000000C0C00000000000000000000E
:1052200000000000000000000000C0E0F078181C42
:105230000CFFFF0C0C1C38F8F0E0C0000000000070
:1052400000000000001FFFFFFFF0C08000FFFF0014
:1052500000000E0F0F0F070000000000000000000C
:105260000000000103070F1F1FFFFFFCF8F0E0C064
:10527000800000000000000000000000C0E0E0E04E
:10528000E000000000FFFF0001030FFFFFFEF80039
:105290000000000000000000071F3F3F7160C0C019
:1052A000C0FFFFC0E060783F1F0F03000000000058
:1052B000000000000000000000000000003F3F0070
:1052C00000000000000000000000000000000000DE
:1052D00000000000000000000000000000000000CE
:1052E00000000000000000000080F0F81C06020230
:1052F000060CF8F0800000000000C0F81E06000058
:105300000000000000FFFFFF000000000000FFFFA2
:10531000FF0000E0781F0300000000000000000014
:10532000000003070E181010180E0F83E03C0F0347
:1053300080C0E030101030E0C080000000000000AD
:105340000000000080F03C07010000FCFFFF0000AF
:1053500000000000FFFFFC000000000000C0F01E85
:1053600007000000000000031F3F70C08080C07075
:105370007F1F070000000000000000000000000088
:10538000000000000000000000000000000000001D
:10539000000000000000000000000000000000000D
:1053A00000000000000000000000000000000000FD
:1053B00000C0F0F80C06020206FEFCF8E000000057
:1053C000000000000000000000000000003FFFFFA0
:1053D000E0000080F0FF7F3F0700000000000000B9
:1053E00000000000000000C0E0F01F3FFFFEFBC314
:1053F0000100000004040CFCFC0C04040400000088
:1054000000FCFFFFFF00000000030F3FFFFCF0C0A7
:1054100080C0FC1F010000000000000000030F1FFF
:105420003F7E70E0E0C0C0C04061371F1F3F7C7806
:10543000F0E0E0E070380C00000000000000000028
:10544000000000000000000000000000000000005C
:10545000000000000000000070F8F8F8F8F0E0002C
:10546000000000000000000000000000000000003C
:105470000000000080C0E0713F1F0300000000003A
:10548000000000000000000000000000000000011B
:10549000010000000000000000000000000000000B
:1054A00000000000000000000000000000000000FC
:1054B00000000000000000000000000000000000EC
:1054C00000000000000000000000000000000000DC
:1054D00000000000000000000000000000000000CC
:1054E00000000000000000000000000000000000BC
:1054F00000000000000000000000000000000000AC
:10550000000000000000000000000000000000009B
:10551000000000000000000000000000000000008B
:1055200000000000000000000000000080E0703873
:10553000100000000000000000000000000000005B
:10554000000000C0F0781E0703000000000000000B
:1055500000000000000000000000000080F8FF3F95
:105560000300000000000000000000000000000038
:105570000000000000000000FFFFFF00000000002E
:10558000000000000000000000000000000000001B
:1055900000000000033FFFFCC0000000000000000E
:1055A00000000000000000000000000000000000FB
:1055B000000000030F3E78E0C00000000000000083
:1055C00000000000000000000000000000000000DB
:1055D0000000000001070E1C080000000000001081
:1055E0003870E080000000000000000000000000B3
:1055F00000000000000000000000000000000003A8
:10560000071E78F0C000000000000000000000004D
:105610000000000000000000000000000000000387
:105620003FFFF880000000000000000000000000C4
:1056300000000000000000000000000000FFFFFF6D
:10564000000000000000000000000000000000005A
:1056500000000000000000C0FCFF3F03000000004D
:10566000000000000000000000000000000000C07A
:10567000E0783E0F03000000000000000000000082
:1056800000000000000000081C0E070100000000E0
:10569000000000000000000000000000000000000A
:1056A00000000000000000000000000000000000FA
:1056B00000000000000000000000000000000000EA
:1056C000000000000000000080C0C0C0000000001A
:1056D00000000000000000000000E0F0F0F0E0C07A
:1056E000800000001FFFFF3F00000080C0E0F0F0DE
:1056F000F0E00000000000008181C3C3C3E76664DE
:105700003CFFFF3C6666E7C3C3C381810000000025
:105710000000070F0F0F070301000000FCFFFFF858
:105720000000000103070F0F0F0F00000000000032
:10573000000000000000000003030301000000005F
:105740000000000000000000000000000000000059
:105750000000000000000000000000000000000049
:105760000000000000000000000000000000000039
:105770000000000000000000000000000000000029
:105780000000000000000000000000000080800019
:105790000000000000000000000000000000000009
:1057A000000000000000000000FFFF0000000000FB
:1057B0000000000000000000000018181818181859
:1057C0001818181818FFFF1818181818181818188B
:1057D0001818000000000000000000000000000099
:1057E00000FFFF00000000000000000000000000BB
:1057F00000000000000000000000000000010100A7
:105800000000000000000000000000000000000098
:105810000000000000000000000000000000000088
:105820000000000000000000000000000000000078
:105830000000000000000000000000000000000068
:105840000000000000000000000000000000000058
:105850000000000000000000000000000000000048
:105860000000000000000000000000000000000038
:105870000000000000000000000000000000000028
:105880000000000000000000000000000000000018
:105890000000000000000000000000000000000008
:1058A00000000000000000000000000000000000F8
:1058B00000000000000000001C3E3E7EFEFCF800E0
:1058C00000000000000000000000000000000000D8
:1058D000000000406030381C0F070000000000008E
:1058E00000000000000000000000000000000000B8
:1058F00000000000000000000000000000000000A8
:105900000000000000000000000000000000000097
:105910000000000000000000000000000000000087
:105920000000000000000000000000000000000077
:105930000000000000000000000000000000000067
:105940000000181818181818181818181818181807
:105950001818181818181818181800000000000057
:105960000000000000000000000000000000000037
:105970000000000000000000000000000000000027
:105980000000000000000000000000000000000017
:105990000000000000000000000000000000000007
:1059A00000000000000000000000000000000000F7
:1059B00000000000000000000000000000000000E7
:1059C00000000000000000000000000000000000D7
:1059D00000000000000000000000000000000000C7
:1059E00000000000000000000000000000000000B7
:1059F00000000000000000000000000000000000A7
:105A00000000000000000000000000000000000096
:105A10000000000000000000000000000000000086
:105A20000000000000000000000000000000000076
:105A30000000000000000000000000000000000066
:105A4000387CFEFEFE7C38000000000000000000F4
:105A50000000000000000000000000000000000046
:105A60000000000000000000000000000000000036
:105A70000000000000000000000000000000000026
:105A80000000000000000000000080E0F0200000A6
:105A90000000000000000000000000000000000006
:105AA000000000C0F87E0F030000000000000000AE
:105AB0000000000000000000000000C0F07C1F0794
:105AC00001000000000000000000000000000000D5
:105AD00000000080E0FC3F07010000000000000023
