:020000040800F2
:100000007023002015020008651100086D1000081B
:10001000611100080D0400085520000800000000D0
:100020000000000000000000000000005D18000853
:10003000550D0008000000003F1600087119000867
:100040002F0200082F0200082F0200082F020008CC
:100050002F0200082F0200082F0200082F020008BC
:100060002F0200082F0200082F0200082F020008AC
:100070005D08000899080008B9080008F50800089C
:1000800025090008450900082F0200082F02000872
:100090002F0200082F0200082F0200082F0200087C
:1000A0002F0200082F0200082F0200082F0200086C
:1000B000D5190008451A00082F0200082F02000871
:1000C0002F0200082F0200082F020008CD1600089A
:1000D0002F020008851C0008D51D0008311F0008EC
:1000E0002F0200082F0200082F0200082F0200082C
:1000F0002F0200082F0200082F0200082F0200081C
:100100002F0200082F0200082F0200082F0200080B
:100110002F0200082F0200082F0200082F020008FB
:100120002F0200082F0200082F0200082F020008EB
:1001300000F002F800F05EF80AA090E8000C82449B
:100140008344AAF10107DA4501D100F053F8AFF278
:10015000090EBAE80F0013F0010F18BFFB1A43F0A5
:10016000010318472CFC00004CFC000010F8013B78
:100170000A4413F0030408BF10F8014B1D1108BF17
:1001800010F8015B641E05D010F8016B641E01F8C5
:10019000016BF9D1002D15D010F8014B03F00C03C1
:1001A0000C2BA1EB04040ABF10F8013BA4EB831451
:1001B000A4EB032405F1010314F8016B5B1E01F8A5
:1001C000016BF9D5914238BF10F8013BD1D370478C
:1001D0000023002400250026103A28BF78C1FBD850
:1001E000520728BF30C148BF0B6070471FB51FBD05
:1001F00010B510BD00F031F81146FFF7F7FF02F01F
:10020000B7FC00F04FF803B4FFF7F2FF03BC00F0B7
:1002100057F800000948804709480047FEE7FEE715
:10022000FEE7FEE7FEE7FEE7FEE7FEE7FEE7FEE7A6
:1002300004480549054A064B704700007519000837
:1002400031010008701D002070230020701F002065
:10025000701F0020704770477047754600F02CF8FB
:10026000AE4605006946534620F00700854618B0A3
:1002700020B5FFF7DDFFBDE820404FF000064FF04E
:1002800000074FF000084FF0000B21F00701AC46CB
:10029000ACE8C009ACE8C009ACE8C009ACE8C009EA
:1002A0008D46704710B50446AFF300802046BDE888
:1002B0001040FFF7A8BF000000487047101D002045
:1002C00001491820ABBEFEE726000200704700007F
:1002D0004A48806940F010004849886148480068F1
:1002E00020F00F00464908604448806940F40070DF
:1002F000424988610846C06840F40070C8600846FA
:10030000C06820F40070C8600846406820F440408F
:1003100048600846406840F400404860394800683A
:1003200039490840374908600846006808600846AF
:10033000006820F480700860081D006820F002004A
:10034000091D08600846006820F46020086008461F
:10035000006840F4602008600846006840F480109F
:1003600008600846006820F40060086025482830CE
:10037000006820F4700023492831086008460068AE
:10038000086020480C30006820F038001D490C310E
:1003900008600846006840F038000860081F0068E0
:1003A00020F4E010091F08600846006840F4E010DF
:1003B0000860081F006840F00100091F0860084637
:1003C000006840F00800086000BF0E48001D00688B
:1003D00000F008000028F8D10A48001D006840F02D
:1003E00004000849091D086000BF0648001D006898
:1003F00000F004000028F8D170470000001002400F
:100400000010014004240140FFFFF00000BFFEE7A0
:100410002DE9F04385B004460D4616461F46DDF82B
:1004200030904FF0000814B10DB106B11FB9012092
:1004300005B0BDE8F083601EC4B2681EC5B2701E70
:10044000C6B2781E87B20121480601F009F90121E0
:10045000042001F015F94FF40060ADF810004820B9
:100460008DF8130004A9454800F075FC4FF4805046
:10047000ADF8100018208DF8130003208DF812003D
:1004800004A93E4800F067FC00203D49086008468A
:10049000006840F00100086008E008F101001FFA60
:1004A00080F8B8F1640F01DD0220C1E7344800682C
:1004B00000F001000028F0D03148006830490860A1
:1004C0000846006808600846006840F010000860B0
:1004D000084600680860084600680860002028494F
:1004E0001C3108600846006840EA897008600846C8
:1004F000006840EA046008600846006840EA055069
:1005000008600846006840EA06400860084600683F
:10051000384308601A48006820F001001849086054
:1005200009E008F101001FFA80F84FF6F0708045ED
:1005300001DD03207CE71248006800F0010000287C
:10054000EFD101208DF80A0000208DF80B0001206A
:100550008DF80C000020ADF80000ADF80600ADF8F5
:100560000400ADF80600ADF8080001208DF80D007C
:10057000684600F0EFF800205AE70000000801404C
:1005800000640040F8B506460D460024082300220A
:1005900011463046009500F015F8074601E0601C52
:1005A00084B2384600F094F8072803D040F6FF7074
:1005B0008442F4DB40F6FF70844201DB0120F8BD89
:1005C0000020FCE7F0B505460E46059C3E48006855
:1005D00000F0806008B100210FE03B48006800F0A7
:1005E000006008B1012108E03748006800F0805041
:1005F00008B1022101E0FF20F0BD0027334800EBE5
:10060000011007601EB9C5F30A056D0502E025F06B
:100610006045ED002D4800EB0110006828432B4F8A
:1006200007EB01173860294800EB0110006840EA29
:100630008607264800EB01100760244800EB0110F4
:10064000006840EA4207214800EB0110076003F010
:100650000F031E4800EB0110406820F00F071B48F5
:1006600000EB01104760194800EB01104068184387
:10067000164F07EB01177860E0790006A77940EA8A
:100680000740677940EA0727207907430F4800EBC6
:100690000110C760E0780006A77840EA0740677855
:1006A00040EA072027783843084F07EB0117B86066
:1006B000064800EB0110006840F00107034800EB1A
:1006C00001100760084697E7086400408065004015
:1006D0000146002021B1012913D0022933D121E0A4
:1006E0001B4A126802F001021043194A126802F014
:1006F00002021043164A126802F0806240EA126059
:1007000023E0134A126802F001021043104A1268F3
:1007100002F0020210430E4A126802F0006240EA40
:10072000526012E00A4A126802F001021043084ABD
:10073000126802F002021043054A126802F0805269
:1007400040EA926001E0052000BF00BF7047000052
:100750000864004010B50021837A012202FA03F1F7
:100760003D4A126842F001023B4B1A603A4A1C3281
:1007700012688A43384B1C331A60027BCAB9364A66
:100780000C3212688A43344B0C331A604288C38897
:1007900042EA0343304A4032847A42F834300288D5
:1007A000838842EA03432C4A4032847A02EBC40233
:1007B0005360027B012A19D1274A0C3212680A437E
:1007C000254B0C331A604288038842EA0343224ACD
:1007D0004032847A42F83430C288838842EA034344
:1007E0001D4A4032847A02EBC4025360C27A3AB99D
:1007F000194A121D12688A43174B1B1D1A6006E026
:10080000154A121D12680A43134B1B1D1A600289F8
:1008100032B9114A143212688A430F4B14331A60EA
:100820000289012A06D10C4A143212680A430A4B83
:1008300014331A60427B012A06D1074A1C3212681F
:100840000A43054B1C331A60034A126822F0010266
:10085000014B1A6010BD0000006600400B48406864
:1008600040F02000094948600846406840F40070A4
:1008700048600748008820F0800005490880054846
:100880000078401C034908707047000000000240D7
:10089000144800404100002010B54FF4007000F0F3
:1008A0008FF838B14FF4007000F070F84FF400701A
:1008B00000F05EF810BD00000B48406840F40050A6
:1008C000094948600846406840F48050486007483D
:1008D000008820F080000549088005480078401C09
:1008E00003490870704700000000024014380140BE
:1008F0003D00002010B50A48406840F40030084927
:1009000048604FF4003000F05BF840B1002104482B
:10091000583000F049F84FF4003000F037F810BDBF
:100920000000024010B54FF4001000F049F828B163
:100930000348406840F400300149486010BD0000A1
:10094000000002400848406840F0007006494860D6
:100950000846406840F0807048600448008820F0F5
:1009600080000249088070470000024014440040A3
:1009700000F0805111B10349086001E0024948606C
:1009800070470000040402400000024000F0805163
:1009900011B10349086001E0024948607047000056
:1009A000040402400000024021B1026842F001024A
:1009B000026004E002684FF6FE731A40026070475E
:1009C00001460020002201F0805313B1054B1A6844
:1009D00001E0054B1A6802EA01030BB1012000E0B7
:1009E000002070470004024000000240F8B50446B1
:1009F0000F4616461D460121084600F021FE2148FB
:100A0000406940F001001F494861A760E6601E4848
:100A10000580656000202060206840F002002060B2
:100A2000206820602068206020682060206840F0F6
:100A3000800020602068206020682060206840F4EA
:100A400080502060206820601048008840F04000FE
:100A50000E490880206840F001002060206840F0C6
:100A6000020020600F208DF8000003208DF80100A7
:100A70008DF8020001208DF80300684600F07AFB33
:100A8000F8BD00000010024018000020143801409A
:100A9000F8B504460F4616461D460121084600F0EB
:100AA000CFFD1A48406940F0010018494861A7602D
:100AB000E66017480580656000202060206840F0EF
:100AC000100020602068206020682060206840F0CE
:100AD00080002060206820602068206020682060FE
:100AE00020682060206840F0020020600E208DF811
:100AF000000003208DF801008DF8020001208DF820
:100B00000300684600F036FBF8BD0000001002400C
:100B100018000020F8B504460F4616461D46012170
:100B2000084600F08DFD1F48406940F001001D4956
:100B30004861A760E6601C48058065600020206071
:100B4000206840F00200206020682060206820605B
:100B500020682060206840F08000206020682060CD
:100B600020682060206840F4805020602068206069
:100B70000E48008840F040000C490880206840F092
:100B80000100206010208DF8000003208DF8010086
:100B90008DF8020001208DF80300684600F0EAFAA3
:100BA000F8BD0000001002401A000020144400406C
:100BB000F8B504460F4616461D460121084600F0CA
:100BC0003FFD1A48406940F0010018494861A7609C
:100BD000E66017480580656000202060206840F0CE
:100BE000100020602068206020682060206840F0AD
:100BF00080002060206820602068206020682060DD
:100C000020682060206840F00200206011208DF8EC
:100C1000000002208DF801008DF8020001208DF8FF
:100C20000300684600F0A6FAF8BD0000001002407C
:100C30001A000020F8B504460F4616461D4601214D
:100C4000084600F0FDFC1F48406940F001001D49C6
:100C50004861A760E6601C48058065600020206050
:100C6000206840F00200206020682060206820603A
:100C700020682060206840F08000206020682060AC
:100C800020682060206840F4805020602068206048
:100C90000E48008840F040000C490880206840F071
:100CA000010020600D208DF8000003208DF8010068
:100CB0008DF8020001208DF80300684600F05AFA12
:100CC000F8BD0000001002401A0000201448004047
:100CD000F8B504460F4616461D460121084600F0A9
:100CE000AFFC1A48406940F0010018494861A7600C
:100CF000E66017480580656000202060206840F0AD
:100D0000100020602068206020682060206840F08B
:100D100080002060206820602068206020682060BB
:100D200020682060206840F0020020600C208DF8D0
:100D3000000003208DF801008DF8020001208DF8DD
:100D40000300684600F016FAF8BD000000100240EB
:100D50001A00002070472DE9F041024600250026C8
:100D6000002000230024002791F803C00CF00F0599
:100D700091F803C00CF0100CBCF1000F03D091F8F7
:100D800002C04CEA050591F800C0BCF1000F31D05B
:100D9000146800202BE04FF0010C0CFA00F3B1F8BE
:100DA00000C00CEA03069E4220D183004FF00F0CD6
:100DB0000CFA03F7BC4305FA03FC4CEA040491F86F
:100DC00003C0BCF1280F06D14FF0010C0CFA00FC57
:100DD000C2F814C00AE091F803C0BCF1480F05D175
:100DE0004FF0010C0CFA00FCC2F810C0401C08289F
:100DF000D1D31460B1F800C0BCF1FF0F34DD5468EA
:100E000000202EE000F1080C4FF0010808FA0CF366
:100E1000B1F800C00CEA03069E4221D183004FF0D6
:100E20000F0C0CFA03F7BC4305FA03FC4CEA04046C
:100E300091F803C0BCF1280F05D100F1080C08FAA5
:100E40000CF8C2F8148091F803C0BCF1480F07D128
:100E500000F1080C4FF0010808FA0CF8C2F81080F5
:100E6000401C0828CED35460BDE8F081F0B50A4696
:100E7000002300240021002500F00046B6F1004FB9
:100E800002D11D4EF16901E01B4E7168C0F30345AC
:100E900083B200F44016B6F5401F08D121F070610E
:100EA000154E766826F07066134F7E6012E000F4EF
:100EB0008016B6F5801F06D1032606FA05F4A14375
:100EC00041F0706106E0460D360103FA06F6B143C3
:100ED00041F0706122B1460D360103FA06F6314346
:100EE00000F00046B6F1004F02D1034EF16101E07F
:100EF000014E7160F0BD000000000140416170478B
:100F0000016170472DE9FC4782464C480078002873
:100F10007DD14B48006820F00F0049490860084621
:100F2000006840F00A00086045482C38006840F42A
:100F3000800043492C39086041483438006800F08B
:100F4000020060B13F480088401C3E4908803C4890
:100F5000183000683C49096808443B490860394832
:100F60000088504560DB38480068B0FBFAF036492D
:100F7000086008460088354908800020324908602A
:100F80003049088003202D49087030480088B0F5AA
:100F90007A7F04DA00202E4908602E4908602B4829
:100FA0000088B0F57A7F2ADB2848008802F0D2FC5E
:100FB000804602F05FFB06460022274B02F070FAE3
:100FC000044602F017F8224908600846006802F05B
:100FD00051FB04460D461E48006802F04BFB002200
:100FE0001E4BCDE9000102F027F9064622462B46AA
:100FF00002F032F8804601F0FDFF164908601548FE
:10100000006802F037FB04460022154B00E00BE0BD
:1010100002F010FA02D213480E4908600D48006829
:1010200002F078FC1049088004480078022802DBAE
:10103000002002490870BDE8FC8700006A08002013
:101040003424014066080020600800206408002065
:101050006C0800207008002000408F400000E03F36
:101060000040AF4000007A456808002000BFFEE75E
:1010700008B501210D2000F003FB0121702000F0D4
:10108000FFFA3020ADF8000048208DF803006946D3
:101090001448FFF760FE40F2C330ADF8000048206E
:1010A0008DF8030069461048FFF755FE4FF49F4046
:1010B000ADF800004BF20300ADF8000048208DF8B9
:1010C000030069460948FFF746FE4FF4DE50ADF8CD
:1010D000000048208DF8030069460548FFF73BFEF5
:1010E00008BD000000100140000C01400018014044
:1010F0000014014008B50121202000F0C1FA0121AF
:101100001548FFF7B3FE0121202000F0B9FA4FF493
:101110008040ADF8000010208DF8030003208DF80A
:10112000020069460D48FFF716FE4FF480410B4858
:10113000FFF7E6FE2020ADF8000010208DF8030038
:1011400003208DF8020069460448FFF704FE2021C1
:101150000248FFF7D5FE08BD000230000014014030
:1011600000BFFEE7704710B54FF4A06000F03AF8FA
:1011700010BD000070B5002100230F22C47804B315
:10118000154C246804F4E064C4F5E064210AC1F15C
:101190000403CA40447804FA03F1847814402143DC
:1011A00009010E4C0678A155047804F01F050124AE
:1011B000AC4005786D11AD0005F1E025C5F80041A2
:1011C00009E0047804F01F050124AC40044D0678C2
:1011D000761145F8264070BD0CED00E000E400E01B
:1011E00080E100E002490143024A116070470000BB
:1011F0000000FA050CED00E070B5002419E004F1E0
:10120000B001C8B2002100F0D1F90021022000F0A5
:10121000CDF90021102000F0C9F9002505E00121D9
:10122000002000F0C3F9681CC5B2802DF7DB601CFC
:10123000C4B2082CE3DB70BD08B50121292000F001
:101240001FFA01215448FFF711FE2820ADF80000D5
:1012500010208DF8030003208DF8020069464F48E6
:10126000FFF779FD0E20ADF8000010208DF8030087
:1012700003208DF8020069464948FFF76CFD022102
:101280004748FFF73DFE642000F0B0FF02214448CC
:10129000FFF734FE642000F0A9FF02214048FFF769
:1012A0002FFE0021AE2000F081F90021022000F085
:1012B0007DF90021102000F079F90021402000F094
:1012C00075F90021812000F071F90021CF2000F094
:1012D0006DF90021A12000F069F90021C82000F07B
:1012E00065F90021A62000F061F90021A82000F096
:1012F0005DF900213F2000F059F90021D32000F0D2
:1013000055F90021084600F051F90021D52000F0E0
:101310004DF90021802000F049F90021D92000F08A
:1013200045F90021F12000F041F90021DA2000F018
:101330003DF90021122000F039F90021DB2000F0F6
:1013400035F90021402000F031F90021202000F083
:101350002DF90021022000F029F900218D2000F054
:1013600025F90021142000F021F90021A42000F02B
:101370001DF90021A62000F019F90021AF2000F08E
:1013800015F90021AF2000F011F9FFF735FF00211A
:10139000084600F007F808BD00023000000C0140CC
:1013A0000014014070B504460D4605F1B001C8B205
:1013B000002100F0FBF8102141EA1410002100F098
:1013C000F5F804F00F0141F00100002100F0EEF803
:1013D00070BD00002DE9F04107460E4690460025FD
:1013E0000024A8F12000C5B27F2F02DD0027B01C29
:1013F000C6B231463846FFF7D5FF002408E004EBBB
:101400000521484A505C012100F0D0F8601CC4B2AC
:10141000202CF4DB701CC1B23846FFF7C3FF002458
:1014200009E004EB052120313E4A505C012100F027
:10143000BDF8601CC4B2202CF3DBB01CC1B238462E
:10144000FFF7B0FF002409E004EB05214031354AE5
:10145000505C012100F0AAF8601CC4B2202CF3DB20
:10146000F01CC1B23846FFF79DFF002409E004EBF1
:10147000052160312B4A505C012100F097F8601C77
:10148000C4B2202CF3DB301DC1B23846FFF78AFF0F
:10149000002409E004EB05218031224A505C01213F
:1014A00000F084F8601CC4B2202CF3DB701DC1B2C4
:1014B0003846FFF777FF002409E004EB0521A0314F
:1014C000184A505C012100F071F8601CC4B2202C55
:1014D000F3DBB01DC1B23846FFF764FF002409E01A
:1014E00004EB0521C0310F4A505C012100F05EF889
:1014F000601CC4B2202CF3DBF01DC1B23846FFF7EC
:1015000051FF002409E004EB0521E031054A505C5D
:10151000012100F04BF8601CC4B2202CF3DBBDE8C5
:10152000F08100008E9E00082DE9FF5F074691467E
:101530001D460E9E4FF0000A002433E0281B401E7B
:10154000C1B20A2001F09EFBB9FBF0F00A21B0FB0A
:10155000F1F201FB1208BAF1000F13D1681EA0428C
:1015600010DDB8F1000F0BD1B34606EBDB7149106B
:1015700001FB0471C8B220220199FFF72BFF0FE095
:101580004FF0010AB34606EBDB71491001FB047111
:10159000C8B208F13001CAB20199FFF71BFF00BFC2
:1015A000601CC4B2AC42C9DBBDE8FF9F70B5044605
:1015B0000E4626B104211848FFF7A2FC03E00421DF
:1015C0001548FFF79BFC08211348FFF797FC0025FF
:1015D00017E008211148FFF791FC04F0800020B1CA
:1015E00020210E48FFF78CFC03E020210B48FFF779
:1015F00085FC08210948FFF783FC6006040E681C7F
:10160000C5B2082DE5DB08210348FFF779FC04216A
:101610000148FFF775FC70BD00140140000C01404B
:1016200070B504460025104605E0265C4E556E1C3C
:10163000F5B2461CF0B29E188642F6DC70BD7047CB
:1016400029B1064A52690243044B5A6104E0034A35
:1016500052698243014B5A617047000000100240FA
:1016600029B1064AD2690243044BDA6104E0034A15
:10167000D2698243014BDA617047000000100240DA
:1016800029B1064A92690243044B9A6104E0034A75
:1016900092698243014B9A6170470000001002403A
:1016A00070B504460B460025002101260AE0881C7F
:1016B000185C6054881C185C284485B2481C81B2B0
:1016C000701C86B29642F2DBE8B270BD7047000033
:1016D00000B587B001210820FFF7D2FF0121880360
:1016E000FFF7BEFF4FF46040ADF818001C208DF8E6
:1016F0001B0003208DF81A0006A91848FFF72BFBE2
:101700004FF460411548FFF7FBFB0020ADF80400E3
:101710004FF48270ADF806000020ADF808000220FA
:10172000ADF80A000120ADF80C004002ADF80E0043
:101730000820ADF810000020ADF812000720ADF829
:10174000140001A9064800F06BF80121044800F0DC
:101750004DF8FF2000F006F807B000BD000C014076
:101760000038004070B50446002505E0681CC5B28D
:10177000C82D01DD002070BD0221074800F042F8AD
:101780000028F3D02146044800F048F8002502481C
:1017900000F041F8C0B2EEE7003800402DE9F0411A
:1017A00005460E464FF00008002419E02F5D09E0C1
:1017B00008F1010000F0FF08B8F1C80F02DD0020B9
:1017C000BDE8F0810221084800F01CF80028EFD0A5
:1017D0003946054800F022F84FF00008601C84B23A
:1017E000B442E3DB0020EBE70038004021B102887F
:1017F00042F04002028004E002884FF6BF731A40B4
:10180000028070470246002013890B400BB1012073
:1018100000E0002070470146888970478181704749
:1018200010B50022028802F441520B884C882343F1
:101830008C882343CC8823430C8923434C8923433E
:101840008C892343CC8923431A430280838B4FF234
:10185000FF74234083830B8A038210BD704710B549
:1018600000F002F810BD00000CB5002001900090BF
:101870003348006840F480303149086000BF304888
:10188000006800F4003000900198401C019000981E
:1018900018B90198B0F5A06FF1D12948006800F49B
:1018A000003010B10120009001E00020009000986D
:1018B000012843D12348006840F010002149086006
:1018C0000846006820F0030008600846006840F001
:1018D000020008601A484068194948600846406894
:1018E00048600846406840F48060486008464068A8
:1018F00020F47C1048600846406840F4E8104860D6
:101900000846006840F08070086000BF0C4800681E
:1019100000F000700028F9D00948406820F003006A
:10192000074948600846406840F00200486000BF30
:101930000348406800F00C000828F9D10CBD0000F5
:101940000010024000200240042808D14FF0E0219E
:10195000096941F004014FF0E022116107E04FF006
:10196000E021096921F004014FF0E0221161704784
:101970007047000010B51348006840F0010011499D
:10198000086008464068104908400E49486008460B
:1019900000680E4908400B4908600846006820F4BA
:1019A000802008600846406820F4FE0048604FF43C
:1019B0001F008860FFF753FF4FF000600449086084
:1019C00010BD0000001002400000FFF8FFFFF6FE0F
:1019D00008ED00E010B50121880700F0E6F818B125
:1019E0000121880700F0D2F810BD7FB505460C46EE
:1019F00001210846FFF734FEADF80850ADF8044069
:101A00000020ADF80A00ADF8060001A94FF08040B3
:101A100000F0E6F801221146900700F0D7F81C20EC
:101A20008DF8000000208DF801008DF802000120E3
:101A30008DF803006846FFF79DFB0121880700F041
:101A4000A8F87FBD10B50121294800F0AEF80028A4
:101A50004DD028480088401C264908802648008828
:101A6000401C2549088025480088401C23490880DF
:101A700023480088401C2249088022480088401CD6
:101A80002049088020480088401C1F4908801F48C2
:101A90000088401C1D4908801D480088401C1C49C6
:101AA00008801C480078012804DB1B480088401C83
:101AB0001949088019480078012804DB1848008873
:101AC000401C1749088017480078012804DB164895
:101AD0000088401C1449088007480088322802DB2F
:101AE0000020054908800121014800F04FF810BD91
:101AF000000400401E0000202000002022000020E2
:101B000024000020260000202E00002030000020AD
:101B1000320000203D000020280000203F0000206F
:101B20002A000020410000202C0000207FB505463F
:101B30000C4601210220FFF793FDADF80850ADF8E7
:101B400004400020ADF80A00ADF8060001A90E48D7
:101B500000F046F8012211460B4800F037F81D202E
:101B60008DF8000002208DF8010003208DF802009E
:101B700001208DF803006846FFF7FCFA01210248B6
:101B800000F007F87FBD000000040040CA43028255
:101B9000704721B1028842F00102028004E002880D
:101BA0004FF6FE731A400280704730B5024600209F
:101BB00000230024158A05EA0103958905EA01043A
:101BC00013B10CB1012000E0002030BD1AB18389AF
:101BD0000B43838102E083898B438381704700003C
:101BE000002202881D4B98420ED01D4B98420BD00C
:101BF000B0F1804F08D01B4B984205D01A4B984249
:101C000002D01A4B984204D14FF68F731A404B887A
:101C10001A43174B984207D0164B984204D04FF600
:101C2000FF431A40CB881A4302808B8883850B8838
:101C300003850A4B98420BD0094B984208D00E4BB3
:101C4000984205D00D4B984202D00D4B984201D1DD
:101C50000B7A03860123838270470000002C014029
:101C6000003401400004004000080040000C004027
:101C700000100040001400400040014000440140BA
:101C80000048014010B540F22441384800F0B8F94E
:101C900000286AD03548008800F04000402807D16D
:101CA00032480C30008820F0400030490C31088068
:101CB0002E48008800F02000202805D12B480088FD
:101CC00020F02000294908802848008800F01000F2
:101CD000102837D12548008820F0100023490880BB
:101CE00008460088224908802048001D0088088096
:101CF0002048806D20F001001E4988651B48143083
:101D0000008820F040001949143108804FF4C27057
:101D10001849C8650846806D40F001008865134881
:101D20001430008840F040001049143108801148F8
:101D3000406840F400300F4948600846406840F46D
:101D4000005048600948008820F0100007490880CA
:101D500006480C30008820F0400004490C3108800F
:101D600005480078401C0449087010BD0038014047
:101D700042000020000002403C00002000B5124854
:101D8000007801281EDB00200F4908700F480078FA
:101D9000A82817D10D484078012813D100200B49FD
:101DA0000870487040F28311084800F076FF074938
:101DB00091F88311884205D140F283120349044807
:101DC000FFF76EFC00BD00003C00002078080020FA
:101DD000581400202F48008800F04000402807D108
:101DE0002C480C30008820F040002A490C31088033
:101DF0002848008800F01000102836D125480088B7
:101E000020F01000234908800846008822490880F5
:101E10002048001D008808802048C06E20F0010086
:101E20001E49C8661B481430008820F0400019493C
:101E300014310880AF20194908670846C06E40F089
:101E40000100C86613481430008840F04000114972
:101E5000143108801148406840F400100F49486070
:101E60000846406840F0007048600A48008820F04A
:101E700010000849088007480C30008820F0400016
:101E800004490C31088006480078401C0449087059
:101E90007047000000440040440000200000024061
:101EA0003E00002000B51C480078012832DB0020ED
:101EB0001949087019480078B7282BD1174840787D
:101EC000012827D1002015490870AD21134800F0E2
:101ED0004FF913490870AC21104800F0DEFE0F499D
:101EE00091F8AC10884215D1AC220C490D48FFF78F
:101EF000D7FB0B4800780C490978884202D025208E
:101F00000A4908700648007807490870002003490C
:101F100081F8AC0000BD00003E000020840B0020D2
:101F20005D080020A91300205C0800205E08002046
:101F30002F48008800F04000402807D12C480C3082
:101F4000008820F040002A490C3108802848008889
:101F500000F01000102837D12548008820F010002C
:101F60002349088008460088224908802048001D2F
:101F7000008808802048006B20F001001E4908639B
:101F80001B481430008820F04000194914310880A3
:101F90004FF4C370184948630846006B40F00100D5
:101FA000086313481430008840F040001049143191
:101FB00008801148406840F020000F4948600846FA
:101FC000406840F4007048600948008820F0100024
:101FD0000749088006480C30008820F0400004497A
:101FE0000C31088005480078401C0449087070478F
:101FF0000048004046000020000002404000002051
:1020000070B50246002400230025002040F66A1621
:10201000B14200D100BFC1F3421501F01F030126F8
:1020200006FA03F3012D02D19689334006E0022D12
:1020300002D1168A334001E0968A33400C12012601
:1020400006FA04F41688344013B10CB1012000E004
:10205000002070BD00BFFEE77FB5002003904FF465
:102060004876002410E00E48005D00F00F050020C7
:10207000012100910B460A46CDE901102946204670
:1020800000F012F8601CC4B2192CECDB3146054894
:10209000FFF784FB022103A8FFF780FB7FBD000050
:1020A000F51C0020D51900202DE9F04F0C461646EE
:1020B0009946DDE90AC8099F4FF0080B0BEB401B5E
:1020C000DFF8A8E00BEB0E02F3460BEB40134FF0EA
:1020D000100B0BEB401B0BEB0E054FF0180B0BEB33
:1020E000401B0BEB0E0A00213CE0012C06D16145A0
:1020F00004DA4FF0F80B83F800B003E04FF0E00B88
:1021000083F800B0022C06D1B14204DA4FF0F80B8C
:1021100082F800B003E04FF0E00B82F800B0032C2F
:1021200006D1494504DA4FF0F80B85F800B003E01A
:102130004FF0E00B85F800B0042C06D1B94204DA68
:102140004FF0F80B8AF800B003E04FF0E00B8AF88C
:1021500000B0521C6D1C0AF1010A5B1C01F1010B5D
:102160000BF0FF010829C0DBBDE8F08FD519002076
:1021700070B502460C46FF25FF2309E012F8010B5B
:1021800080EA05010648405C80EA03050548435C97
:10219000201EA4F10104F1D143EA052070BD000026
:1021A000123C0008123D000810B56FF00400FFF764
:1021B000CBFB0A4800680A49B0FBF1F009490870F6
:1021C0000846007800EB4001C1EBC0104FF6FF71EC
:1021D00001EAC0000449088010BD0000040000208E
:1021E00000127A0034000020360000200146114A17
:1021F00012884A434FF0E0235A6100229A611A463E
:10220000126942F001021A6100BF4FF0E02210692A
:1022100000F001021AB100F48032002AF5D04FF02C
:10222000E022126922F001024FF0E0231A6100223D
:102230009A6170473600002010B536480088322871
:102240000EDB00BF00203349088033480078252882
:1022500006D10020304908702E490880FFF7FCFEA7
:102260002E480088032807DB00202C4908802C49D1
:1022700040F20260FEF786F92A4800782849087083
:102280002848407848702748807888702548C0786A
:10229000C8702548007848712348008800120871EA
:1022A000FFF76CFDFFF7FEFD00F04CF80A20FEF78B
:1022B00029FE192300221D491D48FFF7B1F91D48C9
:1022C0000088401C1B4908800846008864280FDBF2
:1022D0001948006808B9012000E00020164908608C
:1022E00000201449088015480088401C13490880C4
:1022F00012480088C82802DB0020104908800A48DC
:102300000088282190FBF1F0C0F164000C490870AE
:1023100010BD0000320000205E08002030000020C8
:10232000480800205008002068080020F51C002004
:10233000A913002058080020B88122425A08002022
:1023400074080020FB48006890B1FB4890F9000039
:10235000022806DAF8480078401C40B2F6490870B6
:1023600018E0F648007820F00100F449087011E008
:10237000F14890F90000022806DDEF480078401E81
:1023800040B2ED49087005E0EC48007840F00100EB
:10239000EA490870EA48006890B1E74890F90100FE
:1023A000022806DAE4484078401C40B2E24948700E
:1023B00018E0E248007820F00200E049087011E0DF
:1023C000DD4890F90100022806DDDB484078401E18
:1023D00040B2D949487005E0D848007840F0020082
:1023E000D6490870D748006890B1D34890F90200E8
:1023F000022806DAD0488078401C40B2CE49887066
:1024000018E0CE48007820F00400CC49087011E0B4
:10241000C94890F90200022806DDC7488078401EAE
:1024200040B2C549887005E0C448007840F0040017
:10243000C2490870BF48001D006890B1BE4890F9BD
:102440000300022806DABC48C078401C40B2BA49F2
:10245000C87018E0B948007820F00800B749087043
:1024600011E0B54890F90300022806DDB248C078B3
:10247000401E40B2B049C87005E0B048007840F056
:102480000800AE490870AF480838006890B1AA4803
:1024900090F90400022806DAA7480079401C40B2EF
:1024A000A549087118E0A548007820F01000A3495C
:1024B000087011E0A04890F90400022806DD9E484B
:1024C0000079401E40B29C49087105E09B480078A5
:1024D00040F01000994908709A48001D006890B1BA
:1024E000954890F90500022806DA93484079401C87
:1024F00040B29149487118E09048007820F02000DF
:102500008E49087011E08C4890F90500022806DD1C
:1025100089484079401E40B28749487105E08748A4
:10252000007840F02000854908708548001F006849
:1025300090B1814890F90600022806DA7E48807939
:10254000401C40B27C49887118E07C48007820F03B
:1025500040007A49087011E0774890F90600022897
:1025600006DD75488079401E40B27349887105E0E8
:102570007248007840F04000704908707148001FB0
:10258000006890B16C4890F90700022806DA6A48A2
:10259000C079401C40B26849C87118E067480078AB
:1025A00020F080006549087011E0634890F9070049
:1025B000022806DD6048C079401E40B25E49C871FD
:1025C00005E05E48007840F080005C4908705D4896
:1025D0000830006890B1584890F90800022806DADF
:1025E0005548007A401C40B25349087218E05348DD
:1025F000407820F001005149487011E04E4890F9B0
:102600000800022806DD4C48007A401E40B24A49C4
:10261000087205E04948407840F001004749487099
:1026200048482438006890B1434890F909000228CE
:1026300006DA4148407A401C40B23F49487218E0EF
:102640003E48407820F002003C49487011E03A488A
:1026500090F90900022806DD3748407A401E40B252
:102660003549487205E03548407840F0020033496A
:10267000487033481830006890B12F4890F90A002C
:10268000022806DA2C48807A401C40B22A49887217
:1026900018E02A48407820F004002849487011E0EA
:1026A000254890F90A00022806DD2348807A401E5A
:1026B00040B22149887205E02048407840F004008B
:1026C0001E4948702048006890B11B4890F90B00E3
:1026D000022806DA1848C07A401C40B21649C8726F
:1026E00018E01648407820F008001449487011E0BE
:1026F000114890F90B00022806DD0F48C07A401EF1
:1027000040B20D49C87205E00C48407840F008001E
:102710000A4948700B4820380068F0B1064890F923
:102720000C00022812DA0448007B401C40B2024927
:10273000087324E010012242BC1900205008002038
:10274000048121422401234218812242F748407823
:1027500020F01000F549487011E0F54890F90C00A0
:10276000022806DDF248007B401E40B2F0490873A3
:1027700005E0EE48407840F01000EC494870ED4824
:10278000006890B1EA4890F90D00022806DAE8489E
:10279000407B401C40B2E649487318E0E34840786B
:1027A00020F02000E149487011E0E14890F90D0067
:1027B000022806DDDE48407B401E40B2DC494873FB
:1027C00005E0DA48407840F02000D8494870DA48FF
:1027D000006890B1D64890F90E00022806DAD44875
:1027E000807B401C40B2D249887318E0CF484078C3
:1027F00020F04000CD49487011E0CD4890F90E001E
:10280000022806DDCA48807B401E40B2C849887352
:1028100005E0C648407840F04000C4494870C548CB
:10282000001D006890B1C24890F90F00022806DA36
:10283000BF48C07B401C40B2BD49C87318E0BB48CC
:10284000407820F08000B949487011E0B84890F90C
:102850000F00022806DDB648C07B401E40B2B449D6
:10286000C87305E0B148407840F08000AF49487037
:10287000B0480838006890B1AD4890F910000228BF
:1028800006DAAB48007C401C40B2A949087418E045
:10289000A648807820F00100A449887011E0A4487F
:1028A00090F91000022806DDA148007C401E40B2CD
:1028B0009F49087405E09D48807840F001009B49DD
:1028C00088709E48006890B1994890F911000228DC
:1028D00006DA9748407C401C40B29549487418E09D
:1028E0009248807820F002009049887011E090486A
:1028F00090F91100022806DD8D48407C401E40B250
:102900008B49487405E08948807840F00200874987
:1029100088708A48001D006890B1854890F91200BF
:10292000022806DA8248807C401C40B280498874C4
:1029300018E07E48807820F004007C49887011E01F
:102940007B4890F91200022806DD7948807C401E01
:1029500040B27749887405E07448807840F00400FC
:102960007249887075480C30006890B1704890F9D1
:102970001300022806DA6E48C07C401C40B26C4945
:10298000C87418E06948807820F0080067498870AA
:1029900011E0674890F91300022806DD6448C07C06
:1029A000401E40B26249C87405E06048807840F03B
:1029B00008005E49887061480830006890B15C4842
:1029C00090F91400022806DA5948007D401C40B2F4
:1029D0005749087518E05548807820F01000534991
:1029E000887011E0524890F91400022806DD504822
:1029F000007D401E40B24E49087505E04B48807886
:102A000040F01000494988704B481030006890B180
:102A1000474890F91500022806DA4548407D401CD9
:102A200040B24349487518E04048807820F02000C3
:102A30003E49887011E03E4890F91500022806DDF5
:102A40003B48407D401E40B23949487505E0374853
:102A5000807840F020003549887037480830006899
:102A600090B1334890F91600022806DA3048807D8C
:102A7000401C40B22E49887518E02C48807820F020
:102A800040002A49887011E0294890F91600022870
:102A900006DD2748807D401E40B22549887505E047
:102AA0002248807840F04000204988702248143045
:102AB000006890B11E4890F91700022806DA1C48F9
:102AC000C07D401C40B21A49C87518E0174880788C
:102AD00020F080001549887011E0154890F9170022
:102AE000022806DD1248C07D401E40B21049C8755C
:102AF00005E00E48807840F080000C4988700E4850
:102B0000001D0068E0B10A4890F91800022806DAB2
:102B10000748007E401C40B20549087622E0034881
:102B2000C07820F001000149C8701BE05008002067
:102B3000BC190020208121421C8122423001234205
:102B4000094890F91800022806DD0748007E401E5B
:102B500040B20549087605E00448C07840F001001D
:102B60000249C87070470000BC19002050080020BE
:102B700008B5FFF719FBFEF7F6FA4FF4E1314820EC
:102B800000F09AF84FF4E131242000F017F93049B1
:102B9000242000F0A1F9FEF7ADFA41F61F41142000
:102BA000FEF7C4FF41F61F416420FEF71EFFFEF74B
:102BB0008FFD4FF4C373274A27492848FDF768FF64
:102BC0004FF4C373264A244924481430FDF70EFFFE
:102BD000AF23244A244921483C30FDF7E9FFAF23C5
:102BE000224A21491D482830FDF794FF4FF4C37352
:102BF0001F4A204919482838FEF76AF84FF4C37372
:102C00001D4A1C4915481438FEF714F80020062305
:102C10000222032100900120FDF7FAFBFEF728FABB
:102C2000FDF756FB02211548FEF7B8FDFEF704FB41
:102C3000FEF7E2FA0AE0FFF7FFFA402003230090D4
:102C40000F48027800210846FEF76EFCF3E700000B
:102C500020A10700FE090020043801404400024082
:102C600078080020330C002004440040840B00202E
:102C7000680E002004480040E20C00200000002004
:102C80007408002010B50246012000E050430B1EDE
:102C9000A1F10104E1B2F9D110BD10B502460B4615
:102CA0000024022104E0505C204484B2481C81B21C
:102CB0009942F8DBE0B210BD2DE9F84F05460E460B
:102CC000300100F047FE8146384905FB01F000F075
:102CD00041FE8246494600F05BFD0746384600F05B
:102CE00019FE84B2204600F035FE8346394600F0D6
:102CF00011FF82464FF0834100F040FE814600F014
:102D000009FE80464FF6FF7000EA041404EB080049
:102D100084B22748806940F004002549886108464C
:102D2000806940F4804088612248006820F47F6018
:102D3000204908600846006840F40B6008601C48A1
:102D4000C06840F480401A49C8600846C06820F452
:102D50008040C86018480480001D008842F20C01C1
:102D600008431549091D08800846008840F4807012
:102D700008800846008840F0100008800E48083897
:102D8000008820F010000C490839088025208DF8B3
:102D9000000003208DF801008DF8020001208DF85D
:102DA00003006846FEF7E6F9BDE8F88F40420F00E1
:102DB0000010024004080140083801402DE9F84F96
:102DC00005460E46300100F0C5FD81463D4905FB34
:102DD00001F000F0BFFD8246494600F0D9FC0746ED
:102DE000384600F097FD84B2204600F0B3FD8346DC
:102DF000394600F08FFE82464FF0834100F0BEFD61
:102E0000814600F087FD80464FF6FF7000EA04140B
:102E100004EB080084B22C48806940F004002A4981
:102E200088610846C06940F40030C86127480068DE
:102E300020F47F40254908600846006840F40B40B4
:102E400008602148006940F400301F4908610846C5
:102E5000006920F4003008611D480480001D0088CE
:102E600042F20C0108431A49091D088008460088EF
:102E700040F4807008800846008840F01000088008
:102E8000134808380088134908801148001F00883B
:102E900008800F480838008820F010000C490839D5
:102EA000088026208DF8000003208DF801008DF8A1
:102EB000020001208DF803006846FEF75BF9BDE8CB
:102EC000F88F000040420F0000100240000801404F
:102ED00008440040440000202DE9F84F05460E4606
:102EE000300100F037FD81463D4905FB01F000F05F
:102EF00031FD8246494600F04BFC0746384600F05B
:102F000009FD84B2204600F025FD8346394600F0D5
:102F100001FE82464FF0834100F030FD814600F013
:102F2000F9FC80464FF6FF7000EA041404EB080039
:102F300084B22C48806940F008002A49886108461C
:102F4000C06940F48020C8612748006820F47F40B1
:102F5000254908600846006840F40B400860214895
:102F6000006940F480201F4908610846006920F488
:102F7000802008611D480480001D008842F20C0179
:102F800008431A49091D08800846008840F48070EB
:102F900008800846008840F0100008801348083870
:102FA0000088134908801148001F008808800F48D6
:102FB0000838008820F010000C49083908802720C4
:102FC0008DF8000003208DF801008DF8020001202B
:102FD0008DF803006846FEF7CDF8BDE8F88F0000D5
:102FE00040420F0000100240040C0140084800401D
:102FF0004600002021F00042A2F16052B2F5801F8D
:1030000001F0004328BFD2F17F6C0BD95FEA001CAE
:1030100043EAC20242EB507018BF704728BF20F04D
:1030200001007047B2F5801FBCBF184670474FEAD9
:10303000410C1CF5001F02D2084600F066BD70B5B9
:1030400000F0A4F900000089FFF7F6BF4FF0004040
:10305000A0F580007047000010B591EA030F48BF4B
:1030600083F0004300F12482841A71EB030C05D233
:10307000121943EB0C03001B61EB0C01DFF824E198
:103080004FEA1154A4EB135C1EEA430F18BF9EEAEB
:10309000445F73D023EA0E03DCF1200E21EA0451D1
:1030A00043F4801332D322FA0CFE10EB0E0023FA05
:1030B0000CFE41EB0E01CCF1200E03FA0EFE10EBDC
:1030C0000E0051F10001B1F5801FCCF1200E32D27B
:1030D00001EB045112FA0EF2BDE8104058BF7047E0
:1030E000401C38BF5FEA420218BF7047002814BF77
:1030F00020F0010041F100014FEA410313F5001FE8
:1031000038BF7047A1F1C04100F08EB9012A43EBEE
:103110000302ACF1200CDCF11F0E32BF4FF0000EA9
:1031200023FA0CF310EB030041EB0451B4EB115FF5
:10313000D0D0A1EB045101F5801149085FEA3000BD
:1031400001EB04510ED350F1000038BF12FA0EFE0D
:1031500008D1BDE81040C9E7401C38BF5FEA420211
:10316000CAD1C3E7BDE810404FEA410313F5001F81
:1031700038BF7047A1F1C04100F056B99EEA445FE4
:1031800008D011EA5E0FBDE8104004BF01F0004115
:1031900000207047BDE8104070B500F0F7F800BFA0
:1031A00064FBBE3E0000E0FF491058BFC1F1404142
:1031B0005B1058BFC3F140438B42EFF30080704770
:1031C00051EA030C17D41CF5801F58BFBCF5801FB3
:1031D00000F10680994218BF704708BF90427047BF
:1031E00007D711F5801F58BF13F5801F19D49942D6
:1031F0007047894270471CF5801F08D5BCF5801FB9
:10320000F7D58B4218BF704708BF824270474FF412
:10321000001C1CEB410F38BF1CEB430F01D28B424B
:10322000704770B500F0B2F8922449004FF0005199
:103230004FF08053FFF7B8BFDFF848C170B51CEA04
:10324000111E1EBF1CEA13159EEA0C0F95EA0C0F07
:1032500000F06F8081EA030423EA4C134EEAD47E27
:1032600021EA4C1141F4801143F48013AE44A1FBD8
:10327000024CA0FB0365AEF17F7E361955EB0C05C1
:10328000A1FB034C4CF10003A0FB021C16EB0C0647
:10329000654153F10003094218BF46F0010613F4DB
:1032A000007F0BD14FEA03314FEA0530340341EA86
:1032B000155140EA16506FF003020AE04FEAC321AD
:1032C0004FEAC520F40241EA555140EA56506FF0EA
:1032D000020202EB2E4201EB025585EACE710AD0C2
:1032E0005FEA440C18BF24F0004450F1000041F1A3
:1032F000000120EAD47040F2FE7C624500D270BD2D
:10330000A84214BF4FF080444FF04044002E08BF45
:103310000024BEF1806FA8BFA1F1C041BDE870409C
:1033200080F282804FF0000001F1C04101F00041C5
:1033300070479EEA0C0F0CEA131518BF95EA0C0FA4
:1033400006D04FF0000081EA030E0EF0004170BD80
:1033500000F01CF88900013E00F007B800F009B841
:103360004FEA430C5FEA5C5C08D081EA030100F09D
:103370005BB84FEA410C5FEA5C5CF6D14FF00000AD
:10338000014970470000FF070000F87F0EF1020EB0
:103390002EF0030E5EF8046B364205D4012A43EB8F
:1033A000030515F5001F12D8012841EB010C1CF58F
:1033B000001F0CD80ED14FEAD17C15F5001F0CEB85
:1033C0004C0C0CF1020C08BF4CEBD37C04E04FF02A
:1033D000080C01E04FEAD37C0CEB4C0526FA05F60D
:1033E00006F00706B6F1040C06D20EEB860CBDE81B
:1033F00070404CF0010C6047DFE80CF0090B020252
:103400004FF000414FF00000A1F5002170BD1946BA
:103410001046012851EB010418BFD4F5001484BFF5
:10342000002001F0004170BD0808A0F500114FEA2E
:103430003101704753EA010C17D41CF5801F58BFA7
:10344000BCF5801F00F106808B4218BF704708BF93
:103450008242704707D713F5801F58BF11F5801FB0
:1034600019D48B4270479B4270471CF5801F08D5CA
:10347000BCF5801FF7D5994218BF704708BF90422E
:1034800070474FF4001C1CEB430F38BF1CEB410F7F
:1034900001D2994270470FB40CBC03BCFFF7C1BE08
:1034A00010B591EA030F48BF83F000433FF5DCAD50
:1034B000841A71EB030C07D212198CF0004C43EB09
:1034C0000C03001B61EB0C01DFF8A4E14FEA11547F
:1034D000A4EB135C1EEA430F18BF9EEA445F00F0A2
:1034E000B08023EA6E03524221EA0451C3EB6E031B
:1034F00038BF5B1EDCF1200E25D322FA0CFE10EB48
:103500000E0043FA0CFE41EB0E01CCF1200E03FA43
:103510000EFE10EB0E0051F10001CCF1200E29D46B
:1035200012FA0EF201EB0451BDE8104058BF70478B
:10353000401C1CBFB2F1004F704700280CBF491C53
:1035400020F00100704712EB020E43EB030218BF9C
:103550004FF0010E4EEA4202ACF1200CDCF11E0EDF
:1035600054D943FA0CFE10EB0E0051F1FF31CCF1AF
:103570001E0ED5D50EF1010E12FA0EFE404141EBA2
:10358000010101EB445C5FEA5C5C10D910EBDE707A
:1035900001EB045138BFBEF1004FBDE8104018BF29
:1035A000704700280CBF491C20F00100704730D242
:1035B0004FEAD42C11F5001124F400641BD0B1FAA9
:1035C00081F20B3AA41AA41ED2F12003914030FAE2
:1035D00003F31943904001EBCC71002C01EB045133
:1035E000BDE81040A8BF704701F1C0414FF0000096
:1035F00001F000417047B0FA80F310FA03F100D1F6
:1036000010BDE41A173C4805C90AE4E701EB045170
:1036100010BD491001EB0451BDE810404FEA3000E5
:1036200002E04FF0000170474A0008BF0042F8D0A6
:10363000B2F5001F28BF704701F000414FF00000B5
:1036400070479EEA445F07D011EA5E0FBDE8104064
:1036500004BF002100207047BDE8104070B5FFF79F
:1036600095FE00BF40DFF63E83F0004110467047F4
:103670000000E0FF43004FEAD30C4FEA3C0C43400C
:103680001FBF40070CF1605113F0FE4F70471CF054
:10369000006F03D100200CF0004170470CF0004394
:1036A00043EA507010B540EACC0000F0E8F900BFE2
:1036B000000000924FEA0001FFF7B6BE4FF0004154
:1036C0004FF00000A1F500217047000090EA010FC3
:1036D00048BF81F0004100F12E82421A3CBF801A9F
:1036E00089184FEAD0524FF07F4C1CEA410FA2EBF1
:1036F000D15318BF9CEA026F00F03B804FF0004CA2
:103700004CEA00204CEA012121FA03FC10EB0C0CDE
:103710001ED202F1FF325FEA1C2040EBC25038BFDC
:1037200070471CF07F0F4FEA400C18BFBCF17F4F71
:1037300038BF7047C3F12003994008BF20F0010053
:10374000BCF17F4F38BF7047A0F1C04000F0DDB939
:103750004FEA3C00000A40EBC25028BF1CF0FF0FAC
:103760004FEA400CE6D018BFBCF17F4F38BF70471E
:10377000EAE79CEA026F05D010EA5C0F08BF00F090
:103780000040704710B500F07AF900BF64FBBE3E00
:103790004FF47F0C1CEAD0121EBF1CEAD11392EA30
:1037A0000C0F93EA0C0F00F0858090EA010F48BFE0
:1037B00042F4807240F4000C41F400002CF07F4190
:1037C00020F07F4000B58142A2EB03020FF2081CFB
:1037D000ACEB504EC0F100009EF800E04FEA4E0EF8
:1037E00000FB0EFC38BF49004FEA2C1C02F5FA0220
:1037F0000CFB0EF34FEACE1E4FEA112C4FEAC1210B
:103800000EEB635E42EB22420EFB0CFC4FEA1C53B4
:1038100000FB03114FEA112C4FEA01310EFB0CFCA7
:103820004FEADC4C00FB0C11C14228BF09184CEBDD
:1038300003335DF804EB10EB410143EBC250B2F5EA
:103840007C0F38BF704729D512F0F00F1CBF00F174
:10385000C04000F0004070470081828384858687E5
:1038600088898B8C8D8E8F919293959697999A9C3F
:103870009D9FA0A2A3A5A7A8AAACAEB0B2B3B5B7AE
:10388000B9BCBEC0C2C5C7C9CCCED1D4D7D9DCDF84
:10389000E2E6E9ECF0F3F7FAFE0000004FEA400C34
:1038A0000CF1807CBCF17E4F28BF7047B0F1C04066
:1038B00000F02BB990EA010F0CEAD11348BF42F493
:1038C0008072624538BF634507D213F47F0F16D06C
:1038D00080EA010000F00040704710B500F0CFF81A
:1038E000097EFC3E00F005B880EA010000F00040CF
:1038F000704780EA010000F0004000F006B912F4C1
:103900007F0F04BF0248704780EA010000F0FDB855
:103910000000C07FC10DD1F19E0206DB4FEA0023FB
:1039200043F0004323FA02F07047004207D54FEA04
:103930004001B1F1FE4F02D24FF00000704710B5C8
:1039400000F09DF849922480002070476FEA200023
:1039500070470000B0FA80F310FA03F2C3F19D0340
:103960000AD0D90501EB1220530638BF704700F189
:10397000010008BF20F00100704700004FF47F0CE9
:103980001CEAD0121EBF1CEAD11392EA0C0F93EA74
:103990000C0F00F0478090EA010F48BF42F480729C
:1039A0004FF0004C4CEA00204CEA012102EB0302EC
:1039B000A0FB0113A2F50002002918BF43F0010388
:1039C0005B0028BF4FEA330342EB22425FEA132C2D
:1039D0004CEBC2502EBFBCEB436FB2F57C0F70476F
:1039E0004FEA036CBCF1004F08BF20F00100B2F5B4
:1039F0007C0F38BF70470BD582F0FF0212F5803F75
:103A0000C8BF704700F1C040D8BF00F00040704709
:103A100000F5000C5FEA4C0C48BF7047B0F1C040A5
:103A200000F073B890EA010F0CEAD11348BF42F4DA
:103A30008072624538BF634504D280EA010000F01D
:103A40000040704710B500F01AF800BF8900013E31
:103A500000F007B800F009B85FEA410C5FEA1C6C9F
:103A600008D080EA010000F050B85FEA400C5FEA3D
:103A70001C6CF6D14FF00040A0F5800070470EF1AD
:103A8000020E2EF0030E5EF8044B244204D44FEADB
:103A90004102B2F17F4F11D84FEA4003B3F17F4F9B
:103AA0000CD80ED14FEAD07CB2F17F4F0CEB4C0C0E
:103AB0000CF1020C08BF4CEBD17C04E04FF0080C79
:103AC00001E04FEAD17C0CEB4C0324FA03F404F040
:103AD0000704B4F1040C06D20EEB840CBDE81040D0
:103AE0004CF0010C6047DFE80CF0070802024FF0D1
:103AF0000040A0F5800010BD0846420018BFD2F17A
:103B0000807288BF00F0004010BDFF2141EAD05014
:103B1000C005704780F0004090EA010F7FF5DDADF1
:103B200081F0004100F007B890EA010F48BF81F032
:103B300000413FF5D2AD421A04D882F00042A0EB1A
:103B4000020011444FEAD0524FF07F4C1CEA410F63
:103B5000A2EBD15318BF9CEA026F4AD04FF0004C41
:103B60004CEA00204CEA012121FA03FCB0EB0C0CDA
:103B70000FD412F0FE0F36D05FEA4C001DD50012B4
:103B800040EBC25038BF70471CF03F0F18BF704762
:103B90000BE0A2F101025FEA1C2040EBC25038BFEB
:103BA00070471CF07F0F18BF7047C3F12003994086
:103BB00014BF401E20F00100704780084FEA122316
:103BC00008BF7047B0FA80FCA2EB0C02CCF1280CC5
:103BD00060FA0CF093EA122F04BF00EBC25070475A
:103BE0004FEAC3707047130A5FEADC1008BF7047E2
:103BF000F6E79CEA026F04D010EA5C0F08BF0020D1
:103C0000704710B5FFF73BFF40DFF63E81F0004004
:103C1000704700C1814001C0804101C0804100C1A6
:103C2000814001C0804100C1814000C1814001C08C
:103C3000804101C0804100C1814000C1814001C07C
:103C4000804100C1814001C0804101C0804100C16C
:103C5000814001C0804100C1814000C1814001C05C
:103C6000804100C1814001C0804101C0804100C14C
:103C7000814000C1814001C0804101C0804100C13C
:103C8000814001C0804100C1814000C1814001C02C
:103C9000804101C0804100C1814000C1814001C01C
:103CA000804100C1814001C0804101C0804100C10C
:103CB000814000C1814001C0804101C0804100C1FC
:103CC000814001C0804100C1814000C1814001C0EC
:103CD000804100C1814001C0804101C0804100C1DC
:103CE000814001C0804100C1814000C1814001C0CC
:103CF000804101C0804100C1814000C1814001C0BC
:103D0000804100C1814001C0804101C0804100C1AB
:103D1000814000C0C101C30302C2C60607C705C572
:103D2000C404CC0C0DCD0FCFCE0E0ACACB0BC909E3
:103D300008C8D81819D91BDBDA1A1EDEDF1FDD1DF3
:103D40001CDC14D4D515D71716D6D21213D311D123
:103D5000D010F03031F133F3F23236F6F737F53573
:103D600034F43CFCFD3DFF3F3EFEFA3A3BFB39F9A3
:103D7000F83828E8E929EB2B2AEAEE2E2FEF2DED73
:103D8000EC2CE42425E527E7E62622E2E323E121E3
:103D900020E0A06061A163A3A26266A6A767A565F3
:103DA00064A46CACAD6DAF6F6EAEAA6A6BAB69A963
:103DB000A86878B8B979BB7B7ABABE7E7FBF7DBD73
:103DC000BC7CB47475B577B7B67672B2B373B171A3
:103DD00070B0509091519353529296565797559573
:103DE00094549C5C5D9D5F9F9E5E5A9A9B5B995923
:103DF0005898884849894B8B8A4A4E8E8F4F8D4DF3
:103E00004C8C448485458747468682424383418162
:103E100080400000000000000000000000000000E2
:103E20000000000000000000000000000000000092
:103E30000000000000000000000000000000000082
:103E40000000000000000000000000000000000072
:103E50000000000000000000C0C0C0C00000000062
:103E600000000000000000000FFFFF1F0000000026
:103E70000000000000000000001F1F000000000004
:103E80000000000000000000060F0F060000000008
:103E9000000000000080E0783C1C80E0783C1C00C2
:103EA000000000000301000000030100000000000A
:103EB0000000000000000000000000000000000002
:103EC00000000000000000000000000000000000F2
:103ED00000000000000000C0000000000000C00062
:103EE000000000383838F83F3838383838F83F386C
:103EF0003800007070F0FF7070707070F0FF7070BC
:103F000070000000000F0000000000000F00000023
:103F1000000000000000808040F0404080800000F1
:103F200000000000001E7FF0C0FF00000C0F0F001B
:103F300000000000C0C0C00001FF07071EFCF00029
:103F40000000000003070408087F080C06030100B6
:103F500000000080C040C0800000000000C00000E1
:103F600000007EFF000000FF7E00E01C0300000058
:103F700000000001030283611C03F8FE030103FE3D
:103F8000F8000000000C0300000001070C080C07FB
:103F9000010000000080C04040C0000000000000A0
:103FA000000000007FFFC080603F0F0000000000A5
:103FB0000000F8FC03030F3E78E08081710F0101DF
:103FC00000000103060C0808080503070E0C0C0688
:103FD000030000001C1CFC78000000000000000032
:103FE00000000002030100000000000000000000CB
:103FF00000000000000000000000000000000000C1
:1040000000000000000000000000000000000000B0
:10401000000000000000000000000000C060300848
:10402000040000000000000000F0FC0F0100000090
:104030000000000000000000001F7FE00000000002
:10404000000000000000000000000001070C182024
:1040500040000004083060C00000000000000000C4
:1040600000000000000000010FFCF0000000000054
:104070000000000000000000E0FF1F000000000042
:104080000000004020180C070100000000000000A4
:104090000000000000000000000000000000000020
:1040A00000000000183830604086FF8F40603038D4
:1040B00018000000181C0C0602F1FFE102060C1C9F
:1040C00018000000000000000000000000000000D8
:1040D00000000000000000000000000000000000E0
:1040E00000000000000000000000FE0000000000D2
:1040F00000000000010101010101FF0101010101B6
:1041000001000000000000000000000000000000AE
:10411000000000000000000000000000000000009F
:10412000000000000000000000000000000000008F
:10413000000000000000000000000000000000007F
:1041400000000080C7473F1E000000000000000084
:10415000000000000000000000000000000000005F
:10416000000000000000000000000000000000004F
:104170000000000101010101010101010101010132
:10418000010000000000000000000000000000002E
:10419000000000000000000000000000000000001F
:1041A000000000000000000000000000000000000F
:1041B00000000000000000000000000000000000FF
:1041C00000000000060F0F060000000000000000C5
:1041D0000000000000000000000000000000C070AF
:1041E00018000000000000000000C0701C07010063
:1041F000000000000000C0701C070100000000006B
:10420000000000301C07010000000000000000005A
:104210000000000000000080C0404040800000001E
:1042200000000000F0FE0F01000000000107FEF09A
:10423000000000003FFFC000000000000080FF3FC2
:1042400000000000000103060C0808080603010036
:1042500000000000000000000080C000000000001E
:10426000000000000001010101FFFF00000000004C
:10427000000000000000000000FFFF000000000040
:1042800000000000000808080C0F0F0C08080800C8
:10429000000000000000804040404040C08080009E
:1042A000000000001E1900000000000000C1FF3ED9
:1042B000000000000000804030180C06030100C020
:1042C000000000000E0D0C0C0C0C0C0C0C0C0E0362
:1042D0000000000000808040404040C0800000009E
:1042E000000000000F0F000000000080C17F3E00B2
:1042F00000000000C0C00000010101030206FCF044
:10430000000000000307040808080808040603006A
:104310000000000000000000000000C0C00000001D
:104320000000000000008060100C03FFFF00000090
:10433000000000302C262120202020FFFF202020FC
:1043400000000000000000000808080F0F0808081F
:10435000000000000000C0C0C0C0C0C0C0C0C0C0DD
:104360000000000000FF008040404040C08000008E
:1043700000000000C0C30100000000000001FFFCBD
:1043800000000000030404080808080804070300EC
:10439000000000000000008080404040408080001D
:1043A00000000000E0FC0781C0404040C0830300E3
:1043B000000000007FFF8300000000000001FFFC00
:1043C00000000000000107060C0808080C060300A6
:1043D0000000000000C0C0C0C0C0C0C0C0C0C0C09D
:1043E000000000000E030000000000E018060100BD
:1043F0000000000000000000C0FC030000000000FE
:1044000000000000000000000F0F0000000000008E
:1044100000000000000080C040404040C08000001C
:10442000000000003E7FF1C0C080000080417F1E80
:10443000000000F0FC0E0201010103070E1EFCF05B
:104440000000000103060408080808080406030128
:10445000000000000080804040404040800000009C
:10446000000000FCFF030000000000000003FEF855
:104470000000000103070C080808080406E17F1F7C
:10448000000000000707080808080C0603010000E8
:10449000000000000000000000000000000000001C
:1044A0000000000000000000C0E0E0C000000000CC
:1044B00000000000000000000001010000000000FA
:1044C0000000000000000000060F0F0600000000C2
:1044D00000000000000000000000000000000000DC
:1044E0000000000000000000C0C0C000000000008C
:1044F00000000000000000000101010000000000B9
:1045000000000000000000006E7E1E0000000000A1
:1045100000000000000000000000000000008040DB
:10452000000000000000804020100804020100008C
:10453000000000000003040810204080000000007C
:10454000000000000000000000000000010204085C
:10455000000000000000000000000000000000005B
:1045600000000020202020202020202020202020AB
:1045700020000008080808080808080808080808B3
:104580000800000000000000000000000000000023
:10459000000000004080000000000000000000005B
:1045A000000000000000010204081020408000000C
:1045B00000000000000000008040201008040300FC
:1045C00000000000080402010000000000000000DC
:1045D000000000000000808040404040408080009B
:1045E000000000003C3F3900000000000080C17F57
:1045F0003E0000000000000000003E03010100003A
:104600000000000000000000060F0F060000000080
:104610000000000000000080C040404040800000DA
:10462000000000E0FC0E0381E0780C04F83C010679
:10463000F800001FFFC0003F7F40203C7F40201853
:1046400087000000000306040808080808040603A1
:104650000000000000000000C0C0C000000000001A
:10466000000000000000C07C03033FFC800000004D
:1046700000000000807C0F080808080B7FF880000D
:104680000000080C0F08080000000000080F0F0CC5
:104690000800004040C0C04040404040C080800012
:1046A0000000000000FFFF000000000080C17F3E0E
:1046B0000000000000FFFF0101010101010206FCF2
:1046C000F0000008080F0F0808080808080C060387
:1046D0000100000000000080C04040404080808019
:1046E000000000E0FC1E03000000000000000103C9
:1046F0000E00003FFFC000000000000000000000AE
:10470000C0000000000306040808080808040201AD
:104710000000004040C0C040404040C080800000D9
:104720000000000000FFFF000000000000010FFC7F
:10473000F000000000FFFF00000000000000C0FFCC
:104740001F000008080F0F080808080C04030300E6
:104750000000004040C0C040404040404040C0C019
:104760000000000000FFFF000000000080E00001EA
:104770000600000000FFFF0101010101030F00001E
:1047800080000008080F0F080808080808080C0E29
:104790000100004040C0C0404040404040C0C0C058
:1047A0000000000000FFFF000000000080E00001AA
:1047B0000600000000FFFF0101010101031F0000CE
:1047C00000000008080F0F080800000000000000AB
:1047D00000000000000080804040404080800000D9
:1047E000000000E0FC0E03000000000000030E00CB
:1047F0000000001FFFC000000000000404FCFC04D7
:10480000040000000003060C080808080403030065
:1048100000004040C0C04040000000004040C0C018
:1048200040400000FFFF0000000000000000FFFF0C
:1048300000000000FFFF0101010101010101FFFF74
:10484000000008080F0F08080000000008080F0FFC
:10485000080800000040404040C0C04040404000C8
:10486000000000000000000000FFFF00000000004A
:10487000000000000000000000FFFF00000000003A
:104880000000000000080808080F0F0808080800CA
:104890000000000000000040404040C0C0404040D8
:1048A0004000000000000000000000FFFF000000CA
:1048B0000000000000000000000000FFFF000000FA
:1048C00000000070F0F0808080C0603F1F0000009A
:1048D0000000004040C0C04040000040C0C0404018
:1048E0000000000000FFFF0080E018060300000049
:1048F0000000000000FFFF0300030F3CF0C00000B9
:1049000000000008080F0F0808000000090F0E083B
:104910000800004040C0C04040000000000000000F
:104920000000000000FFFF00000000000000000089
:104930000000000000FFFF00000000000000000079
:1049400080000008080F0F080808080808080C0E67
:1049500001004040C0C08000000000000080C0C0D6
:1049600040400000FF0FFFF0000000807807FFFFCD
:1049700000000000FF00011FFEC0F00F0000FFFF5D
:10498000000008080F080000030F000008080F0FC0
:1049900008084040C0C0800000000000004040C047
:1049A00040400000FF01071E78E08000000000FF8B
:1049B00000000000FF0000000001071E78E080FFFB
:1049C000000008080F080800000000000001070FA1
:1049D00000000000000080804040404080800000D7
:1049E000000000F0FC0F01000000000000010FFCBF
:1049F000E000001FFFC00000000000000000C0FF3A
:104A00003F0000000003060408080808040603002D
:104A10000000004040C0C0404040404040C08000D6
:104A20000000000000FFFF0000000000000081FF08
:104A30007E00000000FFFF020202020202010100EC
:104A400000000008080F0F08080000000000000028
:104A50000000000000008080404040408080000056
:104A6000000000F0FC0F01000000000000010FFC3E
:104A7000F000003FFF8080404040C080000080FF89
:104A80003F000000010307040808080F3F76636138
:104A90001000004040C0C04040404040C080800006
:104AA0000000000000FFFF000000000080C17F3E0A
:104AB0000000000000FFFF010101073FF9C00000F6
:104AC00000000008080F0F0808000000010F0E0882
:104AD000080000000080C040404040C08080C0000E
:104AE0000000003E7FE1C0C08080000000030F0096
:104AF000000000E08000000101030307061EFCF037
:104B0000000000000F060408080808080C0603014E
:104B100000000000C0C0404040C0C040404040C015
:104B2000000000060100000000FFFF00000000017F
:104B3000070000000000000000FFFF000000000070
:104B40000000000000000008080F0F080800000027
:104B500000004040C0C04040000000004040C04055
:104B600040000000FFFF0000000000000000FF0008
:104B700000000000FFFF0000000000000000FF0038
:104B8000000000000107060C0808080804020100E4
:104B90000000004040C0C040000000000040C0C015
:104BA000400000000007FFF80000000080780700C8
:104BB000000000000000000FFFF0807807000000F8
:104BC0000000000000000000000F030000000000D3
:104BD000000040C0C040000040C0C040000040C0D5
:104BE000C0400001FFF8000000F3FFF80000C03FE4
:104BF00000000000003FFCE01E0101FFFCF00F0080
:104C00000000000000000F03000000000F01000082
:104C10000000004040C0C040000000004040C040D4
:104C2000400000000001071E78E0C0300C030000C7
:104C3000000000000000806018070F7CF0C000003A
:104C400000000008080E0B0800000000090F0E0C01
:104C500008000040C0C0C040400000004040C040CC
:104C60004000000000031F7CE0800080700E010007
:104C7000000000000000000003FFFE010000000033
:104C80000000000000000008080F0F0808000000E6
:104C90000000000000C0C0C0404040404040C0C0D4
:104CA00040000000060301000000C0F0380E0701BC
:104CB000000000000080C0703C0F030000000000F6
:104CC000800000080E0F090808080808080C0C0FDF
:104CD0000100000000000000F8F8080808080808B3
:104CE0000000000000000000FFFF000000000000C6
:104CF0000000000000000000FFFF000000000000B6
:104D000000000000000000003F3F20202020202065
:104D1000000000000060E000000000000000000053
:104D2000000000000000010F3CE0800000000000D7
:104D300000000000000000000001073CF0C000007F
:104D400000000000000000000000000001073E78A5
:104D500040000000080808080808F8F800000000F3
:104D600000000000000000000000FFFF0000000045
:104D700000000000000000000000FFFF0000000035
:104D8000000000002020202020203F3F00000000E5
:104D900000000000000020101C0C0C0C182000006B
:104DA0000000000000000000000000000000000003
:104DB00000000000000000000000000000000000F3
:104DC00000000000000000000000000000000000E3
:104DD00000000000000000000000000000000000D3
:104DE00000000000000000000000000000000000C3
:104DF00000000000000000000000000000000000B3
:104E000000008080808080808080808080808080A2
:104E100080800000000404040C0810000000000062
:104E20000000000000000000000000000000000082
:104E30000000000000000000000000000000000072
:104E40000000000000000000000000000000000062
:104E50000000000000000000000000000000000052
:104E60000000000080C040202020202060C0800082
:104E7000000000C0E33310180808080804FFFF0012
:104E800000000003070C08080808080404070F08BE
:104E90000806004040C0E0000000000000000000E4
:104EA0000000000000FFFF804020202060C0C00004
:104EB0000000000000FFFF01000000000000FFFFF5
:104EC00000000000000F0706080808080C06030091
:104ED00000000000000000000000000000000000D2
:104EE000000000000000C0C06020202020C0800022
:104EF00000000000FEFF010000000000000303802E
:104F00000000000000030704080808080804020164
:104F100000000000000000000000004040C0E00071
:104F2000000000000080C0602020202040FFFF0023
:104F300000000000FEFF01000000000000FFFF0075
:104F4000000000000003060C08080804020F070414
:104F5000040000000000000000000000000000004D
:104F6000000000000000C0402020202040C0800041
:104F700000000000FEFF11101010101010101F1E76
:104F800000000000000307040C08080808040601DC
:104F9000000000000000000000808040404040C051
:104FA0008000000020202020FEFF20202020200361
:104FB0000300000000000000FFFF000000000000F0
:104FC00000000000000808080F0F0808080800008B
:104FD00000000000000000000000000000000000D1
:104FE000000000000000C0402020202060C0A06021
:104FF0006000000000C7FF3020202020301F0F007D
:1050000000000000387D47838383838382467E3C93
:105010000000004040C0E000000000000000000070
:105020000000000000FFFF804020202060C08000C2
:105030000000000000FFFF000000000000FFFF0074
:1050400000000008080F0F0808000008080F0F08EC
:10505000080000000000000080C0C08000000000C8
:10506000000000000020202020E1F10000000000EE
:10507000000000000000000000FFFF000000000032
:105080000000000000080808080F0F0808080800C2
:10509000000000000000000000000080C0C0C00050
:1050A000000000000000000020202020E1F10000AE
:1050B000000000000000000000000000FFFF0000F2
:1050C000000000000060E080808080603F1F0000E2
:1050D0000000004040C0E0000000000000000000B0
:1050E0000000000000FFFF0000000020E060202022
:1050F0000000000000FFFF30180C3E71C08000006F
:1051000000000008080F0F0808000000090F0E0C2F
:10511000080000000040404040C0E00000000000E7
:10512000000000000000000000FFFF000000000081
:10513000000000000000000000FFFF000000000071
:105140000000000000080808080F0F080808080001
:10515000000000000000000000000000000000004F
:10516000000020E0F040202020E0C040202020E08F
:10517000C00000FFFF00000000FFFF00000000FF74
:10518000FF00080F0F080000080F0F080000080FAD
:105190000F080000000000000000000000000000F8
:1051A0000000004040C0E0804020202060C080001F
:1051B0000000000000FFFF000000000000FFFF00F3
:1051C00000000008080F0F0808000008080F0F086B
:1051D00008000000000000000000000000000000C7
:1051E000000000000000C0402020202040C08000BF
:1051F00000000000FCFF0100000000000001FFFEB5
:105200000000000000030704080808080407030062
:10521000000000000000000000000000000000008E
:105220000000004040C0E0804020202060C080009E
:105230000000000000FFFF00000000000000FFFE73
:105240000000008080FFFF86840808080C07030028
:10525000000000000000000000000000000000004E
:10526000000000000080C04020202060C0C0E0009E
:1052700000000000FEFF01000000000000FFFF0032
:10528000000000000003060C0808088486FFFF8069
:10529000800000000000000000000000000000008E
:1052A00000000040404040E0E0008040402020E01E
:1052B000C0000000000000FFFF030100000000002C
:1052C000000000080808080F0F0808080800000080
:1052D00000000000000000000000000000000000CE
:1052E00000000000000080C0602020202040C0E0BE
:1052F000000000000080070F0C1818383070E0C361
:1053000000000000000F060408080808080C070346
:10531000000000000000000000000000000000008D
:105320000000000020202030F8FF20202020200056
:105330000000000000000000FFFF0000000000006F
:10534000000000000000000003070C080808040328
:10535000000000000000000000000000000000004D
:105360000000002020E0F0000000002020E0F0001D
:105370000000000000FFFF000000000000FFFF0031
:10538000000000000003070C08080804020F0704CF
:105390000400000000000000000000000000000009
:1053A0000000002020E0E020000000002020E0605D
:1053B000200000000001073EF0C000C038070100D7
:1053C0000000000000000000010F070100000000C5
:1053D00000000000000000000000000000000000CD
:1053E00000002060E020200020E0E020000020E01D
:1053F00060200000077FF080F00F1FFCC0C03C035E
:10540000000000000000070F000000010F03000073
:10541000000000000000000000000000000000008C
:10542000000000002020E0E0A000002020E020207C
:105430000000000000000081473E38E6C100000087
:1054400000000008080C0E0900000008090F0E08F3
:105450000800000000000000000000000000000044
:105460000000002020E0E0200000000020E060209C
:10547000200000000000031E78C000E01C030000B4
:1054800000000000C0C0C0C0601F0300000000009A
:10549000000000000000000000000000000000000C
:1054A00000000000E0E0202020202020E0E060005C
:1054B00000000000030080C0F0381E0703000080D9
:1054C000000000000C0E0B0908080808080C0E0369
:1054D000000000000000000000000000F0080404CC
:1054E0000000000000000000000080807F0000003D
:1054F000000000000000000000010102FC000000AC
:105500000000000000000000000000001F204040DC
:1055100000000000000000000000FF00000000008C
:1055200000000000000000000000FF00000000007C
:1055300000000000000000000000FF00000000006C
:1055400000000000000000000000FF00000000005C
:105550000000000000040408F0000000000000004B
:1055600000000000000000007F80800000000000BC
:105570000000000000000000FC020101000000002B
:1055800000000000004040201F000000000000005C
:105590000000001804020202060C3820604040207F
:1055A00018000000000000000000000000000000E3
:1055B00000000000000000000000000000000000EB
:1055C00000000000000000000000000000000000DB
:1055D00000000000000000000000000000000000CB
:1055E00000000000000000000000000000000000BB
:1055F00000000000000000000000000000000000AB
:10560000000000000000000000000000000000009A
:10561000000000000000000000000000000000008A
:10562000000000000000000000000000000000007A
:10563000000000000000000000000000000000006A
:10564000000000000000000000000000000000005A
:10565000000000000000000000000000000000004A
:10566000000000000000000000000000000000003A
:10567000000000000000000000000000000000002A
:10568000000000000000000000000000000000001A
:10569000000000000000000000000000000000000A
:1056A00000000000000000000000000000000000FA
:1056B0000000000000000000000000000000FCFEF0
:1056C000FEFC0000000000000000000000000000E0
:1056D000000000000000000000000FFFFF1F00009E
:1056E00000000000000000000000000000000000BA
:1056F00000000000000000FFFF00000000000000AC
:105700000000000000000000000000000000000099
:105710000000000F0F00000000000000000000006B
:105720000000000000000000000000000078FCFC09
:10573000FCFC7800000000000000000000000000F9
:105740000000000000000000000000000000000059
:105750000000000000000000000000000000000049
:10576000000000C0F0F8F8F870000000C0F0F8F891
:10577000F870000000000000000080E0703C1F0F87
:1057800007030180E0703C1F0F07030100000000C9
:105790000000000000000100000000000000000107
:1057A00000000000000000000000000000000000F9
:1057B00000000000000000000000000000000000E9
:1057C00000000000000000000000000000000000D9
:1057D00000000000000000000000000000000000C9
:1057E00000000000000000000000000000000000B9
:1057F00000000000000000000000000000000000A9
:105800000000000000000000000000000000000098
:105810000000000000000000000000000000000088
:105820000000000000000000000000000000000078
:105830000000000000000000000000000000000068
:105840000000FEFE0000000000000000000000FE5E
:105850007E000000000000007C7C7C7C7CFCFF7FE4
:105860007C7C7C7C7C7C7C7C7C7CFFFF7C7C7C7C72
:10587000000000000000000000FFFF00000000002A
:105880000000000000F0FF0F00000000000000001A
:105890007C7C7C7CFCFF7F7C7C7C7C7C7C7C7C7C42
:1058A0007CFFFF7C7C7C7C7C000000000000000012
:1058B000FFFF00000000000000000000FEFF0100EC
:1058C00000000000000000000000000000000000D8
:1058D00000000000000000000000000000000000C8
:1058E000000000000000000000000000000000C0F8
:1058F000C0000000000000000000000000000000E8
:1059000000000000C0E0F078181C0CFFFF0C0C1C1D
:1059100038F8F0E0C0000000000000000000001FA8
:10592000FFFFFFF0C08000FFFF0000000E0F0F0F11
:105930000700000000000000000000000001030755
:105940000F1F1FFFFFFCF8F0E0C080000000000008
:10595000000000000000C0E0E0E0E000000000FF08
:10596000FF0001030FFFFFFEF80000000000000031
:105970000000071F3F3F7160C0C0C0FFFFC0E06074
:10598000783F1F0F0300000000000000000000002F
:10599000000000000000003F3F0000000000000089
:1059A00000000000000000000000000000000000F7
:1059B00000000000000000000000000000000000E7
:1059C00000000080F0F81C060202060CF8F08000CF
:1059D00000000000C0F81E0600000000000000FFEC
:1059E000FFFF000000000000FFFFFF0000E0781F45
:1059F00003000000000000000000000003070E1874
:105A00001010180E0F83E03C0F0380C0E030101020
:105A100030E0C0800000000000000000000080F0C6
:105A20003C07010000FCFFFF000000000000FFFF3A
:105A3000FC000000000000C0F01E07000000000095
:105A400000031F3F70C08080C0707F1F07000000F0
:105A50000000000000000000000000000000000046
:105A60000000000000000000000000000000000036
:105A70000000000000000000000000000000000026
:105A80000000000000000000000000C0F0F80C065C
:105A9000020206FEFCF8E00000000000000000002A
:105AA000000000000000003FFFFFE0000080F0FF6A
:105AB0007F3F070000000000000000000000000021
:105AC00000C0E0F01F3FFFFEFBC301000000040424
:105AD0000CFCFC0C04040400000000FCFFFFFF00B1
