:020000040800F2
:1000000000130020CD010008290F0008AD0D0008E5
:10001000250F000887020008C11E0008000000002C
:10002000000000000000000000000000CD160008E5
:10003000010C00080000000017140008B9170008A0
:10004000E7010008E7010008E7010008E7010008F0
:10005000E7010008E7010008E7010008E7010008E0
:10006000E7010008E7010008E7010008E7010008D0
:10007000090700084507000865070008A1070008F0
:10008000D1070008F1070008E7010008E7010008B0
:10009000E7010008E7010008E7010008E7010008A0
:1000A000E7010008E7010008E7010008E701000890
:1000B0001D1800088D180008E7010008E701000876
:1000C000E7010008E7010008E7010008C51400087F
:1000D000E7010008A51A0008391C00089D1D00084A
:1000E000E7010008E7010008E7010008E701000850
:1000F000E7010008E7010008E7010008E701000840
:10010000E7010008E7010008E7010008E70100082F
:10011000E7010008E7010008E7010008E70100081F
:10012000E7010008E7010008E7010008E70100080F
:1001300000F002F800F03AF80AA090E8000C8244BF
:100140008344AAF10107DA4501D100F02FF8AFF29C
:10015000090EBAE80F0013F0010F18BFFB1A43F0A5
:1001600001031847ACC20000CCC20000103A24BF03
:1001700078C878C1FAD8520724BF30C830C144BF0C
:1001800004680C607047000000230024002500264E
:10019000103A28BF78C1FBD8520728BF30C148BFEA
:1001A0000B6070471FB51FBD10B510BD00F031F8D2
:1001B0001146FFF7F7FF02F095FE00F04FF803B489
:1001C000FFF7F2FF03BC00F057F800000948804732
:1001D00009480047FEE7FEE7FEE7FEE7FEE7FEE729
:1001E000FEE7FEE7FEE7FEE704480549054A064B41
:1001F00070470000BD17000831010008000D002005
:1002000000130020000F0020000F002070477047EF
:100210007047754600F02CF8AE4605006946534617
:1002200020F00700854618B020B5FFF7DDFFBDE8D8
:1002300020404FF000064FF000074FF000084FF04D
:10024000000B21F00701AC46ACE8C009ACE8C009DE
:10025000ACE8C009ACE8C0098D46704710B504464B
:10026000AFF300802046BDE81040FFF7A8BF0000B4
:1002700000487047A00C002001491820ABBEFEE7E3
:1002800026000200704700BFFEE700002DE9F043A2
:1002900085B004460D4616461F46DDF830904FF0F7
:1002A000000814B10DB106B11FB9012005B0BDE8B9
:1002B000F083601EC4B2681EC5B2701EC6B2781E3E
:1002C00087B20121480601F0B7F80121042001F0AE
:1002D000C3F84FF40060ADF8100048208DF813000B
:1002E00004A9484800F08DFC4FF48050ADF8100090
:1002F00018208DF8130003208DF8120004A941483E
:1003000000F07FFC0020404908600846006840F08B
:100310000100086008E008F101001FFA80F8B8F158
:10032000640F01DD0220C1E73748006800F00100DA
:100330000028F0D034480068334908600846006857
:1003400040F0400008600846006840F02000086067
:1003500008460068086008460068086008460068AB
:1003600020F002000860002027491C310860084680
:10037000006840EA897008600846006840EA046046
:1003800008600846006840EA0550086008460068B2
:1003900040EA0640086008460068384308601A488A
:1003A000006820F001001849086009E008F1010028
:1003B0001FFA80F84FF6F070804501DD032075E7E5
:1003C0001148006800F001000028EFD101208DF8ED
:1003D0000A0000208DF80B0001208DF80C00002091
:1003E000ADF80000ADF80600ADF80400ADF8060069
:1003F000ADF8080001208DF80D00684600F0EEF819
:10040000002053E70008014000640040F8B50646AC
:100410000D4600240823002211463046009500F0C6
:1004200015F8074601E0601C84B2384600F094F8E5
:10043000072803D040F6FF708442F4DB40F6FF70DB
:10044000844201DB0120F8BD0020FCE7F0B5054641
:100450000E46059C3E48006800F0806008B100210F
:100460000FE03B48006800F0006008B1012108E09F
:100470003748006800F0805008B1022101E0FF20F9
:10048000F0BD0027334800EB011007601EB9C5F32B
:100490000A056D0502E025F06045ED002D4800EBF2
:1004A0000110006828432B4F07EB011738602948DB
:1004B00000EB0110006840EA8607264800EB0110B7
:1004C0000760244800EB0110006840EA4207214819
:1004D00000EB0110076003F00F031E4800EB011052
:1004E000406820F00F071B4800EB011047601948D7
:1004F00000EB011040681843164F07EB01177860B6
:10050000E0790006A77940EA0740677940EA0727C3
:10051000207907430F4800EB0110C760E078000620
:10052000A77840EA0740677840EA072027783843F1
:10053000084F07EB0117B860064800EB0110006890
:1005400040F00107034800EB01100760084697E7F9
:1005500008640040806500400146002021B1012967
:1005600013D0022933D121E01B4A126802F00102A4
:100570001043194A126802F002021043164A126828
:1005800002F0806240EA126023E0134A126802F02F
:1005900001021043104A126802F0020210430E4A90
:1005A000126802F0006240EA526012E00A4A1268E1
:1005B00002F001021043084A126802F002021043DE
:1005C000054A126802F0805240EA926001E005207C
:1005D00000BF00BF704700000864004010B5002154
:1005E000837A012202FA03F13D4A126842F00102C5
:1005F0003B4B1A603A4A1C3212688A43384B1C3310
:100600001A60027BCAB9364A0C3212688A43344BEC
:100610000C331A604288C38842EA0343304A4032AE
:10062000847A42F834300288838842EA03432C4AB1
:100630004032847A02EBC4025360027B012A19D152
:10064000274A0C3212680A43254B0C331A60428841
:10065000038842EA0343224A4032847A42F8343023
:10066000C288838842EA03431D4A4032847A02EBFF
:10067000C4025360C27A3AB9194A121D12688A43F9
:10068000174B1B1D1A6006E0154A121D12680A431B
:10069000134B1B1D1A60028932B9114A14321268B9
:1006A0008A430F4B14331A600289012A06D10C4A7F
:1006B000143212680A430A4B14331A60427B012A2F
:1006C00006D1074A1C3212680A43054B1C331A60D4
:1006D000034A126822F00102014B1A6010BD0000AB
:1006E0000066004030B504460D46152000F046FE79
:1006F00004F10801C8B200F03BFE05F10801C8B2E0
:1007000000F036FE30BD00000B48406840F020008D
:10071000094948600846406840F40070486007484E
:10072000008820F080000549088005480078401CBA
:100730000349087070470000000002401448004060
:100740002700002010B54FF4007000F08FF838B18A
:100750004FF4007000F070F84FF4007000F05EF895
:1007600010BD00000B48406840F400500949486043
:100770000846406840F4805048600748008820F0F0
:1007800080000549088005480078401C034908702E
:100790007047000000000240143801402300002090
:1007A00010B50A48406840F40030084948604FF4EA
:1007B000003000F05BF840B100210448583000F0F0
:1007C00049F84FF4003000F037F810BD0000024047
:1007D00010B54FF4001000F049F828B10348406804
:1007E00040F400300149486010BD000000000240A4
:1007F0000848406840F00070064948600846406874
:1008000040F0807048600448008820F08000024971
:1008100008807047000002401444004000F08051FE
:1008200011B10349086001E00249486070470000C7
:10083000040402400000024000F0805111B103495D
:10084000086001E00249486070470000040402406B
:100850000000024021B1026842F00102026004E09F
:1008600002684FF6FE731A4002607047014600208E
:10087000002201F0805313B1054B1A6801E0054BCB
:100880001A6802EA01030BB1012000E00020704762
:100890000004024000000240F8B504460F46164628
:1008A0001D460121084600F0B7FD2148406940F08F
:1008B00001001F494861A760E6601E480580656029
:1008C00000202060206840F0020020602068206046
:1008D0002068206020682060206840F08000206050
:1008E0002068206020682060206840F480502060EC
:1008F000206820601048008840F040000E490880C1
:10090000206840F001002060206840F00200206074
:100910000F208DF8000003208DF801008DF80200F3
:1009200001208DF80300684600F006FBF8BD0000CA
:10093000001002400200002014380140F8B50446BF
:100940000F4616461D460121084600F065FD1A486F
:10095000406940F0010018494861A760E660174807
:100960000580656000202060206840F01000206055
:100970002068206020682060206840F080002060AF
:100980002068206020682060206820602068206047
:10099000206840F0020020600E208DF80000032047
:1009A0008DF801008DF8020001208DF803006846E3
:1009B00000F0C2FAF8BD0000001002400200002062
:1009C000F8B504460F4616461D460121084600F0BC
:1009D00023FD1F48406940F001001D494861A760A0
:1009E000E6601C480580656000202060206840F0BB
:1009F000020020602068206020682060206820605D
:100A0000206840F08000206020682060206820601E
:100A1000206840F480502060206820600E480088E4
:100A200040F040000C490880206840F00100206040
:100A300010208DF8000003208DF801008DF80200D1
:100A400001208DF80300684600F076FAF8BD00003A
:100A5000001002400400002014440040F8B5044691
:100A60000F4616461D460121084600F0D5FC1A48DF
:100A7000406940F0010018494861A760E6601748E6
:100A80000580656000202060206840F01000206034
:100A90002068206020682060206840F0800020608E
:100AA0002068206020682060206820602068206026
:100AB000206840F00200206011208DF80000022024
:100AC0008DF801008DF8020001208DF803006846C2
:100AD00000F032FAF8BD00000010024004000020CF
:100AE000F8B504460F4616461D460121084600F09B
:100AF00093FC1F48406940F001001D494861A76010
:100B0000E6601C480580656000202060206840F099
:100B1000020020602068206020682060206820603B
:100B2000206840F0800020602068206020682060FD
:100B3000206840F480502060206820600E480088C3
:100B400040F040000C490880206840F0010020601F
:100B50000D208DF8000003208DF801008DF80200B3
:100B600001208DF80300684600F0E6F9F8BD0000AA
:100B7000001002400400002014480040F8B504466C
:100B80000F4616461D460121084600F045FC1A484E
:100B9000406940F0010018494861A760E6601748C5
:100BA0000580656000202060206840F01000206013
:100BB0002068206020682060206840F0800020606D
:100BC0002068206020682060206820602068206005
:100BD000206840F0020020600C208DF80000032007
:100BE0008DF801008DF8020001208DF803006846A1
:100BF00000F0A2F9F8BD000000100240040000203F
:100C000070472DE9F0410246002500260020002310
:100C10000024002791F803C00CF00F0591F803C0E1
:100C20000CF0100CBCF1000F03D091F802C04CEA9C
:100C3000050591F800C0BCF1000F31D01468002008
:100C40002BE04FF0010C0CFA00F3B1F800C00CEAF5
:100C500003069E4220D183004FF00F0C0CFA03F7DD
:100C6000BC4305FA03FC4CEA040491F803C0BCF150
:100C7000280F06D14FF0010C0CFA00FCC2F814C08A
:100C80000AE091F803C0BCF1480F05D14FF0010C08
:100C90000CFA00FCC2F810C0401C0828D1D3146024
:100CA000B1F800C0BCF1FF0F34DD546800202EE025
:100CB00000F1080C4FF0010808FA0CF3B1F800C07D
:100CC0000CEA03069E4221D183004FF00F0C0CFA70
:100CD00003F7BC4305FA03FC4CEA040491F803C093
:100CE000BCF1280F05D100F1080C08FA0CF8C2F885
:100CF000148091F803C0BCF1480F07D100F1080C33
:100D00004FF0010808FA0CF8C2F81080401C0828BF
:100D1000CED35460BDE8F081F0B50A46002300242C
:100D20000021002500F00046B6F1004F02D11D4E13
:100D3000F16901E01B4E7168C0F3034583B200F412
:100D40004016B6F5401F08D121F07061154E766847
:100D500026F07066134F7E6012E000F48016B6F540
:100D6000801F06D1032606FA05F4A14341F0706105
:100D700006E0460D360103FA06F6B14341F0706114
:100D800022B1460D360103FA06F6314300F0004663
:100D9000B6F1004F02D1034EF16101E0014E7160E6
:100DA000F0BD0000000001400161704700BFFEE798
:100DB0004AF6AA2001490860704700000030004050
:100DC00045F25552054B1A601A46506091604AF63A
:100DD000AA221A604CF6CC421A60704700300040DC
:100DE00008B501210D2000F037FB0121702000F033
:100DF00033FB01211E48FFF78FFF4FF4E940ADF8A8
:100E000000004FF43060ADF8000048208DF803007A
:100E100069461848FFF7F5FE40F2C310ADF8000030
:100E200048208DF8030069461348FFF7EAFE3E208C
:100E3000ADF8000048208DF8030069460F48FFF721
:100E4000E0FEF820ADF8000048208DF80300694668
:100E50000B48FFF7D6FE4FF4F040ADF800004820F5
:100E60008DF8030069460648FFF7CBFE08BD000079
:100E70000002300000180140000C01400010014049
:100E80000014014008B501210D2000F0E5FA012110
:100E9000702000F0E1FA01211E48FFF73DFF4FF4FA
:100EA0000070ADF8000010208DF8030003208DF8CD
:100EB000020069461848FFF7A4FE4FF40071164877
:100EC000FFF772FF4FF40070ADF8000010208DF8AE
:100ED000030003208DF8020069461048FFF791FED9
:100EE0004FF400710D48FFF75FFF4FF48070ADF8CD
:100EF000000010208DF8030003208DF802006946E1
:100F00000748FFF77EFE4FF480710548FFF74CFF5E
:100F100008BD000000023000000C0140001001403C
:100F20000008014000BFFEE7704710B54FF4A06015
:100F300000F03AF810BD000070B5002100230F2228
:100F4000C47804B3154C246804F4E064C4F5E06488
:100F5000210AC1F10403CA40447804FA03F18478F9
:100F60001440214309010E4C0678A155047804F081
:100F70001F050124AC4005786D11AD0005F1E02599
:100F8000C5F8004109E0047804F01F050124AC40D5
:100F9000044D0678761145F8264070BD0CED00E052
:100FA00000E400E080E100E002490143024A1160F0
:100FB000704700000000FA050CED00E02DE9F04755
:100FC00004460E4615461F46DDF820A02046E117D0
:100FD00004EB9171C1F38F042846E91705EB917179
:100FE000C1F38F056A1ED1B2E0B2FFF77BFB7A1E18
:100FF000D1B2F0B200F040FA04F0FF0812E006F0BF
:10100000FF0909E0504600F0B3F9504600F0B0F98E
:1010100009F1010000F0FF09B945F3DB08F1010017
:1010200000F0FF08A845EADBBDE8F08708B501211C
:101030007C2000F011FA0121084600F00DFA012190
:101040002848FFF769FE2820ADF8000010208DF831
:10105000030003208DF8020069462348FFF7D1FD05
:101060004FF40040ADF8000010208DF8030003207D
:101070008DF8020069461D48FFF7C3FD4FF400419B
:101080001A48FFF791FE4FF44070ADF800001020B1
:101090008DF8030003208DF8020069461448FFF71D
:1010A000B0FD4FF4E050ADF8000010208DF80300C3
:1010B00003208DF8020069460E48FFF7A2FD4FF4A9
:1010C00000410C48FFF770FE0720ADF8000010202B
:1010D0008DF8030003208DF8020069460448FFF7ED
:1010E00090FD08BD00023000000C014000180140D6
:1010F00000140140001001402DE9FF4F85B0074664
:101100008A461C46022003904FF0000B00200290FC
:101110003846F91707EB9171C1F387072046E217AC
:1011200004EB9272911001EBD172C2F34702049268
:10113000E21704EB127212112146E31704EB13734A
:101140001B11A4EB03130BB1012300E000231A448D
:10115000624392B200920798203800F0FF0804988A
:101160003844401EC1B23846FFF7BCFA0AEB04000F
:10117000401EC1B2504600F07FF9002679E0102CE5
:1011800005D13F4800EB081010F8069010E0182C2D
:1011900007D108EB48003B4901EB001010F806901E
:1011A00006E0202C04D1384800EB881010F8069097
:1011B000E11704EB11710911A4EB011191B1204663
:1011C000E11704EB11710911491CC9B20191019990
:1011D00096FBF1F001FB106010B10120039001E0DB
:1011E0000220039000253FE0A9000120884000EA8A
:1011F000090008B14FF00F0B012000EB850188407A
:1012000000EA090008B14BF0F00B022000EB850169
:101210000120884000EA090008B10F200290032055
:1012200000EB85010120884000EA090018B102980E
:1012300040F0F0000290129850B10299C943C8B230
:1012400000F096F86FEA0B01C8B200F091F805E0E3
:10125000029800F08DF8584600F08AF84FF0000B25
:1012600000200290681C85B203988542BCDB701C8C
:1012700086B20098864282DB09B0BDE8F08F00009C
:10128000A68B00089691000866A300082DE9F84196
:1012900006460F4614461D46DDF81C800EE0CDF8CC
:1012A000008022782B4639463046FFF725FF641C24
:1012B000284605EBD07106EB6101CEB220780028FC
:1012C000EDD1BDE8F8810000244A127842B900222D
:1012D000234B1A600122234BC3F8B021224B1A6022
:1012E0001E4A1278012A08D11D4B1A6000221D4B9C
:1012F000C3F8B02101221C4B1A60184A1278022A46
:1013000008D10122164B1A60164BC3F8B0210022F7
:10131000154B1A60002115E00022144B1A6000F0F2
:10132000800222B10122114B08331A6003E000222F
:101330000E4B08331A6001220C4B1A604206100E45
:101340004A1CD1B20829E7DB0122054B1A60054B84
:10135000C3F8B021044B1A607047000062000020FF
:10136000BC01234200002242808122428C81214222
:1013700010B504462046FFF7A7FF10BD10B5044680
:101380001A48007848B90020194908600120194915
:10139000C1F8AC01164920390860144800780128CA
:1013A00009D11349086000201249C1F8AC0101209D
:1013B0000F49203908600D480078022809D1012022
:1013C0000B4908600B49C1F8AC01002008492039DD
:1013D00008602046FFF778FF0120054908600549AD
:1013E000C1F8AC0102492039086010BD620000203C
:1013F000A48122420000224270B504460025104616
:1014000005E0265C4E556E1CF5B2461CF0B29E18E7
:101410008642F6DC70BD704729B1064A5269024324
:10142000044B5A6104E0034A52698243014B5A61FA
:10143000704700000010024029B1064AD2690243F9
:10144000044BDA6104E0034AD2698243014BDA615A
:10145000704700000010024029B1064A9269024319
:10146000044B9A6104E0034A92698243014B9A61FA
:10147000704700000010024030B505460C4675204C
:10148000FFF77CFF2846FFF773FF2046FFF770FF4A
:101490005C20FFF773FF30BD70B504460B46002596
:1014A000002101260AE0881C185C6054881C185C26
:1014B000284485B2481C81B2701C86B29642F2DB89
:1014C000E8B270BD10B56021194800F0D3F868B3D8
:1014D000174800F0D8F81749174A12888854164858
:1014E0000088401C14490880084600880A2804DB4C
:1014F0000020088001201149087000BF01210C481C
:1015000000F0B8F80028F9D00D480E4A1288815C26
:10151000074800F0BBF80B480088401C09490880C8
:10152000084600880A2801DB0020088010BD000062
:1015300000300140320800202E0000203200002040
:10154000280800203000002000B587B001210820C5
:10155000FFF782FF01218803FFF76EFF4FF4604021
:10156000ADF818001C208DF81B0003208DF81A0020
:1015700006A91648FFF745FB0020ADF804004FF41C
:101580008270ADF806000020ADF808000220ADF82A
:101590000A000120ADF80C004002ADF80E00082052
:1015A000ADF810000020ADF812000720ADF81400CF
:1015B00001A9074800F06CF80121054800F04EF839
:1015C000FF2000F007F807B000BD0000000C01404C
:1015D0000038004070B50446002505E0681CC5B21F
:1015E000C82D01DD002070BD0221074800F042F83F
:1015F0000028F3D02146044800F048F800250248AE
:1016000000F041F8C0B2EEE7003800402DE9F041AB
:1016100005460E464FF00008002419E02F5D09E052
:1016200008F1010000F0FF08B8F1C80F02DD00204A
:10163000BDE8F0810221084800F01CF80028EFD036
:101640003946054800F022F84FF00008601C84B2CB
:10165000B442E3DB0020EBE70038004021B1028810
:1016600042F04002028004E002884FF6BF731A4045
:10167000028070470246002013890B400BB1012005
:1016800000E00020704701468889704781817047DB
:1016900010B50022028802F441520B884C88234383
:1016A0008C882343CC8823430C8923434C892343D0
:1016B0008C892343CC8923431A430280838B4FF2C6
:1016C000FF74234083830B8A038210BD704710B5DB
:1016D00000F002F810BD00000CB500200190009051
:1016E0003348006840F480303149086000BF30481A
:1016F000006800F4003000900198401C01900098B0
:1017000018B90198B0F5A06FF1D12948006800F42C
:10171000003010B10120009001E0002000900098FE
:10172000012843D12348006840F010002149086097
:101730000846006820F0030008600846006840F092
:10174000020008601A484068194948600846406825
:1017500048600846406840F4806048600846406839
:1017600020F47C1048600846406840F4E810486067
:101770000846006840F08070086000BF0C480068B0
:1017800000F000700028F9D00948406820F00300FC
:10179000074948600846406840F00200486000BFC2
:1017A0000348406800F00C000828F9D10CBD000087
:1017B00000100240002002407047000010B513489E
:1017C000006840F00100114908600846406810496F
:1017D00008400E494860084600680E4908400B4919
:1017E00008600846006820F48020086008464068C9
:1017F00020F4FE0048604FF41F008860FFF767FF89
:101800004FF000600449086010BD00000010024065
:101810000000FFF8FFFFF6FE08ED00E010B5012123
:10182000880700F0D2F818B10121880700F0BEF84F
:1018300010BD7FB505460C4601210846FFF7FCFDAB
:10184000ADF80850ADF804400020ADF80A00ADF83E
:10185000060001A94FF0804000F0D2F801221146A5
:10186000900700F0C3F81C208DF8000000208DF8D0
:1018700001008DF8020001208DF803006846FFF793
:101880005BFB0121880700F094F87FBD10B50121B2
:10189000224800F09AF800283FD021480088401CD8
:1018A0001F4908801F480088401C1E4908801E48A8
:1018B0000088401C1C4908801C480088401C1B49AB
:1018C00008801B480088401C194908801948008876
:1018D000401C1849088018480078012804DB174884
:1018E0000088401C1549088015480078012804DB51
:1018F00014480088401C134908800A4800880A28B8
:1019000007DB0020074908800F480088401C0E496B
:1019100008800121014800F049F810BD0004004092
:10192000080000200A0000200C0000201000002009
:10193000180000201A0000202300002012000020C0
:1019400027000020160000201C0000207FB505465F
:101950000C4601210220FFF76FFDADF80850ADF8ED
:1019600004400020ADF80A00ADF8060001A90E48B9
:1019700000F046F8012211460B4800F037F81D2010
:101980008DF8000000208DF8010003208DF8020082
:1019900001208DF803006846FFF7CEFA01210248C6
:1019A00000F007F87FBD000000040040CA43028237
:1019B000704721B1028842F00102028004E00288EF
:1019C0004FF6FE731A400280704730B50246002081
:1019D00000230024158A05EA0103958905EA01041C
:1019E00013B10CB1012000E0002030BD1AB1838991
:1019F0000B43838102E083898B438381704700001E
:101A0000002202881D4B98420ED01D4B98420BD0ED
:101A1000B0F1804F08D01B4B984205D01A4B98422A
:101A200002D01A4B984204D14FF68F731A404B885C
:101A30001A43174B984207D0164B984204D04FF6E2
:101A4000FF431A40CB881A4302808B8883850B881A
:101A500003850A4B98420BD0094B984208D00E4B95
:101A6000984205D00D4B984202D00D4B984201D1BF
:101A70000B7A03860123838270470000002C01400B
:101A8000003401400004004000080040000C004009
:101A9000001000400014004000400140004401409C
:101AA0000048014010B540F22441384800F0DEF90A
:101AB00000286AD03548008800F04000402807D14F
:101AC00032480C30008820F0400030490C3108804A
:101AD0002E48008800F02000202805D12B480088DF
:101AE00020F02000294908802848008800F01000D4
:101AF000102837D12548008820F01000234908809D
:101B000008460088224908802048001D0088088077
:101B10002048806D20F001001E4988651B48143064
:101B2000008820F040001949143108804FF43570C6
:101B30001849C8650846806D40F001008865134863
:101B40001430008840F040001049143108801148DA
:101B5000406840F400300F4948600846406840F44F
:101B6000005048600948008820F0100007490880AC
:101B700006480C30008820F0400004490C310880F1
:101B800005480078401C0449087010BD0038014029
:101B900028000020000002402200002000B50020A4
:101BA0001E4908601E480078012835DB00201C49CA
:101BB00008701C480078A8282ED11A4840780128BF
:101BC0002AD10020174908704FF43571154800F0EC
:101BD0000FFB1549087040F2D321124801F093FA27
:101BE000104991F8D312884216D140F2D3220D4900
:101BF0000E48FFF751FC0C4800780D4909788842DF
:101C000002D025200B490870074800780849087061
:101C10000020044981F8D30200BD0000A001214248
:101C20002200002064000020340000206404002012
:101C300033000020370000202F48008800F04000CB
:101C4000402807D12C480C30008820F040002A4959
:101C50000C3108802848008800F01000102836D188
:101C60002548008820F01000234908800846008895
:101C7000224908802048001D008808802048C06E46
:101C800020F001001E49C8661B481430008820F06F
:101C90004000194914310880B420194908670846E2
:101CA000C06E40F00100C86613481430008840F050
:101CB00040001149143108801148406840F4001078
:101CC0000F4948600846406840F0007048600A4884
:101CD000008820F010000849088007480C30008870
:101CE00020F0400004490C31088006480078401C70
:101CF0000449087070470000004400402A0000209A
:101D0000000002402400002000B500201C490860AB
:101D10001C480078012832DB00201A4908701A4854
:101D20000078B7282BD118484078012827D1002007
:101D300015490870AD21144800F05AFA134908708B
:101D4000AC21114801F0DFF90F4991F8AC1088423D
:101D500015D1AC220C490E48FFF79EFB0B480078CA
:101D60000C490978884202D03B200B49087007488B
:101D70000078084908700020034981F8AC0000BDD4
:101D8000A40122422400002070030020360000201D
:101D90005C070020350000203E0000202F4800880E
:101DA00000F04000402807D12C480C30008820F07B
:101DB00040002A490C3108802848008800F01000B3
:101DC000102836D12548008820F0100023490880CB
:101DD00008460088224908802048001D00880880A5
:101DE0002048006B20F001001E4908631B48143096
:101DF000008820F040001949143108800C2019494E
:101E000048630846006B40F0010008631348143033
:101E1000008840F0400011491431088011484068A2
:101E200040F020000F4948600846406840F40070C8
:101E300048600A48008820F01000084908800748D8
:101E40000C30008820F0400004490C31088006481E
:101E50000078401C044908707047000000480040AA
:101E60002C000020000002402600002070B5024631
:101E7000002400230025002040F66A16B14200D15C
:101E800000BFC1F3421501F01F03012606FA03F358
:101E9000012D02D19689334006E0022D02D1168A27
:101EA000334001E0968A33400C12012606FA04F40E
:101EB0001688344013B10CB1012000E0002070BD41
:101EC00000BFFEE77FB5002003904FF4407600246A
:101ED00010E00E48005D00F00F0500201921009170
:101EE0000B460A46CDE901102946204600F012F8BB
:101EF000601CC4B2182CECDB31460548FFF786FBAA
:101F0000022103A8FFF782FB7FBD0000860C0020A2
:101F1000860900202DE9F04FDDE90AC8099F4FF03E
:101F2000080B0BEB401BDFF8E8E00BEB0E04F3466D
:101F30000BEB40154FF0100B0BEB401B0BEB0E06A1
:101F40004FF0180B0BEB401B0BEB0E094FF0000A88
:101F500058E0012909D10CF0800BBBF1000F04D02F
:101F60004FF0F80B85F800B003E04FF0E00B85F878
:101F700000B0022909D102F0800BBBF1000F04D0A0
:101F80004FF0F80B84F800B003E04FF0E00B84F85A
:101F900000B0032909D103F0800BBBF1000F04D07E
:101FA0004FF0F80B86F800B003E04FF0E00B86F836
:101FB00000B0042909D107F0800BBBF1000F04D059
:101FC0004FF0F80B89F800B003E04FF0E00B89F810
:101FD00000B04FEA426B4FEA1B624FEA436B4FEA95
:101FE0001B634FEA476B4FEA1B674FEA4C6B4FEAA4
:101FF0001B6C641C761C09F101096D1C0AF1010BB4
:102000000BF0FF0ABAF1080FA3DBBDE8F08F000068
:102010008609002000205F4908705F48006828B9E1
:102020000846007840F00100087005E05948007843
:1020300020F00100574908705748001D006830B96A
:102040005448007840F002005249087005E05148B9
:10205000007820F002004F4908704F4808300068AF
:1020600030B94C48007840F004004A49087005E057
:102070004848007820F004004649087046480C3073
:10208000006830B94348007840F0080041490870C2
:1020900005E04048007820F008003E4908703D48BF
:1020A000007801280DD100203C49088040F20460EE
:1020B0003B49088019203B4908701E203A49088096
:1020C00066E03448007802280DD178203349088032
:1020D00040F20660324908803120324908702820D9
:1020E0003149088054E02B48007803280DD1F020B6
:1020F0002A4908804FF4C1602949088049202949AC
:10210000087032202849088042E0224800780428DC
:102110000ED14FF4B470214908804FF4C2602049B9
:10212000088061201F4908703C201F4908802FE06B
:102130001848007805280ED14FF4F0701749088030
:1021400040F212601649088079201649087046202E
:10215000154908801CE00F48007806280ED14FF47E
:1021600016700E49088040F214600D4908809120D5
:102170000C49087050200C49088009E000200749EC
:1021800008804FF4A06006490880012005490870C6
:1021900070470000390000202C8122423A000020C4
:1021A000560000203D0000205400002030B51520CE
:1021B000FFF7E4F80020FFF7E1F83F20FFF7DEF833
:1021C0007520FFF7DBF80020FFF7D8F87F20FFF736
:1021D000D5F8002408E0002503E00020FFF7C8F848
:1021E0006D1C402DF9DB641C802CF4DB30BD00003D
:1021F00070B502460C46FF25FF2309E012F8010BDB
:1022000080EA05010648405C80EA03050548435C16
:10221000201EA4F10104F1D143EA052070BD0000A5
:10222000A6890008A68A0008002107E042F6E061BE
:1022300000BF0A1EA1F1010399B2FAD1021EA0F15A
:10224000010398B2F2D1704708B59148008823285D
:102250001EDB00BF18238F4802788F498F48FFF795
:10226000CBF800208A490880FFF72CFE8C480078C4
:102270003B280DD18B480078401C8A4908700846DD
:102280000078032804DB0020854908708049088015
:10229000FEF78EFD00F0E8F9834800788349087066
:1022A00081484078487080488078887080480088ED
:1022B000C82802DDD2207E4908807E4800780028A8
:1022C0000CDD7C480078182808DC01207A49087069
:1022D00000207A490870774908700AE0774800784A
:1022E0001E2806DB00207349087073490870734983
:1022F000087072480078962802DDC8206F4908707F
:102300006D48007880B36A48008802282CDB6B484F
:102310000078401C694908700020654908806349BD
:1023200067480088FEF772F828B166480078401CBC
:102330006449087002E00020624908706148007832
:10234000052807DC60480078012803DA5F48007838
:10235000012809DB00205B490870062302220321C3
:1023600000900120FDF792FFFFF718FCFFF7CCFC6F
:1023700057480078252875D156480288564957484D
:1023800000F054FE53480088143082B25449534838
:1023900000F04CFE4F480088283082B251494F4827
:1023A00000F044FE4B4800883C3082B24E494B4816
:1023B00000F03CFE47480088503082B24B49474805
:1023C00000F034FE43480088643082B248494348F4
:1023D00000F02CFE00204749087010233E4A0A21D5
:1023E00000900C20FEF752FF002010233C4A2021D1
:1023F00000900C20FEF74AFF01203E4908700020A3
:102400001023384A0A2100900C20FEF73FFF0020DD
:102410001023354A202100900C20FEF737FF0220C0
:102420003449087000201023304A0A2100900C2003
:10243000FEF72CFF002010232D4A202100900C20B5
:10244000FEF724FF2C480078401C2B4908700846F2
:102450000078032804DD00201D4908702649087013
:10246000FEF7A6FC25480088401C24490880084641
:102470000088B0F57A7F0ADB2148006808B901209E
:1024800000E000201E49086000201C49088008BDAB
:10249000180000203D000020860C00205C07002072
:1024A0003E0000203C0000204B00002043000020A4
:1024B0001A000020580000205B0000205A00002075
:1024C0005600002059000020600000205F0000201E
:1024D000370000203A0000205A0800206404002041
:1024E00088080020B6080020E40800201209002017
:1024F0004009002062000020380000205C0000201D
:10250000A481214210B55248007890B90020514969
:10251000086001205049C1F8B001504908604F4996
:102520002031086000204E49086001204D49C1F863
:10253000880147480078012810D1464908600020EA
:102540004549C1F8B00101204449086043492031A0
:102550000860434908604349C1F888013C48007855
:10256000022811D101203B4908603B49C1F8B00164
:1025700000203A4908600120384920310860384974
:1025800008603849C1F888016420FFF74DFEAE208D
:10259000FEF7F4FEFD20FEF7F1FE1220FEF7E8FE46
:1025A000A020FEF7EBFE3220FEF7E2FE1020FEF741
:1025B000DFFEA220FEF7E2FE1020FEF7D9FEA120EA
:1025C000FEF7DCFE0020FEF7D3FEA620FEF7D6FEC7
:1025D000AD20FEF7D3FE8020FEF7CAFEB120FEF745
:1025E000CDFE7420FEF7C4FEB320FEF7C7FEB12077
:1025F000FEF7BEFEB620FEF7C1FE0820FEF7B8FECD
:10260000B920FEF7BBFEBA20FEF7B8FE0220FEF7A7
:10261000AFFEBB20FEF7B2FE0720FEF7A9FEBE20EC
:10262000FEF7ACFE0720FEF7A3FEC120FEF7A6FED4
:102630004F20FEF79DFECA20FEF7A0FE7F20FEF78A
:1026400097FEFFF7B3FDAF20FEF798FE10BD000028
:1026500062000020BC01234200002242808122420D
:10266000A801224200802242F748006890B1F74852
:1026700090F90000022806DAF4480078401C40B2C5
:10268000F24908701BE0F248007820F00100F049A0
:10269000087014E0ED4890F90000022806DDEB48D0
:1026A0000078401E40B2E949087005E0E84800782B
:1026B00040F00100E64908700120E6490870E24850
:1026C0000838006890B1E14890F90100022806DA64
:1026D000DE484078401C40B2DC4948701BE0DC48D2
:1026E000007820F00200DA49087014E0D74890F929
:1026F0000100022806DDD5484078401E40B2D3498B
:10270000487005E0D248007840F00200D0490870D7
:102710000220D0490870CC481038006890B1CB48EE
:1027200090F90200022806DAC8488078401C40B2BE
:10273000C64988701BE0C648007820F00400C449F0
:10274000087014E0C14890F90200022806DDBF4875
:102750008078401E40B2BD49887005E0BC480078D2
:1027600040F00400BA4908700320BA490870B6481E
:102770001C38006890B1B54890F90300022806DAC9
:10278000B248C078401C40B2B049C8701BE0B048A5
:10279000007820F00800AE49087014E0AB4890F9CA
:1027A0000300022806DDA948C078401E40B2A749B0
:1027B000C87005E0A648007840F00800A4490870F9
:1027C0000420A4490870A448006890B19F4890F97B
:1027D0000400022806DA9D480079401C40B29B495B
:1027E00008711BE09A48007820F0100098490870A2
:1027F00014E0964890F90400022806DD9348007919
:10280000401E40B29149087105E09148007840F0BF
:1028100010008F49087005208E4908708F480068A5
:1028200090B18A4890F90500022806DA8748407975
:10283000401C40B2854948711BE08548007820F073
:1028400020008349087014E0804890F905000228B0
:1028500006DD7E484079401E40B27C49487105E063
:102860007B48007840F020007949087006207949BB
:1028700008707A48001F006890B1744890F906000B
:10288000022806DA71488079401C40B26F4988718D
:102890001BE06F48007820F040006D49087014E09C
:1028A0006A4890F90600022806DD68488079401ED3
:1028B00040B26649887105E06548007840F0400004
:1028C0006349087007206349087064480C38006841
:1028D00090B15E4890F90700022806DA5B48C0799B
:1028E000401C40B25949C8711BE05948007820F09B
:1028F00080005749087014E0544890F907000228F6
:1029000006DD5248C079401E40B25049C87105E00A
:102910004F48007840F080004D49087008204D492C
:1029200008704D481C30006890B1484890F9080084
:10293000022806DA4548007A401C40B24349087232
:102940001BE04348407820F001004149487014E002
:102950003E4890F90800022806DD3C48007A401EF7
:1029600040B23A49087205E03948407840F0010029
:10297000374948700920374908703948006890B1D4
:10298000324890F90900022806DA3048407A401CA3
:1029900040B22E4948721BE02D48407820F00200DA
:1029A0002B49487014E0294890F90900022806DDF7
:1029B0002648407A401E40B22449487205E0244827
:1029C000407840F00200224948700A2021490870EE
:1029D0002348001F006890B11C4890F90A000228A3
:1029E00006DA1A48807A401C40B2184988721BE007
:1029F0001748407820F004001549487014E0134847
:102A000090F90A00022806DD1048807A401E40B284
:102A10000E49887205E00E48407840F004000C49E9
:102A200048700B200B4908700D480C38006800B343
:102A3000064890F90B00022814DA0448C07A401CBA
:102A400040B20249C87229E0380123426E090020D1
:102A50004B0000205800002000812142100122423A
:102A60001C812242F848407820F00800F64948705E
:102A700014E0F64890F90B00022806DDF348C07A0E
:102A8000401E40B2F149C87205E0EF48407840F07E
:102A90000800ED4948700C20ED490870ED480068C9
:102AA00090B1EA4890F90C00022806DAE748007B6A
:102AB000401C40B2E54908731BE0E348407820F031
:102AC0001000E149487014E0E04890F90C00022839
:102AD00006DDDE48007B401E40B2DC49087305E09D
:102AE000D948407840F01000D74948700D20D849A7
:102AF0000870D8480838006890B1D44890F90D00A3
:102B0000022806DAD148407B401C40B2CF494873C6
:102B10001BE0CD48407820F02000CB49487014E0FD
:102B2000CA4890F90D00022806DDC848407B401EC7
:102B300040B2C649487305E0C348407840F02000E1
:102B4000C14948700E20C2490870C2481038006858
:102B500090B1BE4890F90E00022806DABB48807B8F
:102B6000401C40B2B94988731BE0B748407820F058
:102B70004000B549487014E0B44890F90E000228AE
:102B800006DDB248807B401E40B2B049887305E044
:102B9000AD48407840F04000AB4948700F20AC4948
:102BA0000870AC481438006890B1A84890F90F003C
:102BB000022806DAA548C07B401C40B2A349C8736E
:102BC0001BE0A148407820F080009F49487014E045
:102BD0009E4890F90F00022806DD9C48C07B401EED
:102BE00040B29A49C87305E09748407840F08000A9
:102BF000954948701020964908709748006890B130
:102C0000924890F91000022806DA9048007C401C97
:102C100040B28E4908741BE08B48807820F0010098
:102C20008949887014E0894890F91000022806DD6F
:102C30008648007C401E40B28449087405E0824802
:102C4000807840F001008049887011208049087028
:102C50008248006890B17D4890F91100022806DA98
:102C60007A48407C401C40B2784948741BE0764862
:102C7000807820F002007449887014E0734890F95D
:102C80001100022806DD7148407C401E40B26F49A9
:102C9000487405E06C48807840F002006A4988700A
:102CA00012206B4908706E48006890B1674890F92F
:102CB0001200022806DA6548807C401C40B2634955
:102CC00088741BE06048807820F004005E498870BA
:102CD00014E05E4890F91200022806DD5B48807C13
:102CE000401E40B25949887405E05748807840F04A
:102CF00004005549887013205549087057480C380E
:102D0000006890B1514890F91300022806DA4F4844
:102D1000C07C401C40B24D49C8741BE04A488078D2
:102D200020F008004849887014E0484890F91300E2
:102D3000022806DD4548C07C401E40B24349C874A5
:102D400005E04148807840F008003F498870142031
:102D50003F49087040481C30006890B13B4890F9EA
:102D60001400022806DA3948007D401C40B2374979
:102D700008751BE03448807820F0100032498870D4
:102D800014E0324890F91400022806DD2F48007D37
:102D9000401E40B22D49087505E02B48807840F070
:102DA0001000294988701520294908702A481430D4
:102DB000006890B1254890F91500022806DA2348EA
:102DC000407D401C40B2214948751BE01E48807878
:102DD00020F020001C49887014E01C4890F9150070
:102DE000022806DD1948407D401E40B2174948754B
:102DF00005E01548807840F02000134988701620BF
:102E0000134908701748006890B1104890F91600EF
:102E1000022806DA0D48807D401C40B20B498875B7
:102E20002BE00948807820F040000749887024E0B2
:102E3000064890F91600022816DD0448807D401EE1
:102E400040B20249887515E04B0000206E09002051
:102E500058000020340123420481214214012242FF
:102E600004012142148122421A48807840F0400037
:102E7000184988701720184908701848006890B1E0
:102E8000174890F91700022806DA1548C07D401C43
:102E900040B21349C8751BE00E48807820F08000CE
:102EA0000C49887014E00E4890F91700022806DDDE
:102EB0000B48C07D401E40B20949C87505E0054871
:102EC000807840F08000034988701820024908701B
:102ED000704700004B000020580000200C81224267
:102EE0006E09002008B5FEF720F84FF4E1314820C4
:102EF00000F018F94FF4E131242000F095F94FF477
:102F0000E131242000F01EFAFDF7BCFF41F61F411D
:102F10001420FEF71BFD41F61F416420FEF789FCDB
:102F2000FEF712FB1E23354A35493648FDF706FDEC
:102F300040F2EE23344A324932481430FDF7ACFCFB
:102F40000F23324A32492F483C30FDF787FDAD232D
:102F5000304A2F492B482830FDF732FD0C232E4AEA
:102F60002E4928482838FDF709FE0C232C4A2B4906
:102F700024481438FDF7B4FD002006230222032163
:102F800000900120FDF782F9FEF750F80020254956
:102F90000870FFF7B7FA002080235A00014600901E
:102FA000FEF70CF801201F490870FFF7ABFA00206C
:102FB00080235A0001460090FEF700F802201949CC
:102FC0000870FFF79FFA002080235A000146009006
:102FD000FDF7F4FFFDF704FF02211348FEF716FB8F
:102FE000FFF718F86420FFF71FF940F6746110200E
:102FF000FDF7E6FE01E0FFF727F9FCE752030020AA
:1030000004380140440002406400002024040020F1
:1030100004440040700300203A04002004480040AB
:103020002E0400206200002000000020F0B50346BE
:10303000144600202246254660E0052809DA164697
:10304000571CBAB213F806C00646471CB8B201F8BE
:1030500006C0052808DB082806DA4FF0200C0646D3
:10306000471CB8B201F806C0082801DB012600E0C1
:1030700000260D2801DA012700E000273E404EB16E
:103080001646571CBAB213F806C00646471CB8B21B
:1030900001F806C00D2808DB102806DA4FF0200CD6
:1030A0000646471CB8B201F806C010280BDB1528ED
:1030B00009DA1646571CBAB213F806C00646471C72
:1030C000B8B201F806C0152808DB182806DA4FF058
:1030D000200C0646471CB8B201F806C018280BDBC6
:1030E0001D2809DA1646571CBAB213F806C0064660
:1030F000471CB8B201F806C06E1CB5B204F1200638
:10310000B5429ADBF0BD10B502460B460024022101
:1031100004E0505C204484B2481C81B29942F8DB40
:10312000E0B210BD2DE9F84F05460E46300100F023
:10313000DBFA8146384905FB01F000F0D5FA8246FA
:10314000494600F0EFF90746384600F0ADFA84B280
:10315000204600F0C9FA8346394600F0A5FB8246B6
:103160004FF0834100F0D4FA814600F09DFA80468A
:103170004FF6FF7000EA041404EB080084B22748FD
:10318000806940F00400254988610846806940F460
:10319000804088612248006820F47F6020490860F0
:1031A0000846006840F40B6008601C48C06840F4A2
:1031B00080401A49C8600846C06820F48040C86052
:1031C00018480480001D008842F20C01084315498C
:1031D000091D08800846008840F480700880084671
:1031E000008840F0100008800E480838008820F061
:1031F00010000C490839088025208DF800000320B4
:103200008DF801008DF8020001208DF8030068465A
:10321000FDF792FEBDE8F88F40420F00001002401B
:1032200004080140083801402DE9F84F05460E46D4
:10323000300100F059FA81463D4905FB01F000F0EC
:1032400053FA8246494600F06DF90746384600F0C9
:103250002BFA84B2204600F047FA8346394600F044
:1032600023FB82464FF0834100F052FA814600F082
:103270001BFA80464FF6FF7000EA041404EB0800C6
:1032800084B22C48806940F004002A4988610846CD
:10329000C06940F40030C8612748006820F47F40CE
:1032A000254908600846006840F40B400860214842
:1032B000006940F400301F4908610846006920F4A5
:1032C000003008611D480480001D008842F20C0196
:1032D00008431A49091D08800846008840F4807098
:1032E00008800846008840F010000880134808381D
:1032F0000088134908801148001F008808800F4883
:103300000838008820F010000C4908390880262071
:103310008DF8000003208DF801008DF802000120D7
:103320008DF803006846FDF707FEBDE8F88F000042
:1033300040420F00001002400008014008440040D5
:103340002A0000202DE9F84F05460E46300100F016
:10335000CBF981463D4905FB01F000F0C5F98246F5
:10336000494600F0DFF80746384600F09DF984B280
:10337000204600F0B9F98346394600F095FA8246B6
:103380004FF0834100F0C4F9814600F08DF980468A
:103390004FF6FF7000EA041404EB080084B22C48D6
:1033A000806940F008002A4988610846C06940F4F5
:1033B0008020C8612748006820F47F4025490860C4
:1033C0000846006840F40B4008602148006940F45A
:1033D00080201F4908610846006920F480200861A8
:1033E0001D480480001D008842F20C0108431A4960
:1033F000091D08800846008840F48070088008464F
:10340000008840F0100008801348083800881349ED
:1034100008801148001F008808800F48083800887D
:1034200020F010000C490839088027208DF8000092
:1034300003208DF801008DF8020001208DF80300B3
:103440006846FDF779FDBDE8F88F000040420F00A7
:1034500000100240040C0140084800402C000020ED
:1034600090EA010F48BF81F0004100F12E82421A1C
:103470003CBF801A89184FEAD0524FF07F4C1CEAAB
:10348000410FA2EBD15318BF9CEA026F00F03B80C2
:103490004FF0004C4CEA00204CEA012121FA03FCD9
:1034A00010EB0C0C1ED202F1FF325FEA1C2040EB45
:1034B000C25038BF70471CF07F0F4FEA400C18BF56
:1034C000BCF17F4F38BF7047C3F12003994008BF5C
:1034D00020F00100BCF17F4F38BF7047A0F1C04021
:1034E00000F0DDB94FEA3C00000A40EBC25028BFB3
:1034F0001CF0FF0F4FEA400CE6D018BFBCF17F4F25
:1035000038BF7047EAE79CEA026F05D010EA5C0F0B
:1035100008BF00F00040704710B500F07AF900BF16
:1035200064FBBE3E4FF47F0C1CEAD0121EBF1CEAA7
:10353000D11392EA0C0F93EA0C0F00F0858090EA09
:10354000010F48BF42F4807240F4000C41F40000C7
:103550002CF07F4120F07F4000B58142A2EB0302B6
:103560000FF2081CACEB504EC0F100009EF800E0DA
:103570004FEA4E0E00FB0EFC38BF49004FEA2C1CF0
:1035800002F5FA020CFB0EF34FEACE1E4FEA112CA5
:103590004FEAC1210EEB635E42EB22420EFB0CFCB4
:1035A0004FEA1C5300FB03114FEA112C4FEA013183
:1035B0000EFB0CFC4FEADC4C00FB0C11C14228BF97
:1035C00009184CEB03335DF804EB10EB410143EBBE
:1035D000C250B2F57C0F38BF704729D512F0F00FFA
:1035E0001CBF00F1C04000F00040704700818283A2
:1035F0008485868788898B8C8D8E8F919293959602
:1036000097999A9C9D9FA0A2A3A5A7A8AAACAEB08B
:10361000B2B3B5B7B9BCBEC0C2C5C7C9CCCED1D490
:10362000D7D9DCDFE2E6E9ECF0F3F7FAFE000000C0
:103630004FEA400C0CF1807CBCF17E4F28BF7047F4
:10364000B0F1C04000F02BB990EA010F0CEAD113A1
:1036500048BF42F48072624538BF634507D213F415
:103660007F0F16D080EA010000F00040704710B5CF
:1036700000F0CFF8097EFC3E00F005B880EA0100BA
:1036800000F00040704780EA010000F0004000F0C8
:1036900006B912F47F0F04BF0248704780EA0100A8
:1036A00000F0FDB80000C07FC10DD1F19E0206DB25
:1036B0004FEA002343F0004323FA02F07047004230
:1036C00007D54FEA4001B1F1FE4F02D24FF00000A2
:1036D000704710B500F09DF8499224800020704793
:1036E0006FEA200070470000B0FA80F310FA03F28E
:1036F000C3F19D030AD0D90501EB1220530638BF50
:10370000704700F1010008BF20F001007047000081
:103710004FF47F0C1CEAD0121EBF1CEAD11392EAB0
:103720000C0F93EA0C0F00F0478090EA010F48BF9E
:1037300042F480724FF0004C4CEA00204CEA012128
:1037400002EB0302A0FB0113A2F50002002918BF3F
:1037500043F001035B0028BF4FEA330342EB2242F0
:103760005FEA132C4CEBC2502EBFBCEB436FB2F59B
:103770007C0F70474FEA036CBCF1004F08BF20F08C
:103780000100B2F57C0F38BF70470BD582F0FF0205
:1037900012F5803FC8BF704700F1C040D8BF00F0AD
:1037A0000040704700F5000C5FEA4C0C48BF7047C2
:1037B000B0F1C04000F073B890EA010F0CEAD113E9
:1037C00048BF42F48072624538BF634504D280EA44
:1037D000010000F00040704710B500F01AF800BF7B
:1037E0008900013E00F007B800F009B85FEA410C1B
:1037F0005FEA1C6C08D080EA010000F050B85FEA74
:10380000400C5FEA1C6CF6D14FF00040A0F5800040
:1038100070470EF1020E2EF0030E5EF8044B2442A8
:1038200004D44FEA4102B2F17F4F11D84FEA40036E
:10383000B3F17F4F0CD80ED14FEAD07CB2F17F4F5D
:103840000CEB4C0C0CF1020C08BF4CEBD17C04E0EF
:103850004FF0080C01E04FEAD17C0CEB4C0324FA4A
:1038600003F404F00704B4F1040C06D20EEB840C4C
:10387000BDE810404CF0010C6047DFE80CF0070891
:1038800002024FF00040A0F5800010BD0846420043
:1038900018BFD2F1807288BF00F0004010BDFF2138
:1038A00041EAD050C005704780F0004090EA010F17
:1038B0007FF5DDAD81F0004100F007B890EA010F1F
:1038C00048BF81F000413FF5D2AD421A04D882F0E2
:1038D0000042A0EB020011444FEAD0524FF07F4C5F
:1038E0001CEA410FA2EBD15318BF9CEA026F4AD0E9
:1038F0004FF0004C4CEA00204CEA012121FA03FC75
:10390000B0EB0C0C0FD412F0FE0F36D05FEA4C0077
:103910001DD5001240EBC25038BF70471CF03F0F5E
:1039200018BF70470BE0A2F101025FEA1C2040EBD8
:10393000C25038BF70471CF07F0F18BF7047C3F1EB
:103940002003994014BF401E20F0010070478008FA
:103950004FEA122308BF7047B0FA80FCA2EB0C02BA
:10396000CCF1280C60FA0CF093EA122F04BF00EBA4
:10397000C25070474FEAC3707047130A5FEADC1009
:1039800008BF7047F6E79CEA026F04D010EA5C0FAC
:1039900008BF0020704710B5FFF73BFF40DFF63E41
:1039A00081F00040704733333333333333333333B1
:1039B00033333333333333333333333333333333D7
:1039C00033333333333333333333333333777777FB
:1039D0007777777777777777777777777777777777
:1039E0007777777777777777777777777777777767
:1039F000777777000000000000337777330000000E
:103A00000000000033330000000000000000000050
:103A100000000000000000000000000000000000A6
:103A20000000000000003333333333333333333398
:103A30003333333333333333333333333333333356
:103A4000333333333333333333333333337777777A
:103A500077777777777777777777777777777777F6
:103A600077777777777777777777777777777777E6
:103A7000777777000000000000337777330000008D
:103A800000000000333300000000000000000000D0
:103A90000000000000000000000000000000000026
:103AA0000000000000003333333333333333333318
:103AB00033333333333333333333333333333333D6
:103AC00033333333333333333333333333777777FA
:103AD0007777777777777777777777777777777776
:103AE0007777777777777777777777777777777766
:103AF00077777700000000000000777777000000FC
:103B000000000000777700000000000000000000C7
:103B100000000000000000000000000000000000A5
:103B20000000000000003333333333333333333397
:103B30003333333333333333333333333333333355
:103B40003333333333333333333333333377777779
:103B500077777777777777777777777777777777F5
:103B600077777777777777777777777777777777E5
:103B7000777777000000000000007777770000007B
:103B80000000000077770000000000000000000047
:103B90000000000000000000000000000000000025
:103BA0000000000000003333333333333333333317
:103BB00033333333333333333333333333333333D5
:103BC00033333333333333333333333377777777B5
:103BD0007777777777777777777777777777777775
:103BE0007777777777777777777777777777777765
:103BF000777777000000000000003377773300000C
:103C00000000007777330000000000000000000093
:103C100000000000000000000000000000000000A4
:103C20000000000000003333333333333333333396
:103C30003333333333333333333333333333333354
:103C40003333333333333333333333337777777734
:103C500077777777777777777777777777777777F4
:103C600077777777777777777777777777777777E4
:103C7000777777000000000000003377773300008B
:103C80000000007777330000000000000000000013
:103C90000000000000000000000000000000000024
:103CA0000000000000003333333333333333333316
:103CB00033333333333333333333333333333333D4
:103CC0003333333333333333333333777777777770
:103CD0007777777777777777777777777777777774
:103CE0007777777777777777777777777777777764
:103CF000777777000000000000000033AA7700000B
:103D00000000007777330000000000000000000092
:103D100000000000000000000000000000000000A3
:103D20000000000000003333333333333333333395
:103D30003333333333333333333333333333333353
:103D400033333333333333333333337777777777EF
:103D500077777777777777777777777777777777F3
:103D600077777777777777777777777777777777E3
:103D7000777777000000000000000033AA7700008A
:103D80000000007777330000000000000000000012
:103D90000000000000000000000000000000000023
:103DA0000000000000003333333333333333333315
:103DB00033333333333333333333333333333333D3
:103DC000333333333333333333333377777777776F
:103DD000777777777777777733333377777777773F
:103DE0007777777777777777777777777777777763
:103DF000777777000000000000000000000000005E
:103E0000000033777733000000000000000000005E
:103E100000000000000000000000000000000000A2
:103E20000000000000003333333333333333333394
:103E30003333333333333333333333333333333352
:103E400033333333333333333333337777777777EE
:103E500077777777777777773333337777777777BE
:103E600077777777777777777777777777777777E2
:103E700077777700000000000000000000000000DD
:103E800000003377773300000000000000000000DE
:103E90000000000000000000000000000000000022
:103EA0000000000000003333333333333333333314
:103EB00033333333333333333333333333333333D2
:103EC000333333333333333333333377777777776E
:103ED000777777777777330000000000337777774D
:103EE0007777777777777777777777777777777762
:103EF000777777000000000000000000000000005D
:103F00000000337777770000000000000000000019
:103F100000000000000000000000000000000000A1
:103F20000000000000003333333333333333333393
:103F30003333333333333333333333333333333351
:103F400033333333333333333333337777777777ED
:103F500077777777777733000000000033777777CC
:103F600077777777777777777777777777777777E1
:103F700077777700000000000000000000000000DC
:103F80000000337777770000000000000000000099
:103F90000000000000000000000000000000000021
:103FA0000000000000003333333333333333333313
:103FB00033333333333333333333333333333333D1
:103FC0003333333333333333333377777777777729
:103FD000777777777700000000000000003377776D
:103FE0007777777777777777777777777777777761
:103FF0007777773300000000000000000000000029
:1040000000000077777777000000000000000000D4
:1040100000000000000000000000000000000000A0
:104020000000000000003333333333333333333392
:104030003333333333333333333333333333333350
:1040400033333333333333333333777777777777A8
:1040500077777777770000000000000000337777EC
:1040600077777777777777777777777777777777E0
:1040700077777733000000000000000000000000A8
:104080000000007777777700000000000000000054
:104090000000000000000000000000000000000020
:1040A0000000000000003333333333333333333312
:1040B00033333333333333333333333333333333D0
:1040C0003333333333333333333377777777777728
:1040D0007777777700000000000000000000777716
:1040E0007777777777777777777777777777777760
:1040F00077777777000000000000000000000000E4
:1041000000000000777777770000000000000000D3
:10411000000000000000000000000000000000009F
:104120000000000000003333333333333333333391
:10413000333333333333333333333333333333334F
:1041400033333333333333333333777777777777A7
:104150007777777700000000000000000000777795
:1041600077777777777777777777777777777777DF
:104170007777777700000000000000000000000063
:104180000000000077777777000000000000000053
:10419000000000000000000000000000000000001F
:1041A0000000000000003333333333333333333311
:1041B000333333333333333333333377777777777B
:1041C000777777777777333333337777777777778F
:1041D0007777777700000000FFFF770000003377E4
:1041E000777777777777777777777777777777775F
:1041F000777777AA000000000000000000000000B0
:1042000000000000000077770000000000000000C0
:10421000000000000000000000000000000000009E
:104220000000000000003333333333333333333390
:1042300033333333333333333333337777777777FA
:10424000777777777777333333337777777777770E
:104250007777777700000000FFFF77000000337763
:1042600077777777777777777777777777777777DE
:10427000777777AA0000000000000000000000002F
:104280000000000000007777000000000000000040
:10429000000000000000000000000000000000001E
:1042A0000000000000003333333333333333333310
:1042B000333333333333337777777777777777776A
:1042C000777777777777777777777777777777777E
:1042D0007777777700000033FFFFFF330000007728
:1042E000777777777777777777777777777777775E
:1042F00077777777000000000000000000000000E2
:1043000000000000000000000000000000000000AD
:10431000000000000000000000000000000000009D
:10432000000000000000333333333333333333338F
:1043300033333333333333777777777777777777E9
:1043400077777777777777777777777777777777FD
:104350007777777700000033FFFFFF3300000077A7
:1043600077777777777777777777777777777777DD
:104370007777777700000000000000000000000061
:10438000000000000000000000000000000000002D
:10439000000000000000000000000000000000001D
:1043A000000000000000333333333333333333330F
:1043B0003333337777777777777777777777777759
:1043C000777777777777777777777777777777777D
:1043D0007777777700000033FFFFFF00000000775A
:1043E000777777777777777777777777777777775D
:1043F00077777777330000000000000033AA77005A
:1044000000000000000000000000000000000000AC
:10441000000000000000000000000000000000009C
:10442000000000000000333333333333333333338E
:1044300033333377777777777777777777777777D8
:1044400077777777777777777777777777777777FC
:104450007777777700000033FFFFFF0000000077D9
:1044600077777777777777777777777777777777DC
:1044700077777777330000000000000033AA7700D9
:10448000000000000000000000000000000000002C
:10449000000000000000000000000000000000001C
:1044A000000000000000333333333333333333330E
:1044B00033777777777777777777777777777777D0
:1044C000777777777777777777777777777777777C
:1044D0007777777700000000003300000000337723
:1044E000777777777777777777777777777777775C
:1044F0007777777777000000000000007777330048
:1045000000000000000000000000000000000000AB
:10451000000000000000000000000000000000009B
:10452000000000000000333333333333333333338D
:10453000337777777777777777777777777777774F
:1045400077777777777777777777777777777777FB
:1045500077777777000000000033000000003377A2
:1045600077777777777777777777777777777777DB
:1045700077777777770000000000000077773300C7
:10458000000000000000000000000000000000002B
:10459000000000000000000000000000000000001B
:1045A00000000000000033333333333333333377C9
:1045B000777777777777777777777777777777778B
:1045C000777777777777777777777777777777777B
:1045D00077777777330000000000000000007777DE
:1045E000777777777777777777777777777777775B
:1045F0007777777777330000000000337777000014
:1046000000000000000000000000000000000000AA
:10461000000000000000000000000000000000009A
:104620000000000000003333333333333333337748
:10463000777777777777777777777777777777770A
:1046400077777777777777777777777777777777FA
:10465000777777773300000000000000000077775D
:1046600077777777777777777777777777777777DA
:104670007777777777330000000000337777000093
:10468000000000000000000000000000000000002A
:10469000000000000000000000000000000000001A
:1046A0000000000000003333333333333333777784
:1046B000777777777777777777777777777777778A
:1046C000777777777777777777777777777777777A
:1046D0007777777777000000000000000033777766
:1046E000777777777777777777777777777777775A
:1046F0007777777777DD0000000000777777000025
:1047000000000000000000000000000000000000A9
:104710000000000000000000000000000000000099
:104720000000000000003333333333333333777703
:104730007777777777777777777777777777777709
:1047400077777777777777777777777777777777F9
:1047500077777777770000000000000000337777E5
:1047600077777777777777777777777777777777D9
:104770007777777777DD00000000007777770000A4
:104780000000000000000000000000000000000029
:104790000000000000000000000000000000000019
:1047A000000000000000333333333333337777773F
:1047B0007777777777777777777777777777777789
:1047C0007777777777777777777777777777777779
:1047D0007777777777773300000000003377777744
:1047E0007777777777777777777777777777777759
:1047F0007777777777770000000000777777770013
:1048000000000000000000000000000000000000A8
:104810000000000000000000000000000000000098
:1048200000000000000033333333333333777777BE
:104830007777777777777777777777777777777708
:1048400077777777777777777777777777777777F8
:1048500077777777777733000000000033777777C3
:1048600077777777777777777777777777777777D8
:104870007777777777770000000000777777770092
:104880000000000000000000000000000000000028
:104890000000000000000000000000000000000018
:1048A000000000000000333333333333AA777777C7
:1048B0007777777777777777777777777777777788
:1048C0007777777777777777333333777777777744
:1048D0007777777777777777777777777777777768
:1048E0007777777777777777777777777777777758
:1048F0007777777777770000000000007777777712
:1049000000000000000000000000000000000000A7
:104910000000000000000000000000000000000097
:10492000000000000000333333333333AA77777746
:104930007777777777777777777777777777777707
:1049400077777777777777773333337777777777C3
:1049500077777777777777777777777777777777E7
:1049600077777777777777777777777777777777D7
:104970007777777777770000000000007777777791
:104980000000000000000000000000000000000027
:104990000000000000000000000000000000000017
:1049A00000000000000033333333333377777777F9
:1049B0007777777777777777777777777777777787
:1049C0007777777777777733333377777777777743
:1049D0007777777777777777777777777777777767
:1049E0007777777777777777777777777777777757
:1049F0007777777777770000000000000077777788
:104A00003300000000000000000000000000000073
:104A10000000000000000000000000000000000096
:104A20000000000000003333333333337777777778
:104A30007777777777777777777777777777777706
:104A400077777777777777333333777777777777C2
:104A500077777777777777777777777777777777E6
:104A600077777777777777777777777777777777D6
:104A70007777777777770000000000000077777707
:104A800033000000000000000000000000000000F3
:104A90000000000000000000000000000000000016
:104AA000000000000000333333333333337777773C
:104AB0007777777777777777777777777777777786
:104AC0007777777777773333333377777777777786
:104AD0007777777777777777777777777777777766
:104AE0007777FFFF77777777777777777777777746
:104AF00077777777777700000000000000007777FE
:104B00007700000000000000007733000000000084
:104B10000000000000000000000000000000000095
:104B200000000000000033333333333333777777BB
:104B30007777777777777777777777777777777705
:104B40007777777777773333333377777777777705
:104B500077777777777777777777777777777777E5
:104B60007777FFFF777777777777777777777777C5
:104B7000777777777777000000000000000077777D
:104B80007700000000000000007733000000000004
:104B90000000000000000000000000000000000015
:104BA000000000000000333333333333337777773B
:104BB0007777777777777777777777777777777785
:104BC0007777773333333333333377777777777751
:104BD0007777777777777777777777777777777765
:104BE0007777FFFFFF7777777777777777777777BD
:104BF0007777777777773300000000000000003385
:104C000000000000000000003377330000000000C7
:104C10000000000000000000000000000000000094
:104C200000000000000033333333333333777777BA
:104C30007777777777777777777777777777777704
:104C400077777733333333333333777777777777D0
:104C500077777777777777777777777777777777E4
:104C60007777FFFFFF77777777777777777777773C
:104C70007777777777773300000000000000003304
:104C80000000000000000000337733000000000047
:104C90000000000000000000000000000000000014
:104CA00000000000000033333333333333333377C2
:104CB0007777777777777777777777777777777784
:104CC000333333333333333333337777777777771C
:104CD0007777777777777777777777777777777764
:104CE0007777DDFFFF7777777777777777777777DE
:104CF00077777777777733000000000000000000B7
:104D00000000000000000000777733000000000082
:104D10000000000000000000000000000000000093
:104D20000000000000003333333333333333337741
:104D30007777777777777777777777777777777703
:104D4000333333333333333333337777777777779B
:104D500077777777777777777777777777777777E3
:104D60007777DDFFFF77777777777777777777775D
:104D70007777777777773300000000000000000036
:104D80000000000000000000777733000000000002
:104D90000000000000000000000000000000000013
:104DA0000000000000003333333333333333333305
:104DB000333333333333777777777733333333336F
:104DC000333333333333333333337777777777771B
:104DD0007777777777777777777777777777777763
:104DE000777777FFFF777777777777777777777743
:104DF00077777777777733000000000000000000B6
:104E0000000000000000003377777700000000000A
:104E10000000000000000000000000000000000092
:104E20000000000000003333333333333333333384
:104E300033333333333377777777773333333333EE
:104E4000333333333333333333337777777777779A
:104E500077777777777777777777777777777777E2
:104E6000777777FFFF7777777777777777777777C2
:104E70007777777777773300000000000000000035
:104E8000000000000000003377777700000000008A
:104E90000000000000000000000000000000000012
:104EA0000000000000003333333333333333333304
:104EB00033333333333333333333333333333333C2
:104EC000333333333333333333337777777777771A
:104ED0007777777777777777777777777777777762
:104EE00077AA77FFFFDD77777777777777777777A9
:104EF00077777777777733000000000000000000B5
:104F0000000000000000000077777700000000003C
:104F10000000000000000000000000000000000091
:104F20000000000000003333333333333333333383
:104F30003333333333333333333333333333333341
:104F40003333333333333333333377777777777799
:104F500077777777777777777777777777777777E1
:104F600077AA77FFFFDD7777777777777777777728
:104F70007777777777773300000000000000000034
:104F800000000000000000007777770000000000BC
:104F90000000000000000000000000000000000011
:104FA0000000000000003333333333333333333303
:104FB00033333333333333333333333333333333C1
:104FC0003333333333333333333377777777777719
:104FD0007777777777777777777777777777777761
:104FE00077DD7777FF777777777777777777777763
:104FF0007777777777777700000000000000000070
:105000000000000000000000777777330000000008
:105010000000000000000000000000000000000090
:105020000000000000003333333333333333333382
:105030003333333333333333333333333333333340
:105040003333333333333333333377777777777798
:1050500077777777777777777777777777777777E0
:1050600077DD7777FF7777777777777777777777E2
:1050700077777777777777000000000000000000EF
:105080000000000000000000777777330000000088
:105090000000000000000000000000000000000010
:1050A0000000000000003333333333333333333302
:1050B00033333333333333333333333333333333C0
:1050C0003333333333333333333377777777777718
:1050D0007777777777777777777777777777777760
:1050E0007777777777777777777777777777777750
:1050F000777777777777773300000000000000003C
:105100000000000000000000337777770000000007
:10511000000000000000000000000000000000008F
:105120000000000000003333333333333333333381
:10513000333333333333333333333333333333333F
:105140003333333333333333333377777777777797
:1051500077777777777777777777777777777777DF
:1051600077777777777777777777777777777777CF
:1051700077777777777777330000000000000000BB
:105180000000000000000000337777770000000087
:10519000000000000000000000000000000000000F
:1051A0000000000000003333333333333333333301
:1051B000333333333333333333333333333333777B
:1051C000773377333333333333337777777777778F
:1051D000777777777777777777777777777777775F
:1051E000777777777777777777777777777777774F
:1051F00077777777777777770000000000000000F7
:105200000000000000000000003377AA77000000D3
:10521000000000000000000000000000000000008E
:105220000000000000003333333333333333333380
:1052300033333333333333333333333333333377FA
:10524000773377333333333333337777777777770E
:1052500077777777777777777777777777777777DE
:1052600077777777777777777777777777777777CE
:105270007777777777777777000000000000000076
:105280000000000000000000003377AA7700000053
:10529000000000000000000000000000000000000E
:1052A0000000000000003333333333333333333300
:1052B0003333333333333333333333333333777736
:1052C000777777333333333333333377777777778E
:1052D000777777777777777777777777777777775E
:1052E000777777777777777777777777777777774E
:1052F00077777777777777770000000000000000F6
:10530000000000000000000000000000000000009D
:10531000000000000000000000000000000000008D
:10532000000000000000333333333333333333337F
:1053300033333333333333333333333333337777B5
:10534000777777333333333333333377777777770D
:1053500077777777777777777777777777777777DD
:1053600077777777777777777777777777777777CD
:105370007777777777777777000000000000000075
:10538000000000000000000000000000000000001D
:10539000000000000000000000000000000000000D
:1053A00000000000000033333333333333333333FF
:1053B0003333333333333333333333333333777735
:1053C0007777777733333333333333777777777749
:1053D000777777777777777777777777777777775D
:1053E000777777777777777777777777777777774D
:1053F00077777777777777770000000000000000F5
:10540000000000000000000000000000000000009C
:10541000000000000000000000000000000000008C
:10542000000000000000333333333333333333337E
:1054300033333333333333333333333333337777B4
:1054400077777777333333333333337777777777C8
:1054500077777777777777777777777777777777DC
:1054600077777777777777777777777777777777CC
:105470007777777777777777000000000000000074
:10548000000000000000000000000000000000001C
:10549000000000000000000000000000000000000C
:1054A00000000000000033333333333333333333FE
:1054B0003333333333333333333333333333777734
:1054C000DD7777773333333333337777777777779E
:1054D000777777777777777777777777777777775C
:1054E000777777777777777777777777777777774C
:1054F00077777777777777773300000000000000C1
:10550000000000000000000000000000000000009B
:10551000000000000000000000000000000000008B
:10552000000000000000333333333333333333337D
:1055300033333333333333333333333333337777B3
:10554000DD7777773333333333337777777777771D
:1055500077777777777777777777777777777777DB
:1055600077777777777777777777777777777777CB
:105570007777777777777777330000000000000040
:10558000000000000000000000000000000000001B
:10559000000000000000000000000000000000000B
:1055A00000000000000033333333333333333333FD
:1055B0003333333333333333333333333333777733
:1055C00077AA77773333333333777777777777778C
:1055D000777777777777777777777777777777775B
:1055E000777777777777777777777777777777774B
:1055F00077777777777777773300000000000000C0
:105600000000333300000000000000000000000034
:10561000000000000000000000000000000000008A
:10562000000000000000333333333333333333337C
:1056300033333333333333333333333333337777B2
:1056400077AA77773333333333777777777777770B
:1056500077777777777777777777777777777777DA
:1056600077777777777777777777777777777777CA
:10567000777777777777777733000000000000003F
:1056800000003333000000000000000000000000B4
:10569000000000000000000000000000000000000A
:1056A00000000000000033333333333333333333FC
:1056B0003333333333333333333333333333777732
:1056C0007777337777333333777733337777777702
:1056D000777777777777777777777777777777775A
:1056E000777777777777777777777777777777774A
:1056F000777777777777777777000000000000007B
:105700000033AA3300000000000000000000000089
:105710000000000000000000000000000000000089
:10572000000000000000333333333333333333337B
:1057300033333333333333333333333333337777B1
:105740007777337777333333777733337777777781
:1057500077777777777777777777777777777777D9
:1057600077777777777777777777777777777777C9
:1057700077777777777777777700000000000000FA
:105780000033AA3300000000000000000000000009
:105790000000000000000000000000000000000009
:1057A00000000000000033333333333333333333FB
:1057B00033333333333333333333333333333333B9
:1057C0003377333377DD77773333333377777777DF
:1057D000777777777777777777777777773300008B
:1057E0000000000077777777777777777777777725
:1057F0007777777777777777773300000000000047
:105800000077777700000000000000000000000033
:105810000000000000000000000000000000000088
:10582000000000000000333333333333333333337A
:105830003333333333333333333333333333333338
:105840003377333377DD777733333333777777775E
:10585000777777777777777777777777773300000A
:1058600000000000777777777777777777777777A4
:1058700077777777777777777733000000000000C6
:1058800000777777000000000000000000000000B3
:105890000000000000000000000000000000000008
:1058A00000000000000033333333333333333333FA
:1058B00033333333333333333333333333333333B8
:1058C0003333333377773333333333337777777710
:1058D0007777777777777777777777770000000034
:1058E000000000000077777777777777777777779B
:1058F0007777777777777777777700000000000002
:105900000077777700000000000000000000000032
:105910000000000000000000000000000000000087
:105920000000000000003333333333333333333379
:105930003333333333333333333333333333333337
:10594000333333337777333333333333777777778F
:1059500077777777777777777777777700000000B3
:10596000000000000077777777777777777777771A
:105970007777777777777777777700000000000081
:1059800000777777000000000000000000000000B2
:105990000000000000000000000000000000000007
:1059A00000000000000033333333333333333333F9
:1059B00033333333333333333333333333333333B7
:1059C0003333337777333333333333333377777753
:1059D00077777777777777777777770000000000AA
:1059E00000000000003377777777777777777777DE
:1059F0007777777777777777777700000000000001
:105A0000007777AA000000000000000000000000FE
:105A10000000000000000000000000000000000086
:105A20000000000000003333333333333333333378
:105A30003333333333333333333333333333333336
:105A400033333377773333333333333333777777D2
:105A50007777777777777777777777000000000029
:105A6000000000000033777777777777777777775D
:105A70007777777777777777777700000000000080
:105A8000007777AA0000000000000000000000007E
:105A90000000000000000000000000000000000006
:105AA00000000000000033333333333333333333F8
:105AB00033333333333333333333333333333333B6
:105AC00033333333333333333333333333777777DA
:105AD0007777777777777777777777000000007732
